{
  "_format": "hh-sol-artifact-1",
  "contractName": "Auction",
  "sourceName": "contracts/erc20/Auction.sol",
  "abi": [
    {
      "inputs": [],
      "stateMutability": "nonpayable",
      "type": "constructor"
    },
    {
      "inputs": [
        {
          "internalType": "uint256",
          "name": "time",
          "type": "uint256"
        },
        {
          "internalType": "uint256",
          "name": "end",
          "type": "uint256"
        }
      ],
      "name": "AuctionActive",
      "type": "error"
    },
    {
      "inputs": [
        {
          "internalType": "uint256",
          "name": "time",
          "type": "uint256"
        },
        {
          "internalType": "uint256",
          "name": "end",
          "type": "uint256"
        }
      ],
      "name": "AuctionOver",
      "type": "error"
    },
    {
      "inputs": [
        {
          "internalType": "uint256",
          "name": "time",
          "type": "uint256"
        },
        {
          "internalType": "uint256",
          "name": "start",
          "type": "uint256"
        }
      ],
      "name": "AuctionPending",
      "type": "error"
    },
    {
      "inputs": [
        {
          "internalType": "uint256",
          "name": "bid",
          "type": "uint256"
        },
        {
          "internalType": "uint256",
          "name": "currentBid",
          "type": "uint256"
        }
      ],
      "name": "BidTooLow",
      "type": "error"
    },
    {
      "inputs": [
        {
          "internalType": "address",
          "name": "person",
          "type": "address"
        }
      ],
      "name": "NotWhitelisted",
      "type": "error"
    },
    {
      "inputs": [],
      "name": "ZeroAmount",
      "type": "error"
    },
    {
      "anonymous": false,
      "inputs": [
        {
          "indexed": true,
          "internalType": "uint256",
          "name": "id",
          "type": "uint256"
        }
      ],
      "name": "AuctionCompleted",
      "type": "event"
    },
    {
      "anonymous": false,
      "inputs": [
        {
          "indexed": true,
          "internalType": "uint256",
          "name": "id",
          "type": "uint256"
        },
        {
          "indexed": false,
          "internalType": "address",
          "name": "bidder",
          "type": "address"
        },
        {
          "indexed": false,
          "internalType": "uint256",
          "name": "amount",
          "type": "uint256"
        }
      ],
      "name": "Bid",
      "type": "event"
    },
    {
      "anonymous": false,
      "inputs": [
        {
          "indexed": true,
          "internalType": "uint256",
          "name": "id",
          "type": "uint256"
        },
        {
          "indexed": true,
          "internalType": "address",
          "name": "token",
          "type": "address"
        },
        {
          "indexed": true,
          "internalType": "address",
          "name": "seller",
          "type": "address"
        },
        {
          "indexed": false,
          "internalType": "address",
          "name": "traded",
          "type": "address"
        },
        {
          "indexed": false,
          "internalType": "uint256",
          "name": "amount",
          "type": "uint256"
        },
        {
          "indexed": false,
          "internalType": "uint64",
          "name": "start",
          "type": "uint64"
        },
        {
          "indexed": false,
          "internalType": "uint32",
          "name": "length",
          "type": "uint32"
        }
      ],
      "name": "NewAuction",
      "type": "event"
    },
    {
      "inputs": [
        {
          "internalType": "uint256",
          "name": "id",
          "type": "uint256"
        }
      ],
      "name": "auctionActive",
      "outputs": [
        {
          "internalType": "bool",
          "name": "",
          "type": "bool"
        }
      ],
      "stateMutability": "view",
      "type": "function"
    },
    {
      "inputs": [
        {
          "internalType": "address",
          "name": "",
          "type": "address"
        },
        {
          "internalType": "address",
          "name": "",
          "type": "address"
        }
      ],
      "name": "balances",
      "outputs": [
        {
          "internalType": "uint256",
          "name": "",
          "type": "uint256"
        }
      ],
      "stateMutability": "view",
      "type": "function"
    },
    {
      "inputs": [
        {
          "internalType": "uint256",
          "name": "id",
          "type": "uint256"
        },
        {
          "internalType": "uint256",
          "name": "bidAmount",
          "type": "uint256"
        }
      ],
      "name": "bid",
      "outputs": [],
      "stateMutability": "nonpayable",
      "type": "function"
    },
    {
      "inputs": [
        {
          "internalType": "uint256",
          "name": "id",
          "type": "uint256"
        }
      ],
      "name": "complete",
      "outputs": [],
      "stateMutability": "nonpayable",
      "type": "function"
    },
    {
      "inputs": [],
      "name": "contractName",
      "outputs": [
        {
          "internalType": "bytes32",
          "name": "",
          "type": "bytes32"
        }
      ],
      "stateMutability": "view",
      "type": "function"
    },
    {
      "inputs": [
        {
          "internalType": "uint256",
          "name": "id",
          "type": "uint256"
        }
      ],
      "name": "getCurrentBid",
      "outputs": [
        {
          "internalType": "uint256",
          "name": "",
          "type": "uint256"
        }
      ],
      "stateMutability": "view",
      "type": "function"
    },
    {
      "inputs": [
        {
          "internalType": "uint256",
          "name": "id",
          "type": "uint256"
        }
      ],
      "name": "getCurrentBidder",
      "outputs": [
        {
          "internalType": "address",
          "name": "",
          "type": "address"
        }
      ],
      "stateMutability": "view",
      "type": "function"
    },
    {
      "inputs": [
        {
          "internalType": "uint256",
          "name": "id",
          "type": "uint256"
        }
      ],
      "name": "getEndTime",
      "outputs": [
        {
          "internalType": "uint256",
          "name": "",
          "type": "uint256"
        }
      ],
      "stateMutability": "view",
      "type": "function"
    },
    {
      "inputs": [],
      "name": "initialize",
      "outputs": [],
      "stateMutability": "nonpayable",
      "type": "function"
    },
    {
      "inputs": [
        {
          "internalType": "address",
          "name": "token",
          "type": "address"
        },
        {
          "internalType": "address",
          "name": "traded",
          "type": "address"
        },
        {
          "internalType": "uint256",
          "name": "amount",
          "type": "uint256"
        },
        {
          "internalType": "uint64",
          "name": "start",
          "type": "uint64"
        },
        {
          "internalType": "uint32",
          "name": "length",
          "type": "uint32"
        }
      ],
      "name": "list",
      "outputs": [],
      "stateMutability": "nonpayable",
      "type": "function"
    },
    {
      "inputs": [
        {
          "internalType": "address",
          "name": "token",
          "type": "address"
        },
        {
          "internalType": "address",
          "name": "traded",
          "type": "address"
        },
        {
          "internalType": "address",
          "name": "seller",
          "type": "address"
        },
        {
          "internalType": "uint64",
          "name": "start",
          "type": "uint64"
        },
        {
          "internalType": "uint32",
          "name": "length",
          "type": "uint32"
        }
      ],
      "name": "listTransferred",
      "outputs": [],
      "stateMutability": "nonpayable",
      "type": "function"
    },
    {
      "inputs": [
        {
          "internalType": "bytes4",
          "name": "",
          "type": "bytes4"
        }
      ],
      "name": "supportsInterface",
      "outputs": [
        {
          "internalType": "bool",
          "name": "",
          "type": "bool"
        }
      ],
      "stateMutability": "view",
      "type": "function"
    },
    {
      "inputs": [],
      "name": "version",
      "outputs": [
        {
          "internalType": "uint256",
          "name": "",
          "type": "uint256"
        }
      ],
      "stateMutability": "view",
      "type": "function"
    },
    {
      "inputs": [
        {
          "internalType": "address",
          "name": "token",
          "type": "address"
        },
        {
          "internalType": "address",
          "name": "trader",
          "type": "address"
        }
      ],
      "name": "withdraw",
      "outputs": [],
      "stateMutability": "nonpayable",
      "type": "function"
    }
  ],
  "bytecode": "0x60806040523480156200001157600080fd5b5060408051808201909152600781526620bab1ba34b7b760c91b6020909101527fcf3346ede9fe18a1c9bd06d1c53f7b47e4969bd3ed9fe3dc4d39e856bd24d7af600155600054610100900460ff16620000725760005460ff16156200007c565b6200007c62000121565b620000e45760405162461bcd60e51b815260206004820152602e60248201527f496e697469616c697a61626c653a20636f6e747261637420697320616c72656160448201526d191e481a5b9a5d1a585b1a5e995960921b606482015260840160405180910390fd5b600054610100900460ff1615801562000107576000805461ffff19166101011790555b80156200011a576000805461ff00191690555b506200014e565b600062000139306200013f60201b62000c851760201c565b15905090565b6001600160a01b03163b151590565b61164f806200015e6000396000f3fe608060405234801561001057600080fd5b50600436106100ea5760003560e01c80639067b6771161008c578063bb50aa3a11610066578063bb50aa3a146101e3578063c23f001f14610227578063da4e364f14610252578063f940e3851461027557600080fd5b80639067b6771461018a578063971d852f146101bd578063a85fa3aa146101d057600080fd5b8063644910c8116100c8578063644910c81461015357806375d0c0dc146101665780637a4703d31461016f5780638129fc1c1461018257600080fd5b806301ffc9a7146100ef57806354fd4d5014610127578063598647f81461013e575b600080fd5b6101126100fd366004611324565b60036020526000908152604090205460ff1681565b60405190151581526020015b60405180910390f35b61013060025481565b60405190815260200161011e565b61015161014c36600461134e565b610288565b005b610112610161366004611370565b61053a565b61013060015481565b61015161017d3660046113d0565b610590565b6101516106fc565b610130610198366004611370565b6000908152606a6020526040902060010154600160a01b90046001600160401b031690565b6101516101cb366004611370565b61084a565b6101516101de366004611435565b610b8d565b61020f6101f1366004611370565b6000908152606a60205260409020600401546001600160a01b031690565b6040516001600160a01b03909116815260200161011e565b610130610235366004611479565b606b60209081526000928352604080842090915290825290205481565b610130610260366004611370565b6000908152606a602052604090206005015490565b610151610283366004611479565b610bb6565b6000828152606a602052604090208054600160a01b90046001600160401b03164210156102e7578054604051637f09249f60e01b8152426004820152600160a01b9091046001600160401b031660248201526044015b60405180910390fd5b6001810154600160a01b90046001600160401b031642111561033957600181015460405163bcc4b50560e01b8152426004820152600160a01b9091046001600160401b031660248201526044016102de565b6001810154610353906001600160a01b0316333085610c94565b600181015461036a906001600160a01b0316610d05565b9150806005015482116103a057600581015460405163f0defc6160e01b81526102de918491600401918252602082015260400190565b80546103b5906001600160a01b031633610dc5565b156103d557604051636f8bf18b60e11b81523360048201526024016102de565b600581015460018201546001600160a01b039081166000908152606b6020908152604080832060048701549094168352929052908120805490919061041b9084906114c2565b909155506000905061043042620151806114da565b825490915060009061045090600160e01b900463ffffffff166002611505565b83546104729163ffffffff1690600160a01b90046001600160401b03166114da565b9050806001600160401b0316826001600160401b03161115610492578091505b60018301546001600160401b03600160a01b909104811690831611156104da5760018301805467ffffffffffffffff60a01b1916600160a01b6001600160401b038516021790555b6004830180546001600160a01b0319163390811790915560058401859055604080519182526020820186905286917fdcd726e11f8b5e160f00290f0fe3a1abb547474e53a8e7a8f49a85e7b1ca3199910160405180910390a25050505050565b6000818152606a602052604081205442600160a01b9091046001600160401b03161180159061058a57506000828152606a6020526040902060010154600160a01b90046001600160401b03164211155b92915050565b600061059b86610d05565b9050806105bb57604051631f2a200560e01b815260040160405180910390fd5b6069546000908152606a6020526040902080546001820180546001600160a01b03199081166001600160a01b038a8116919091179092556002840180549091168883161790556003830184905588166001600160e01b031990911617600160a01b6001600160401b03861602176001600160e01b0316600160e01b63ffffffff851690810291909117825561065090856114da565b60018201805467ffffffffffffffff60a01b1916600160a01b6001600160401b0393841602179055606954604080516001600160a01b038a81168252602082018790529388169181019190915263ffffffff86166060820152878316928a1691907f1d82f99c775b1f89fe10a996fcf7cf1c516f8e84750d6f790a592b7f1faf0a7b9060800160405180910390a4606980549060006106ee83611531565b919050555050505050505050565b600054610100900460ff166107175760005460ff161561071b565b303b155b61077e5760405162461bcd60e51b815260206004820152602e60248201527f496e697469616c697a61626c653a20636f6e747261637420697320616c72656160448201526d191e481a5b9a5d1a585b1a5e995960921b60648201526084016102de565b600054610100900460ff161580156107a0576000805461ffff19166101011790555b6107ca6040518060400160405280600781526020016620bab1ba34b7b760c91b8152506000610e6a565b60036020527f856d0dafabe215aaa3eca1a8102938d11387cb35b09ef6600266c349527832468054600160ff1991821681179092556360d41b8760e01b6000527fb9089cdc3dbfa5140b83bc1f744f1c6d675d2fe6fe8b6d468c06acdda8d6a668805490911690911790558015610847576000805461ff00191690555b50565b6000818152606a6020818152604080842081516101208101835281546001600160a01b0380821683526001600160401b03600160a01b80840482168589015263ffffffff600160e01b9094049390931695840195909552600184018054808316606086015292830486166080850190815260028601805480851660a088015260038801805460c089015260048901805496871660e08a015260058a0180546101008b01528f8f529c909b52978c90556001600160e01b03199095169092556001600160a01b0319938416909155938890551690935593909255915116421161095c576080810151604051636f6e86c560e11b81524260048201526001600160401b0390911660248201526044016102de565b60e08101516001600160a01b0316610aca5761098081600001518260a00151610dc5565b15610a7e57805160c0820151604051630852cd8d60e31b81526001600160a01b03909216916342966c68916109bb9160040190815260200190565b600060405180830381600087803b1580156109d557600080fd5b505af19250505080156109e6575060015b5080516040516370a0823160e01b81523060048201526001600160a01b03909116906370a082319060240160206040518083038186803b158015610a2957600080fd5b505afa158015610a3d573d6000803e3d6000fd5b505050506040513d601f19601f82011682018060405250810190610a61919061154c565b90516001600160a01b031660009081526068602052604090205550565b60c081015181516001600160a01b039081166000908152606b6020908152604080832060a087015190941683529290529081208054909190610ac19084906114c2565b90915550505050565b60c081015181516001600160a01b039081166000908152606b6020908152604080832060e087015190941683529290529081208054909190610b0d9084906114c2565b909155505061010081015160608201516001600160a01b039081166000908152606b6020908152604080832060a087015190941683529290529081208054909190610b599084906114c2565b909155505060405182907f26ade0c81b25f2be4bf44676109796e71a14488864aba871966fb8a8e1823a8e90600090a25050565b610ba26001600160a01b038616333086610c94565b610baf8585338585610590565b5050505050565b6001600160a01b038281166000818152606b6020908152604080832094861683529390529182208054929055610bed908383610f64565b6040516370a0823160e01b81523060048201526001600160a01b038416906370a082319060240160206040518083038186803b158015610c2c57600080fd5b505afa158015610c40573d6000803e3d6000fd5b505050506040513d601f19601f82011682018060405250810190610c64919061154c565b6001600160a01b039093166000908152606860205260409020929092555050565b6001600160a01b03163b151590565b6040516001600160a01b0380851660248301528316604482015260648101829052610cff9085906323b872dd60e01b906084015b60408051601f198184030181529190526020810180516001600160e01b03166001600160e01b031990931692909217909152610f99565b50505050565b6040516370a0823160e01b815230600482015260009081906001600160a01b038416906370a082319060240160206040518083038186803b158015610d4957600080fd5b505afa158015610d5d573d6000803e3d6000fd5b505050506040513d601f19601f82011682018060405250810190610d81919061154c565b6001600160a01b038416600090815260686020526040902054909150610da79082611565565b6001600160a01b039093166000908152606860205260409020555090565b6000610de16001600160a01b038416636c9b2a3f60e11b61106b565b8015610e635750604051636c9b2a3f60e11b81526001600160a01b03838116600483015284169063d936547e9060240160206040518083038186803b158015610e2957600080fd5b505afa158015610e3d573d6000803e3d6000fd5b505050506040513d601f19601f82011682018060405250810190610e61919061157c565b155b9392505050565b600054610100900460ff16610ed55760405162461bcd60e51b815260206004820152602b60248201527f496e697469616c697a61626c653a20636f6e7472616374206973206e6f74206960448201526a6e697469616c697a696e6760a81b60648201526084016102de565b8151602083012060015580610eee576001600255610ef5565b6000196002555b505060036020527f28b0ef64f7e82d3b26f3fd404bd0151552f792965f39c29ae82c0a78df67af9c8054600160ff19918216811790925563084b636360e21b6000527ff2ce595d3685ae93af455b2a85c171e0605a33d91f3700771e47939a4623804580549091169091179055565b6040516001600160a01b038316602482015260448101829052610f9490849063a9059cbb60e01b90606401610cc8565b505050565b6000610fee826040518060400160405280602081526020017f5361666545524332303a206c6f772d6c6576656c2063616c6c206661696c6564815250856001600160a01b03166110879092919063ffffffff16565b805190915015610f94578080602001905181019061100c919061157c565b610f945760405162461bcd60e51b815260206004820152602a60248201527f5361666545524332303a204552433230206f7065726174696f6e20646964206e6044820152691bdd081cdd58d8d9595960b21b60648201526084016102de565b60006110768361109e565b8015610e635750610e6383836110d1565b606061109684846000856111ba565b949350505050565b60006110b1826301ffc9a760e01b6110d1565b801561058a57506110ca826001600160e01b03196110d1565b1592915050565b604080516001600160e01b0319831660248083019190915282518083039091018152604490910182526020810180516001600160e01b03166301ffc9a760e01b179052905160009190829081906001600160a01b03871690617530906111389086906115ca565b6000604051808303818686fa925050503d8060008114611174576040519150601f19603f3d011682016040523d82523d6000602084013e611179565b606091505b5091509150602081511015611194576000935050505061058a565b8180156111b05750808060200190518101906111b0919061157c565b9695505050505050565b60608247101561121b5760405162461bcd60e51b815260206004820152602660248201527f416464726573733a20696e73756666696369656e742062616c616e636520666f6044820152651c8818d85b1b60d21b60648201526084016102de565b6001600160a01b0385163b6112725760405162461bcd60e51b815260206004820152601d60248201527f416464726573733a2063616c6c20746f206e6f6e2d636f6e747261637400000060448201526064016102de565b600080866001600160a01b0316858760405161128e91906115ca565b60006040518083038185875af1925050503d80600081146112cb576040519150601f19603f3d011682016040523d82523d6000602084013e6112d0565b606091505b50915091506112e08282866112eb565b979650505050505050565b606083156112fa575081610e63565b82511561130a5782518084602001fd5b8160405162461bcd60e51b81526004016102de91906115e6565b60006020828403121561133657600080fd5b81356001600160e01b031981168114610e6357600080fd5b6000806040838503121561136157600080fd5b50508035926020909101359150565b60006020828403121561138257600080fd5b5035919050565b80356001600160a01b03811681146113a057600080fd5b919050565b80356001600160401b03811681146113a057600080fd5b803563ffffffff811681146113a057600080fd5b600080600080600060a086880312156113e857600080fd5b6113f186611389565b94506113ff60208701611389565b935061140d60408701611389565b925061141b606087016113a5565b9150611429608087016113bc565b90509295509295909350565b600080600080600060a0868803121561144d57600080fd5b61145686611389565b945061146460208701611389565b93506040860135925061141b606087016113a5565b6000806040838503121561148c57600080fd5b61149583611389565b91506114a360208401611389565b90509250929050565b634e487b7160e01b600052601160045260246000fd5b600082198211156114d5576114d56114ac565b500190565b60006001600160401b038083168185168083038211156114fc576114fc6114ac565b01949350505050565b600063ffffffff80831681851681830481118215151615611528576115286114ac565b02949350505050565b6000600019821415611545576115456114ac565b5060010190565b60006020828403121561155e57600080fd5b5051919050565b600082821015611577576115776114ac565b500390565b60006020828403121561158e57600080fd5b81518015158114610e6357600080fd5b60005b838110156115b95781810151838201526020016115a1565b83811115610cff5750506000910152565b600082516115dc81846020870161159e565b9190910192915050565b602081526000825180602084015261160581604085016020870161159e565b601f01601f1916919091016040019291505056fea264697066735822122096d5bafd1e1fd13adbca262acacbf3d689633c6a877d77cd34858fa44467150e64736f6c63430008090033",
  "linkReferences": {},
  "deployedLinkReferences": {}
}