{
  "_format": "hh-sol-artifact-1",
  "contractName": "Beacon",
  "sourceName": "contracts/beacon/Beacon.sol",
  "abi": [
    {
      "inputs": [
        {
          "internalType": "bytes32",
          "name": "_beaconName",
          "type": "bytes32"
        },
        {
          "internalType": "uint8",
          "name": "_releaseChannels",
          "type": "uint8"
        }
      ],
      "stateMutability": "nonpayable",
      "type": "constructor"
    },
    {
      "inputs": [
        {
          "internalType": "bytes32",
          "name": "oldName",
          "type": "bytes32"
        },
        {
          "internalType": "bytes32",
          "name": "newName",
          "type": "bytes32"
        }
      ],
      "name": "DifferentContract",
      "type": "error"
    },
    {
      "inputs": [
        {
          "internalType": "address",
          "name": "caller",
          "type": "address"
        },
        {
          "internalType": "address",
          "name": "owner",
          "type": "address"
        }
      ],
      "name": "NotOwner",
      "type": "error"
    },
    {
      "inputs": [
        {
          "internalType": "address",
          "name": "caller",
          "type": "address"
        },
        {
          "internalType": "address",
          "name": "instance",
          "type": "address"
        }
      ],
      "name": "NotUpgradeAuthority",
      "type": "error"
    },
    {
      "anonymous": false,
      "inputs": [
        {
          "indexed": true,
          "internalType": "address",
          "name": "previousOwner",
          "type": "address"
        },
        {
          "indexed": true,
          "internalType": "address",
          "name": "newOwner",
          "type": "address"
        }
      ],
      "name": "OwnershipTransferred",
      "type": "event"
    },
    {
      "anonymous": false,
      "inputs": [
        {
          "indexed": true,
          "internalType": "address",
          "name": "instance",
          "type": "address"
        },
        {
          "indexed": true,
          "internalType": "address",
          "name": "code",
          "type": "address"
        }
      ],
      "name": "Upgrade",
      "type": "event"
    },
    {
      "inputs": [],
      "name": "beaconName",
      "outputs": [
        {
          "internalType": "bytes32",
          "name": "",
          "type": "bytes32"
        }
      ],
      "stateMutability": "view",
      "type": "function"
    },
    {
      "inputs": [],
      "name": "contractName",
      "outputs": [
        {
          "internalType": "bytes32",
          "name": "",
          "type": "bytes32"
        }
      ],
      "stateMutability": "view",
      "type": "function"
    },
    {
      "inputs": [],
      "name": "implementation",
      "outputs": [
        {
          "internalType": "address",
          "name": "",
          "type": "address"
        }
      ],
      "stateMutability": "view",
      "type": "function"
    },
    {
      "inputs": [
        {
          "internalType": "address",
          "name": "instance",
          "type": "address"
        }
      ],
      "name": "implementation",
      "outputs": [
        {
          "internalType": "address",
          "name": "",
          "type": "address"
        }
      ],
      "stateMutability": "view",
      "type": "function"
    },
    {
      "inputs": [
        {
          "internalType": "address",
          "name": "",
          "type": "address"
        }
      ],
      "name": "implementations",
      "outputs": [
        {
          "internalType": "address",
          "name": "",
          "type": "address"
        }
      ],
      "stateMutability": "view",
      "type": "function"
    },
    {
      "inputs": [],
      "name": "owner",
      "outputs": [
        {
          "internalType": "address",
          "name": "",
          "type": "address"
        }
      ],
      "stateMutability": "view",
      "type": "function"
    },
    {
      "inputs": [],
      "name": "releaseChannels",
      "outputs": [
        {
          "internalType": "uint8",
          "name": "",
          "type": "uint8"
        }
      ],
      "stateMutability": "view",
      "type": "function"
    },
    {
      "inputs": [],
      "name": "renounceOwnership",
      "outputs": [],
      "stateMutability": "nonpayable",
      "type": "function"
    },
    {
      "inputs": [
        {
          "internalType": "bytes4",
          "name": "",
          "type": "bytes4"
        }
      ],
      "name": "supportsInterface",
      "outputs": [
        {
          "internalType": "bool",
          "name": "",
          "type": "bool"
        }
      ],
      "stateMutability": "view",
      "type": "function"
    },
    {
      "inputs": [
        {
          "internalType": "address",
          "name": "newOwner",
          "type": "address"
        }
      ],
      "name": "transferOwnership",
      "outputs": [],
      "stateMutability": "nonpayable",
      "type": "function"
    },
    {
      "inputs": [
        {
          "internalType": "address",
          "name": "instance",
          "type": "address"
        },
        {
          "internalType": "address",
          "name": "impl",
          "type": "address"
        }
      ],
      "name": "upgrade",
      "outputs": [],
      "stateMutability": "nonpayable",
      "type": "function"
    },
    {
      "inputs": [],
      "name": "version",
      "outputs": [
        {
          "internalType": "uint256",
          "name": "",
          "type": "uint256"
        }
      ],
      "stateMutability": "view",
      "type": "function"
    }
  ],
  "bytecode": "0x60c06040523480156200001157600080fd5b5060405162000ebd38038062000ebd833981016040819052620000349162000390565b6040805180820190915260068152652132b0b1b7b760d11b60208201526200005c3362000213565b8051602090910120600155600054600160a81b900460ff166200008d57600054600160a01b900460ff161562000097565b6200009762000263565b620001005760405162461bcd60e51b815260206004820152602e60248201527f496e697469616c697a61626c653a20636f6e747261637420697320616c72656160448201526d191e481a5b9a5d1a585b1a5e995960921b60648201526084015b60405180910390fd5b600054600160a81b900460ff161580156200012b576000805461ffff60a01b191661010160a01b1790555b6040805180820190915260068152652132b0b1b7b760d11b60208201526200015590600162000281565b60036020527f96eac66d189e0789ae24dfb0ea24afdd4b2c99694d27de045ecac35c0660dff68054600160ff1991821681179092557fbf0736e31dfe1909d5ffb08418325acfb44b7ce84a8345f78a77015ca075a37b80548216831790556330333e0b60e21b6000527fc698d06e64b0d9e6dbea95f3eef5994a420dde06ebf39de345db54ebf2458dd280549091169091179055608083905260ff821660a05280156200020a576000805460ff60a81b191690555b505050620003c8565b600080546001600160a01b038381166001600160a01b0319831681178455604051919092169283917f8be0079c531659141344cd1fd0a4f28419497f9722a3daafe3b4186f6b6457e09190a35050565b60006200027b306200038160201b620007bf1760201c565b15905090565b600054600160a81b900460ff16620002f05760405162461bcd60e51b815260206004820152602b60248201527f496e697469616c697a61626c653a20636f6e7472616374206973206e6f74206960448201526a6e697469616c697a696e6760a81b6064820152608401620000f7565b81516020830120600155806200030b57600160025562000312565b6000196002555b505060036020527f28b0ef64f7e82d3b26f3fd404bd0151552f792965f39c29ae82c0a78df67af9c8054600160ff19918216811790925563084b636360e21b6000527ff2ce595d3685ae93af455b2a85c171e0605a33d91f3700771e47939a4623804580549091169091179055565b6001600160a01b03163b151590565b60008060408385031215620003a457600080fd5b82519150602083015160ff81168114620003bd57600080fd5b809150509250929050565b60805160a051610ab4620004096000396000818161018b0152818161023e01526103a201526000818160f60152818161059301526106c40152610ab46000f3fe608060405234801561001057600080fd5b50600436106100b45760003560e01c806375d0c0dc1161007157806375d0c0dc1461016c5780638da5cb5b146101755780639781b5551461018657806399a88ec4146101bf578063f2fde38b146101d2578063f79eb32c146101e557600080fd5b806301ffc9a7146100b957806352f37789146100f157806354fd4d50146101265780635c60da1b1461012f5780636b8807181461014f578063715018a614610162575b600080fd5b6100dc6100c7366004610956565b60036020526000908152604090205460ff1681565b60405190151581526020015b60405180910390f35b6101187f000000000000000000000000000000000000000000000000000000000000000081565b6040519081526020016100e8565b61011860025481565b61013761020e565b6040516001600160a01b0390911681526020016100e8565b61013761015d366004610995565b61021e565b61016a610335565b005b61011860015481565b6000546001600160a01b0316610137565b6101ad7f000000000000000000000000000000000000000000000000000000000000000081565b60405160ff90911681526020016100e8565b61016a6101cd3660046109b2565b6103a0565b61016a6101e0366004610995565b6106f4565b6101376101f3366004610995565b6068602052600090815260409020546001600160a01b031681565b60006102193361021e565b905090565b6001600160a01b038082166000908152606860205260408120549091165b7f000000000000000000000000000000000000000000000000000000000000000060ff16816001600160a01b03161015610290576001600160a01b039081166000908152606860205260409020541661023c565b6102aa6001600160a01b0382166330333e0b60e21b6107ce565b1561032f57604051630d7100e360e31b81526001600160a01b038481166004830152821690636b8807189060240160206040518083038186803b1580156102f057600080fd5b505afa158015610304573d6000803e3d6000fd5b505050506040513d601f19601f8201168201806040525081019061032891906109eb565b9392505050565b92915050565b6000546001600160a01b031633146103945760405162461bcd60e51b815260206004820181905260248201527f4f776e61626c653a2063616c6c6572206973206e6f7420746865206f776e657260448201526064015b60405180910390fd5b61039e60006107ea565b565b7f000000000000000000000000000000000000000000000000000000000000000060ff16826001600160a01b03161015610458576000546001600160a01b0316331461042557336103f96000546001600160a01b031690565b604051631194af8760e11b81526001600160a01b0392831660048201529116602482015260440161038b565b6001600160a01b03828116600090815260686020526040902080546001600160a01b031916918316919091179055610551565b336001600160a01b038316148015906104f35750816001600160a01b0316638da5cb5b6040518163ffffffff1660e01b815260040160206040518083038186803b1580156104a557600080fd5b505afa1580156104b9573d6000803e3d6000fd5b505050506040513d601f19601f820116820180604052508101906104dd91906109eb565b6001600160a01b0316336001600160a01b031614155b15610522576040516391d7033960e01b81523360048201526001600160a01b038316602482015260440161038b565b6001600160a01b03828116600090815260686020526040902080546001600160a01b0319169183169190911790555b806001600160a01b0316826001600160a01b03167fd23ce5645530506727523fe6d7939e72bb49102454460bc72f0f5baec60ac71860405160405180910390a37f00000000000000000000000000000000000000000000000000000000000000006105bb8361021e565b6001600160a01b03166375d0c0dc6040518163ffffffff1660e01b8152600401602060405180830381600087803b1580156105f557600080fd5b505af1158015610609573d6000803e3d6000fd5b505050506040513d601f19601f8201168201806040525081019061062d9190610a08565b146106f05761063b8261021e565b6001600160a01b03166375d0c0dc6040518163ffffffff1660e01b8152600401602060405180830381600087803b15801561067557600080fd5b505af1158015610689573d6000803e3d6000fd5b505050506040513d601f19601f820116820180604052508101906106ad9190610a08565b6040516309dae51160e31b815260048101919091527f0000000000000000000000000000000000000000000000000000000000000000602482015260440161038b565b5050565b6000546001600160a01b0316331461074e5760405162461bcd60e51b815260206004820181905260248201527f4f776e61626c653a2063616c6c6572206973206e6f7420746865206f776e6572604482015260640161038b565b6001600160a01b0381166107b35760405162461bcd60e51b815260206004820152602660248201527f4f776e61626c653a206e6577206f776e657220697320746865207a65726f206160448201526564647265737360d01b606482015260840161038b565b6107bc816107ea565b50565b6001600160a01b03163b151590565b60006107d98361083a565b80156103285750610328838361086d565b600080546001600160a01b038381166001600160a01b0319831681178455604051919092169283917f8be0079c531659141344cd1fd0a4f28419497f9722a3daafe3b4186f6b6457e09190a35050565b600061084d826301ffc9a760e01b61086d565b801561032f5750610866826001600160e01b031961086d565b1592915050565b604080516001600160e01b0319831660248083019190915282518083039091018152604490910182526020810180516001600160e01b03166301ffc9a760e01b179052905160009190829081906001600160a01b03871690617530906108d4908690610a21565b6000604051808303818686fa925050503d8060008114610910576040519150601f19603f3d011682016040523d82523d6000602084013e610915565b606091505b5091509150602081511015610930576000935050505061032f565b81801561094c57508080602001905181019061094c9190610a5c565b9695505050505050565b60006020828403121561096857600080fd5b81356001600160e01b03198116811461032857600080fd5b6001600160a01b03811681146107bc57600080fd5b6000602082840312156109a757600080fd5b813561032881610980565b600080604083850312156109c557600080fd5b82356109d081610980565b915060208301356109e081610980565b809150509250929050565b6000602082840312156109fd57600080fd5b815161032881610980565b600060208284031215610a1a57600080fd5b5051919050565b6000825160005b81811015610a425760208186018101518583015201610a28565b81811115610a51576000828501525b509190910192915050565b600060208284031215610a6e57600080fd5b8151801515811461032857600080fdfea2646970667358221220f2cf08b6e781f46b96e3f15d02fcc99d9a9d4343863674b3569541f951dacd3964736f6c63430008090033",
  "linkReferences": {},
  "deployedLinkReferences": {}
}