{
  "_format": "hh-sol-artifact-1",
  "contractName": "Crowdfund",
  "sourceName": "contracts/thread/Crowdfund.sol",
  "abi": [
    {
      "inputs": [],
      "stateMutability": "nonpayable",
      "type": "constructor"
    },
    {
      "inputs": [
        {
          "internalType": "uint256",
          "name": "id",
          "type": "uint256"
        }
      ],
      "name": "AlreadyClaimed",
      "type": "error"
    },
    {
      "inputs": [],
      "name": "CrowdfundNotReached",
      "type": "error"
    },
    {
      "inputs": [],
      "name": "CrowdfundReached",
      "type": "error"
    },
    {
      "inputs": [],
      "name": "CrowdfundTransfer",
      "type": "error"
    },
    {
      "inputs": [],
      "name": "Delegation",
      "type": "error"
    },
    {
      "inputs": [
        {
          "internalType": "address",
          "name": "token",
          "type": "address"
        }
      ],
      "name": "FeeOnTransfer",
      "type": "error"
    },
    {
      "inputs": [
        {
          "internalType": "enum ICrowdfund.State",
          "name": "current",
          "type": "uint8"
        },
        {
          "internalType": "enum ICrowdfund.State",
          "name": "expected",
          "type": "uint8"
        }
      ],
      "name": "InvalidState",
      "type": "error"
    },
    {
      "inputs": [
        {
          "internalType": "address",
          "name": "caller",
          "type": "address"
        },
        {
          "internalType": "address",
          "name": "agent",
          "type": "address"
        }
      ],
      "name": "NotAgent",
      "type": "error"
    },
    {
      "inputs": [
        {
          "internalType": "address",
          "name": "person",
          "type": "address"
        }
      ],
      "name": "NotWhitelisted",
      "type": "error"
    },
    {
      "inputs": [],
      "name": "ZeroAmount",
      "type": "error"
    },
    {
      "inputs": [],
      "name": "ZeroPrice",
      "type": "error"
    },
    {
      "anonymous": false,
      "inputs": [
        {
          "indexed": true,
          "internalType": "address",
          "name": "owner",
          "type": "address"
        },
        {
          "indexed": true,
          "internalType": "address",
          "name": "spender",
          "type": "address"
        },
        {
          "indexed": false,
          "internalType": "uint256",
          "name": "value",
          "type": "uint256"
        }
      ],
      "name": "Approval",
      "type": "event"
    },
    {
      "anonymous": false,
      "inputs": [
        {
          "indexed": true,
          "internalType": "uint256",
          "name": "id",
          "type": "uint256"
        },
        {
          "indexed": true,
          "internalType": "address",
          "name": "person",
          "type": "address"
        },
        {
          "indexed": false,
          "internalType": "uint256",
          "name": "amount",
          "type": "uint256"
        }
      ],
      "name": "Claimed",
      "type": "event"
    },
    {
      "anonymous": false,
      "inputs": [
        {
          "indexed": true,
          "internalType": "address",
          "name": "agent",
          "type": "address"
        },
        {
          "indexed": true,
          "internalType": "address",
          "name": "thread",
          "type": "address"
        },
        {
          "indexed": true,
          "internalType": "address",
          "name": "token",
          "type": "address"
        },
        {
          "indexed": false,
          "internalType": "uint256",
          "name": "target",
          "type": "uint256"
        }
      ],
      "name": "CrowdfundStarted",
      "type": "event"
    },
    {
      "anonymous": false,
      "inputs": [
        {
          "indexed": true,
          "internalType": "address",
          "name": "delegator",
          "type": "address"
        },
        {
          "indexed": true,
          "internalType": "address",
          "name": "fromDelegate",
          "type": "address"
        },
        {
          "indexed": true,
          "internalType": "address",
          "name": "toDelegate",
          "type": "address"
        }
      ],
      "name": "DelegateChanged",
      "type": "event"
    },
    {
      "anonymous": false,
      "inputs": [
        {
          "indexed": true,
          "internalType": "address",
          "name": "delegate",
          "type": "address"
        },
        {
          "indexed": false,
          "internalType": "uint256",
          "name": "previousBalance",
          "type": "uint256"
        },
        {
          "indexed": false,
          "internalType": "uint256",
          "name": "newBalance",
          "type": "uint256"
        }
      ],
      "name": "DelegateVotesChanged",
      "type": "event"
    },
    {
      "anonymous": false,
      "inputs": [
        {
          "indexed": true,
          "internalType": "address",
          "name": "depositor",
          "type": "address"
        },
        {
          "indexed": false,
          "internalType": "uint256",
          "name": "amount",
          "type": "uint256"
        }
      ],
      "name": "Deposit",
      "type": "event"
    },
    {
      "anonymous": false,
      "inputs": [
        {
          "indexed": true,
          "internalType": "uint256",
          "name": "id",
          "type": "uint256"
        },
        {
          "indexed": true,
          "internalType": "address",
          "name": "token",
          "type": "address"
        },
        {
          "indexed": false,
          "internalType": "uint256",
          "name": "amount",
          "type": "uint256"
        }
      ],
      "name": "Distributed",
      "type": "event"
    },
    {
      "anonymous": false,
      "inputs": [
        {
          "indexed": true,
          "internalType": "address",
          "name": "depositor",
          "type": "address"
        },
        {
          "indexed": false,
          "internalType": "uint256",
          "name": "refundAmount",
          "type": "uint256"
        }
      ],
      "name": "Refund",
      "type": "event"
    },
    {
      "anonymous": false,
      "inputs": [
        {
          "indexed": true,
          "internalType": "enum ICrowdfund.State",
          "name": "state",
          "type": "uint8"
        }
      ],
      "name": "StateChange",
      "type": "event"
    },
    {
      "anonymous": false,
      "inputs": [
        {
          "indexed": true,
          "internalType": "address",
          "name": "from",
          "type": "address"
        },
        {
          "indexed": true,
          "internalType": "address",
          "name": "to",
          "type": "address"
        },
        {
          "indexed": false,
          "internalType": "uint256",
          "name": "value",
          "type": "uint256"
        }
      ],
      "name": "Transfer",
      "type": "event"
    },
    {
      "anonymous": false,
      "inputs": [
        {
          "indexed": true,
          "internalType": "address",
          "name": "depositor",
          "type": "address"
        },
        {
          "indexed": false,
          "internalType": "uint256",
          "name": "amount",
          "type": "uint256"
        }
      ],
      "name": "Withdraw",
      "type": "event"
    },
    {
      "inputs": [],
      "name": "DOMAIN_SEPARATOR",
      "outputs": [
        {
          "internalType": "bytes32",
          "name": "",
          "type": "bytes32"
        }
      ],
      "stateMutability": "view",
      "type": "function"
    },
    {
      "inputs": [],
      "name": "agent",
      "outputs": [
        {
          "internalType": "address",
          "name": "",
          "type": "address"
        }
      ],
      "stateMutability": "view",
      "type": "function"
    },
    {
      "inputs": [
        {
          "internalType": "address",
          "name": "owner",
          "type": "address"
        },
        {
          "internalType": "address",
          "name": "spender",
          "type": "address"
        }
      ],
      "name": "allowance",
      "outputs": [
        {
          "internalType": "uint256",
          "name": "",
          "type": "uint256"
        }
      ],
      "stateMutability": "view",
      "type": "function"
    },
    {
      "inputs": [
        {
          "internalType": "address",
          "name": "spender",
          "type": "address"
        },
        {
          "internalType": "uint256",
          "name": "amount",
          "type": "uint256"
        }
      ],
      "name": "approve",
      "outputs": [
        {
          "internalType": "bool",
          "name": "",
          "type": "bool"
        }
      ],
      "stateMutability": "nonpayable",
      "type": "function"
    },
    {
      "inputs": [
        {
          "internalType": "address",
          "name": "account",
          "type": "address"
        }
      ],
      "name": "balanceOf",
      "outputs": [
        {
          "internalType": "uint256",
          "name": "",
          "type": "uint256"
        }
      ],
      "stateMutability": "view",
      "type": "function"
    },
    {
      "inputs": [
        {
          "internalType": "address",
          "name": "depositor",
          "type": "address"
        }
      ],
      "name": "burn",
      "outputs": [],
      "stateMutability": "nonpayable",
      "type": "function"
    },
    {
      "inputs": [],
      "name": "cancel",
      "outputs": [],
      "stateMutability": "nonpayable",
      "type": "function"
    },
    {
      "inputs": [
        {
          "internalType": "address",
          "name": "account",
          "type": "address"
        },
        {
          "internalType": "uint32",
          "name": "pos",
          "type": "uint32"
        }
      ],
      "name": "checkpoints",
      "outputs": [
        {
          "components": [
            {
              "internalType": "uint32",
              "name": "fromBlock",
              "type": "uint32"
            },
            {
              "internalType": "uint224",
              "name": "votes",
              "type": "uint224"
            }
          ],
          "internalType": "struct ERC20VotesUpgradeable.Checkpoint",
          "name": "",
          "type": "tuple"
        }
      ],
      "stateMutability": "view",
      "type": "function"
    },
    {
      "inputs": [
        {
          "internalType": "address",
          "name": "person",
          "type": "address"
        },
        {
          "internalType": "uint256",
          "name": "id",
          "type": "uint256"
        }
      ],
      "name": "claim",
      "outputs": [],
      "stateMutability": "nonpayable",
      "type": "function"
    },
    {
      "inputs": [
        {
          "internalType": "address",
          "name": "",
          "type": "address"
        },
        {
          "internalType": "uint256",
          "name": "",
          "type": "uint256"
        }
      ],
      "name": "claimedDistribution",
      "outputs": [
        {
          "internalType": "bool",
          "name": "",
          "type": "bool"
        }
      ],
      "stateMutability": "view",
      "type": "function"
    },
    {
      "inputs": [],
      "name": "contractName",
      "outputs": [
        {
          "internalType": "bytes32",
          "name": "",
          "type": "bytes32"
        }
      ],
      "stateMutability": "view",
      "type": "function"
    },
    {
      "inputs": [],
      "name": "decimals",
      "outputs": [
        {
          "internalType": "uint8",
          "name": "",
          "type": "uint8"
        }
      ],
      "stateMutability": "view",
      "type": "function"
    },
    {
      "inputs": [
        {
          "internalType": "address",
          "name": "spender",
          "type": "address"
        },
        {
          "internalType": "uint256",
          "name": "subtractedValue",
          "type": "uint256"
        }
      ],
      "name": "decreaseAllowance",
      "outputs": [
        {
          "internalType": "bool",
          "name": "",
          "type": "bool"
        }
      ],
      "stateMutability": "nonpayable",
      "type": "function"
    },
    {
      "inputs": [
        {
          "internalType": "address",
          "name": "",
          "type": "address"
        }
      ],
      "name": "delegate",
      "outputs": [],
      "stateMutability": "pure",
      "type": "function"
    },
    {
      "inputs": [
        {
          "internalType": "address",
          "name": "",
          "type": "address"
        },
        {
          "internalType": "uint256",
          "name": "",
          "type": "uint256"
        },
        {
          "internalType": "uint256",
          "name": "",
          "type": "uint256"
        },
        {
          "internalType": "uint8",
          "name": "",
          "type": "uint8"
        },
        {
          "internalType": "bytes32",
          "name": "",
          "type": "bytes32"
        },
        {
          "internalType": "bytes32",
          "name": "",
          "type": "bytes32"
        }
      ],
      "name": "delegateBySig",
      "outputs": [],
      "stateMutability": "pure",
      "type": "function"
    },
    {
      "inputs": [
        {
          "internalType": "address",
          "name": "account",
          "type": "address"
        }
      ],
      "name": "delegates",
      "outputs": [
        {
          "internalType": "address",
          "name": "",
          "type": "address"
        }
      ],
      "stateMutability": "view",
      "type": "function"
    },
    {
      "inputs": [
        {
          "internalType": "uint256",
          "name": "amount",
          "type": "uint256"
        }
      ],
      "name": "deposit",
      "outputs": [],
      "stateMutability": "nonpayable",
      "type": "function"
    },
    {
      "inputs": [
        {
          "internalType": "address",
          "name": "token",
          "type": "address"
        },
        {
          "internalType": "uint256",
          "name": "amount",
          "type": "uint256"
        }
      ],
      "name": "distribute",
      "outputs": [],
      "stateMutability": "nonpayable",
      "type": "function"
    },
    {
      "inputs": [],
      "name": "execute",
      "outputs": [],
      "stateMutability": "nonpayable",
      "type": "function"
    },
    {
      "inputs": [],
      "name": "finish",
      "outputs": [],
      "stateMutability": "nonpayable",
      "type": "function"
    },
    {
      "inputs": [
        {
          "internalType": "uint256",
          "name": "blockNumber",
          "type": "uint256"
        }
      ],
      "name": "getPastTotalSupply",
      "outputs": [
        {
          "internalType": "uint256",
          "name": "",
          "type": "uint256"
        }
      ],
      "stateMutability": "view",
      "type": "function"
    },
    {
      "inputs": [
        {
          "internalType": "address",
          "name": "account",
          "type": "address"
        },
        {
          "internalType": "uint256",
          "name": "blockNumber",
          "type": "uint256"
        }
      ],
      "name": "getPastVotes",
      "outputs": [
        {
          "internalType": "uint256",
          "name": "",
          "type": "uint256"
        }
      ],
      "stateMutability": "view",
      "type": "function"
    },
    {
      "inputs": [
        {
          "internalType": "address",
          "name": "account",
          "type": "address"
        }
      ],
      "name": "getVotes",
      "outputs": [
        {
          "internalType": "uint256",
          "name": "",
          "type": "uint256"
        }
      ],
      "stateMutability": "view",
      "type": "function"
    },
    {
      "inputs": [
        {
          "internalType": "address",
          "name": "spender",
          "type": "address"
        },
        {
          "internalType": "uint256",
          "name": "addedValue",
          "type": "uint256"
        }
      ],
      "name": "increaseAllowance",
      "outputs": [
        {
          "internalType": "bool",
          "name": "",
          "type": "bool"
        }
      ],
      "stateMutability": "nonpayable",
      "type": "function"
    },
    {
      "inputs": [
        {
          "internalType": "string",
          "name": "name",
          "type": "string"
        },
        {
          "internalType": "string",
          "name": "symbol",
          "type": "string"
        },
        {
          "internalType": "address",
          "name": "_whitelist",
          "type": "address"
        },
        {
          "internalType": "address",
          "name": "_agent",
          "type": "address"
        },
        {
          "internalType": "address",
          "name": "_thread",
          "type": "address"
        },
        {
          "internalType": "address",
          "name": "_token",
          "type": "address"
        },
        {
          "internalType": "uint256",
          "name": "_target",
          "type": "uint256"
        }
      ],
      "name": "initialize",
      "outputs": [],
      "stateMutability": "nonpayable",
      "type": "function"
    },
    {
      "inputs": [],
      "name": "name",
      "outputs": [
        {
          "internalType": "string",
          "name": "",
          "type": "string"
        }
      ],
      "stateMutability": "view",
      "type": "function"
    },
    {
      "inputs": [
        {
          "internalType": "address",
          "name": "owner",
          "type": "address"
        }
      ],
      "name": "nonces",
      "outputs": [
        {
          "internalType": "uint256",
          "name": "",
          "type": "uint256"
        }
      ],
      "stateMutability": "view",
      "type": "function"
    },
    {
      "inputs": [
        {
          "internalType": "uint256",
          "name": "amount",
          "type": "uint256"
        }
      ],
      "name": "normalizeRaiseToThread",
      "outputs": [
        {
          "internalType": "uint256",
          "name": "",
          "type": "uint256"
        }
      ],
      "stateMutability": "view",
      "type": "function"
    },
    {
      "inputs": [
        {
          "internalType": "address",
          "name": "account",
          "type": "address"
        }
      ],
      "name": "numCheckpoints",
      "outputs": [
        {
          "internalType": "uint32",
          "name": "",
          "type": "uint32"
        }
      ],
      "stateMutability": "view",
      "type": "function"
    },
    {
      "inputs": [],
      "name": "outstanding",
      "outputs": [
        {
          "internalType": "uint256",
          "name": "",
          "type": "uint256"
        }
      ],
      "stateMutability": "view",
      "type": "function"
    },
    {
      "inputs": [
        {
          "internalType": "address",
          "name": "owner",
          "type": "address"
        },
        {
          "internalType": "address",
          "name": "spender",
          "type": "address"
        },
        {
          "internalType": "uint256",
          "name": "value",
          "type": "uint256"
        },
        {
          "internalType": "uint256",
          "name": "deadline",
          "type": "uint256"
        },
        {
          "internalType": "uint8",
          "name": "v",
          "type": "uint8"
        },
        {
          "internalType": "bytes32",
          "name": "r",
          "type": "bytes32"
        },
        {
          "internalType": "bytes32",
          "name": "s",
          "type": "bytes32"
        }
      ],
      "name": "permit",
      "outputs": [],
      "stateMutability": "nonpayable",
      "type": "function"
    },
    {
      "inputs": [
        {
          "internalType": "uint256",
          "name": "amount",
          "type": "uint256"
        }
      ],
      "name": "refund",
      "outputs": [],
      "stateMutability": "nonpayable",
      "type": "function"
    },
    {
      "inputs": [],
      "name": "state",
      "outputs": [
        {
          "internalType": "enum ICrowdfund.State",
          "name": "",
          "type": "uint8"
        }
      ],
      "stateMutability": "view",
      "type": "function"
    },
    {
      "inputs": [
        {
          "internalType": "bytes4",
          "name": "",
          "type": "bytes4"
        }
      ],
      "name": "supportsInterface",
      "outputs": [
        {
          "internalType": "bool",
          "name": "",
          "type": "bool"
        }
      ],
      "stateMutability": "view",
      "type": "function"
    },
    {
      "inputs": [],
      "name": "symbol",
      "outputs": [
        {
          "internalType": "string",
          "name": "",
          "type": "string"
        }
      ],
      "stateMutability": "view",
      "type": "function"
    },
    {
      "inputs": [],
      "name": "target",
      "outputs": [
        {
          "internalType": "uint256",
          "name": "",
          "type": "uint256"
        }
      ],
      "stateMutability": "view",
      "type": "function"
    },
    {
      "inputs": [],
      "name": "thread",
      "outputs": [
        {
          "internalType": "address",
          "name": "",
          "type": "address"
        }
      ],
      "stateMutability": "view",
      "type": "function"
    },
    {
      "inputs": [],
      "name": "token",
      "outputs": [
        {
          "internalType": "address",
          "name": "",
          "type": "address"
        }
      ],
      "stateMutability": "view",
      "type": "function"
    },
    {
      "inputs": [],
      "name": "totalSupply",
      "outputs": [
        {
          "internalType": "uint256",
          "name": "",
          "type": "uint256"
        }
      ],
      "stateMutability": "view",
      "type": "function"
    },
    {
      "inputs": [
        {
          "internalType": "address",
          "name": "to",
          "type": "address"
        },
        {
          "internalType": "uint256",
          "name": "amount",
          "type": "uint256"
        }
      ],
      "name": "transfer",
      "outputs": [
        {
          "internalType": "bool",
          "name": "",
          "type": "bool"
        }
      ],
      "stateMutability": "nonpayable",
      "type": "function"
    },
    {
      "inputs": [
        {
          "internalType": "address",
          "name": "from",
          "type": "address"
        },
        {
          "internalType": "address",
          "name": "to",
          "type": "address"
        },
        {
          "internalType": "uint256",
          "name": "amount",
          "type": "uint256"
        }
      ],
      "name": "transferFrom",
      "outputs": [
        {
          "internalType": "bool",
          "name": "",
          "type": "bool"
        }
      ],
      "stateMutability": "nonpayable",
      "type": "function"
    },
    {
      "inputs": [],
      "name": "version",
      "outputs": [
        {
          "internalType": "uint256",
          "name": "",
          "type": "uint256"
        }
      ],
      "stateMutability": "view",
      "type": "function"
    },
    {
      "inputs": [],
      "name": "whitelist",
      "outputs": [
        {
          "internalType": "address",
          "name": "",
          "type": "address"
        }
      ],
      "stateMutability": "view",
      "type": "function"
    },
    {
      "inputs": [
        {
          "internalType": "uint256",
          "name": "amount",
          "type": "uint256"
        }
      ],
      "name": "withdraw",
      "outputs": [],
      "stateMutability": "nonpayable",
      "type": "function"
    }
  ],
  "bytecode": "0x60806040523480156200001157600080fd5b5060408051808201909152600981526810dc9bddd9199d5b9960ba1b6020909101527f81c1f89d4fe48b489c21defbc40d04d7e367f5ffcf3a269d63bc316a872bf72060fe55600054610100900460ff16620000745760005460ff16156200007e565b6200007e62000123565b620000e65760405162461bcd60e51b815260206004820152602e60248201527f496e697469616c697a61626c653a20636f6e747261637420697320616c72656160448201526d191e481a5b9a5d1a585b1a5e995960921b606482015260840160405180910390fd5b600054610100900460ff1615801562000109576000805461ffff19166101011790555b80156200011c576000805461ff00191690555b5062000150565b60006200013b306200014160201b620019a21760201c565b15905090565b6001600160a01b03163b151590565b61387d80620001606000396000f3fe608060405234801561001057600080fd5b50600436106102745760003560e01c80638e539e8c11610151578063d4b83992116100c3578063ea8a1af011610087578063ea8a1af0146105d5578063ef38d3c0146105dd578063f1127ed8146105f1578063f5ff5c761461062e578063fb93210814610642578063fc0c546a1461065557600080fd5b8063d4b839921461056f578063d505accf14610579578063d56b28891461058c578063dd62ed3e14610594578063e50d33e3146105cd57600080fd5b8063a457c2d711610115578063a457c2d7146104f3578063a9059cbb14610506578063aad3ec9614610519578063b6b55f251461052c578063c19d93fb1461053f578063c3cda5201461056157600080fd5b80638e539e8c1461049957806393e59dc1146104ac57806395d89b41146104c557806397fc1a8a146104cd5780639ab24eb0146104e057600080fd5b80633a46b1a8116101ea5780636c02d89c116101ae5780636c02d89c146104065780636fcfff451461041957806370a082311461044157806375d0c0dc1461046a5780637ecebe001461047357806389afcb441461048657600080fd5b80633a46b1a81461038b57806354fd4d501461039e578063587cde1e146103a75780635c19a95c146103eb57806361461954146103fe57600080fd5b806323b872dd1161023c57806323b872dd1461031b578063278ecde11461032e5780632e1a7d4d14610343578063313ce567146103565780633644e51514610370578063395093511461037857600080fd5b806301ffc9a71461027957806306fdde03146102b257806308e4111d146102c7578063095ea7b3146102f657806318160ddd14610309575b600080fd5b61029d6102873660046130a1565b6101006020526000908152604090205460ff1681565b60405190151581526020015b60405180910390f35b6102ba610669565b6040516102a991906130f7565b61029d6102d536600461313f565b61016760209081526000928352604080842090915290825290205460ff1681565b61029d61030436600461313f565b6106fb565b6035545b6040519081526020016102a9565b61029d61032936600461316b565b610715565b61034161033c3660046131ac565b61073b565b005b6103416103513660046131ac565b610843565b61035e610934565b60405160ff90911681526020016102a9565b61030d6109b9565b61029d61038636600461313f565b6109c8565b61030d61039936600461313f565b610a07565b61030d60ff5481565b6103d36103b53660046131c5565b6001600160a01b03908116600090815260cc60205260409020541690565b6040516001600160a01b0390911681526020016102a9565b6103416103f93660046131c5565b610a7a565b610341610a93565b61030d6104143660046131ac565b610b79565b61042c6104273660046131c5565b610ba3565b60405163ffffffff90911681526020016102a9565b61030d61044f3660046131c5565b6001600160a01b031660009081526033602052604090205490565b61030d60fe5481565b61030d6104813660046131c5565b610bc5565b6103416104943660046131c5565b610be3565b61030d6104a73660046131ac565b610d1d565b6101cc546103d39061010090046001600160a01b031681565b6102ba610d79565b6103416104db366004613285565b610d88565b61030d6104ee3660046131c5565b611018565b61029d61050136600461313f565b61109f565b61029d61051436600461313f565b61113c565b61034161052736600461313f565b61114a565b61034161053a3660046131ac565b6112a1565b6101cd5461055490600160a01b900460ff1681565b6040516102a99190613377565b6103416103f9366004613394565b61030d6101d05481565b6103416105873660046133f0565b611592565b6103416116d8565b61030d6105a2366004613461565b6001600160a01b03918216600090815260346020908152604080832093909416825291909152205490565b61030d6117b5565b6103416117c0565b6101ce546103d3906001600160a01b031681565b6106046105ff36600461349a565b611913565b60408051825163ffffffff1681526020928301516001600160e01b031692810192909252016102a9565b6101cd546103d3906001600160a01b031681565b61034161065036600461313f565b611997565b6101cf546103d3906001600160a01b031681565b606060368054610678906134d1565b80601f01602080910402602001604051908101604052809291908181526020018280546106a4906134d1565b80156106f15780601f106106c6576101008083540402835291602001916106f1565b820191906000526020600020905b8154815290600101906020018083116106d457829003601f168201915b5050505050905090565b6000336107098185856119b1565b60019150505b92915050565b600033610723858285611ad6565b61072e858585611b68565b60019150505b9392505050565b6101cd546001600160a01b03163314610782576101cd54604051637bec6d7f60e01b81523360048201526001600160a01b0390911660248201526044015b60405180910390fd5b60016101cd54600160a01b900460ff1660038111156107a3576107a361333f565b146107d3576101cd54604051633bf2e2f960e11b815261077991600160a01b900460ff1690600190600401613506565b6101cd805460ff60a01b1916600160a11b1790819055600160a01b900460ff1660038111156108045761080461333f565b60405160008051602061382883398151915290600090a28015610840576101cd546101cf54610840916001600160a01b03908116911683611d47565b50565b60006101cd54600160a01b900460ff1660038111156108645761086461333f565b14610894576101cd54604051633bf2e2f960e11b815261077991600160a01b900460ff1690600090600401613506565b6101d0546108a06117b5565b14156108bf576040516358ef995760e11b815260040160405180910390fd5b806108dd57604051631f2a200560e01b815260040160405180910390fd5b6108e73382611e50565b60405181815233907f884edad9ce6fa2440d8a54cc123490eb96d2768479d49ff9c7366125a94243649060200160405180910390a26101cf54610840906001600160a01b03163383611e77565b6101cf546040805163313ce56760e01b815290516000926001600160a01b03169163313ce567916004808301926020929190829003018186803b15801561097a57600080fd5b505afa9250505080156109aa575060408051601f3d908101601f191682019092526109a791810190613521565b60015b6109b45750601290565b919050565b60006109c3611edf565b905090565b3360008181526034602090815260408083206001600160a01b03871684529091528120549091906107099082908690610a02908790613554565b6119b1565b6000438210610a585760405162461bcd60e51b815260206004820152601f60248201527f4552433230566f7465733a20626c6f636b206e6f7420796574206d696e6564006044820152606401610779565b6001600160a01b038316600090815260cd602052604090206107349083611f5a565b604051636c7a9e7560e01b815260040160405180910390fd5b6101d054610a9f6117b5565b14610abd576040516306d766b360e21b815260040160405180910390fd5b60006101cd54600160a01b900460ff166003811115610ade57610ade61333f565b14610b0e576101cd54604051633bf2e2f960e11b815261077991600160a01b900460ff1690600090600401613506565b6101cd805460ff60a01b1916600160a01b90811791829055900460ff166003811115610b3c57610b3c61333f565b60405160008051602061382883398151915290600090a26101cd546101d0546101cf54610b77926001600160a01b0391821692911690611e77565b565b6000610b83610934565b610b8e90601261356c565b610b9990600a613673565b61070f9083613682565b6001600160a01b038116600090815260cd602052604081205461070f90612017565b6001600160a01b03811660009081526099602052604081205461070f565b60036101cd54600160a01b900460ff166003811115610c0457610c0461333f565b14610c34576101cd54604051633bf2e2f960e11b815261077991600160a01b900460ff1690600390600401613506565b6001600160a01b03811660009081526033602052604090205480610c6b57604051631f2a200560e01b815260040160405180910390fd5b610c758282611e50565b610d1982610c8283610b79565b6101ce60009054906101000a90046001600160a01b03166001600160a01b031663785e9e866040518163ffffffff1660e01b815260040160206040518083038186803b158015610cd157600080fd5b505afa158015610ce5573d6000803e3d6000fd5b505050506040513d601f19601f82011682018060405250810190610d0991906136a1565b6001600160a01b03169190611e77565b5050565b6000438210610d6e5760405162461bcd60e51b815260206004820152601f60248201527f4552433230566f7465733a20626c6f636b206e6f7420796574206d696e6564006044820152606401610779565b61070f60ce83611f5a565b606060378054610678906134d1565b600054610100900460ff16610da35760005460ff1615610da7565b303b155b610e0a5760405162461bcd60e51b815260206004820152602e60248201527f496e697469616c697a61626c653a20636f6e747261637420697320616c72656160448201526d191e481a5b9a5d1a585b1a5e995960921b6064820152608401610779565b600054610100900460ff16158015610e2c576000805461ffff19166101011790555b610e7488604051602001610e4091906136be565b60405160208183030381529060405288604051602001610e6091906136f0565b604051602081830303815290604052612080565b610ea06040518060400160405280600981526020016810dc9bddd9199d5b9960ba1b8152506000612163565b63812d08eb60e01b60005261010060208190527f7fb1f43f73412e726dd1af4b62ca3eec805c9447839bca01f3c08175734184e98054600160ff199091161790556101cc8054610100600160a81b0319166001600160a01b038981169093021790556101cd80546001600160a01b0319908116888416179091556101ce805482168784161790556101cf805490911691851691909117905581610f5657604051634dfba02360e01b815260040160405180910390fd5b6101d08290556101cd805460ff60a01b1981169091556101cf546101ce546040518581526001600160a01b039283169391831692909116907fa6dabc76cc618cb3969896af1064de79843e56ddd34d87d41a58201a633377769060200160405180910390a46101cd54600160a01b900460ff166003811115610fda57610fda61333f565b60405160008051602061382883398151915290600090a2610ffb6001610b79565b50801561100e576000805461ff00191690555b5050505050505050565b6001600160a01b038116600090815260cd6020526040812054801561108c576001600160a01b038316600090815260cd6020526040902061105a60018361371b565b8154811061106a5761106a613732565b60009182526020909120015464010000000090046001600160e01b031661108f565b60005b6001600160e01b03169392505050565b3360008181526034602090815260408083206001600160a01b0387168452909152812054909190838110156111245760405162461bcd60e51b815260206004820152602560248201527f45524332303a2064656372656173656420616c6c6f77616e63652062656c6f77604482015264207a65726f60d81b6064820152608401610779565b61113182868684036119b1565b506001949350505050565b600033610709818585611b68565b6001600160a01b03821660009081526101676020908152604080832084845290915290205460ff16156111935760405163598b3dfd60e11b815260048101829052602401610779565b6001600160a01b0382166000908152610167602090815260408083208484528252808320805460ff19166001179055610166909152812080549091906111ea9067ffffffffffffffff600160a01b90910416610d1d565b8254611208908690600160a01b900467ffffffffffffffff16610a07565b83600101546112179190613682565b6112219190613748565b90508061124157604051631f2a200560e01b815260040160405180910390fd5b8154611257906001600160a01b03168583611e77565b836001600160a01b0316837f4ec90e965519d92681267467f775ada5bd214aa92c0dc93d90a5e880ce9ed0268360405161129391815260200190565b60405180910390a350505050565b60006101cd54600160a01b900460ff1660038111156112c2576112c261333f565b146112f2576101cd54604051633bf2e2f960e11b815261077991600160a01b900460ff1690600090600401613506565b6112fa6117b5565b6101d054611308919061371b565b811115611328576113176117b5565b6101d054611325919061371b565b90505b8061134657604051631f2a200560e01b815260040160405180910390fd5b6101cc54604051636c9b2a3f60e11b81523360048201526101009091046001600160a01b03169063d936547e9060240160206040518083038186803b15801561138e57600080fd5b505afa1580156113a2573d6000803e3d6000fd5b505050506040513d601f19601f820116820180604052508101906113c6919061376a565b6113e557604051636f8bf18b60e11b8152336004820152602401610779565b6101cc805460ff191660011790556113fd338261221a565b6101cc805460ff191690556101cf546040516370a0823160e01b81523060048201526000916001600160a01b0316906370a082319060240160206040518083038186803b15801561144d57600080fd5b505afa158015611461573d6000803e3d6000fd5b505050506040513d601f19601f82011682018060405250810190611485919061378c565b6101cf549091506114a1906001600160a01b03163330856122a4565b6101cf546040516370a0823160e01b8152306004820152839183916001600160a01b03909116906370a082319060240160206040518083038186803b1580156114e957600080fd5b505afa1580156114fd573d6000803e3d6000fd5b505050506040513d601f19601f82011682018060405250810190611521919061378c565b61152b919061371b565b14611559576101cf5460405163153b0dd160e31b81526001600160a01b039091166004820152602401610779565b60405182815233907fe1fffcc4923d04b559f4d29a8bfc6cda04eb5b0d3c460751c2402c5c5cc9109c9060200160405180910390a25050565b834211156115e25760405162461bcd60e51b815260206004820152601d60248201527f45524332305065726d69743a206578706972656420646561646c696e650000006044820152606401610779565b6000609a548888886115f38c6122dc565b6040805160208101969096526001600160a01b0394851690860152929091166060840152608083015260a082015260c0810186905260e001604051602081830303815290604052805190602001209050600061164e82612304565b9050600061165e82878787612352565b9050896001600160a01b0316816001600160a01b0316146116c15760405162461bcd60e51b815260206004820152601e60248201527f45524332305065726d69743a20696e76616c6964207369676e617475726500006044820152606401610779565b6116cc8a8a8a6119b1565b50505050505050505050565b6101cd546001600160a01b0316331461171a576101cd54604051637bec6d7f60e01b81523360048201526001600160a01b039091166024820152604401610779565b60016101cd54600160a01b900460ff16600381111561173b5761173b61333f565b1461176b576101cd54604051633bf2e2f960e11b815261077991600160a01b900460ff1690600190600401613506565b6101cd805460ff60a01b1916600360a01b1790819055600160a01b900460ff16600381111561179c5761179c61333f565b60405160008051602061382883398151915290600090a2565b60006109c360355490565b6101cd546001600160a01b03163314611802576101cd54604051637bec6d7f60e01b81523360048201526001600160a01b039091166024820152604401610779565b60006101cd54600160a01b900460ff1660038111156118235761182361333f565b14611853576101cd54604051633bf2e2f960e11b815261077991600160a01b900460ff1690600090600401613506565b6101cd8054600160a11b60ff60a01b199091161790556101cf546040516370a0823160e01b815230600482018190526118f49290916001600160a01b039091169081906370a082319060240160206040518083038186803b1580156118b757600080fd5b505afa1580156118cb573d6000803e3d6000fd5b505050506040513d601f19601f820116820180604052508101906118ef919061378c565b611d47565b6101cd54600160a01b900460ff16600381111561179c5761179c61333f565b60408051808201909152600080825260208201526001600160a01b038316600090815260cd60205260409020805463ffffffff841690811061195757611957613732565b60009182526020918290206040805180820190915291015463ffffffff8116825264010000000090046001600160e01b0316918101919091529392505050565b610d19338383611d47565b6001600160a01b03163b151590565b6001600160a01b038316611a135760405162461bcd60e51b8152602060048201526024808201527f45524332303a20617070726f76652066726f6d20746865207a65726f206164646044820152637265737360e01b6064820152608401610779565b6001600160a01b038216611a745760405162461bcd60e51b815260206004820152602260248201527f45524332303a20617070726f766520746f20746865207a65726f206164647265604482015261737360f01b6064820152608401610779565b6001600160a01b0383811660008181526034602090815260408083209487168084529482529182902085905590518481527f8c5be1e5ebec7d5bd14f71427d1e84f3dd0314c0f7b2291e5b200ac8c7c3b92591015b60405180910390a3505050565b6001600160a01b038381166000908152603460209081526040808320938616835292905220546000198114611b625781811015611b555760405162461bcd60e51b815260206004820152601d60248201527f45524332303a20696e73756666696369656e7420616c6c6f77616e63650000006044820152606401610779565b611b6284848484036119b1565b50505050565b6001600160a01b038316611bcc5760405162461bcd60e51b815260206004820152602560248201527f45524332303a207472616e736665722066726f6d20746865207a65726f206164604482015264647265737360d81b6064820152608401610779565b6001600160a01b038216611c2e5760405162461bcd60e51b815260206004820152602360248201527f45524332303a207472616e7366657220746f20746865207a65726f206164647260448201526265737360e81b6064820152608401610779565b611c3983838361237a565b6001600160a01b03831660009081526033602052604090205481811015611cb15760405162461bcd60e51b815260206004820152602660248201527f45524332303a207472616e7366657220616d6f756e7420657863656564732062604482015265616c616e636560d01b6064820152608401610779565b6001600160a01b03808516600090815260336020526040808220858503905591851681529081208054849290611ce8908490613554565b92505081905550826001600160a01b0316846001600160a01b03167fddf252ad1be2c89b69c2b068fc378daa952ba7f163c4a11628f55a4df523b3ef84604051611d3491815260200190565b60405180910390a3611b6284848461239e565b80611d6557604051631f2a200560e01b815260040160405180910390fd5b6001600160a01b0383163014611d8a57611d8a6001600160a01b0383168430846122a4565b604080516060810182526001600160a01b03808516825267ffffffffffffffff438116602080850191825284860187815261016580546000908152610166909352968220955186549351909416600160a01b026001600160e01b03199093169390941692909217178355905160019092019190915581549190611e0c836137a5565b9190505550816001600160a01b0316610165547fa7932e9c92f31e1ed56b29d00bbe669a97484dc24de28dd9c8c0429df7f3584783604051611ac991815260200190565b6101cc805460ff19166001179055611e6882826123d0565b50506101cc805460ff19169055565b6040516001600160a01b038316602482015260448101829052611eda90849063a9059cbb60e01b906064015b60408051601f198184030181529190526020810180516001600160e01b03166001600160e01b0319909316929092179091526123e8565b505050565b60006109c37f8b73c3c69bb8fe3d512ecc4cf759cc79239f7b179b0ffacaa9a75d522b39400f611f0e60655490565b6066546040805160208101859052908101839052606081018290524660808201523060a082015260009060c0016040516020818303038152906040528051906020012090509392505050565b8154600090815b81811015611fbe576000611f7582846124ba565b905084868281548110611f8a57611f8a613732565b60009182526020909120015463ffffffff161115611faa57809250611fb8565b611fb5816001613554565b91505b50611f61565b81156120025784611fd060018461371b565b81548110611fe057611fe0613732565b60009182526020909120015464010000000090046001600160e01b0316612005565b60005b6001600160e01b031695945050505050565b600063ffffffff82111561207c5760405162461bcd60e51b815260206004820152602660248201527f53616665436173743a2076616c756520646f65736e27742066697420696e203360448201526532206269747360d01b6064820152608401610779565b5090565b61208a82826124d5565b61209382612506565b61209b612559565b50506101006020527f61abdebf06ea0384d522ccdeffe9e78db4a91aefc15bc1819f395b7a938396888054600160ff1991821681179092557f70126dd9cea1a1214159b1472f7fcea42fc63fc611c53c2c49bfeba77835a7a480548216831790557fac7abb1bf14c13325895e3b4d90a4441e9939ae7843eeab37d3c9fdf5463b4d680548216831790556359a4dc8360e01b60009081527f3667e5f2275d2486a4c5f2d08e7eb021ac8ec19767f2966bd7e99812fb30de568054909216909217905561016555565b600054610100900460ff1661218a5760405162461bcd60e51b8152600401610779906137c0565b8151602083012060fe55806121a357600160ff556121aa565b60001960ff555b50506101006020527fbb65f5272e322a48a67f5eacccf782cc6ce474995c95b54bcda28173c97e4c158054600160ff19918216811790925563084b636360e21b6000527f677433b12b588afb687eb4d5f9842f627ada8b730d3c5490c99e1cd18bb269eb80549091169091179055565b6122248282612580565b6035546001600160e01b0310156122965760405162461bcd60e51b815260206004820152603060248201527f4552433230566f7465733a20746f74616c20737570706c79207269736b73206f60448201526f766572666c6f77696e6720766f74657360801b6064820152608401610779565b611b6260ce6126738361267f565b6040516001600160a01b0380851660248301528316604482015260648101829052611b629085906323b872dd60e01b90608401611ea3565b6001600160a01b03811660009081526099602052604090208054600181018255905b50919050565b600061070f612311611edf565b8360405161190160f01b6020820152602281018390526042810182905260009060620160405160208183030381529060405280519060200120905092915050565b6000806000612363878787876127f8565b91509150612370816128e5565b5095945050505050565b6101cc5460ff16611eda5760405163d198c28360e01b815260040160405180910390fd5b6001600160a01b03838116600090815260cc6020526040808220548584168352912054611eda92918216911683612aa0565b6123da8282612bdd565b611b6260ce612d3e8361267f565b600061243d826040518060400160405280602081526020017f5361666545524332303a206c6f772d6c6576656c2063616c6c206661696c6564815250856001600160a01b0316612d4a9092919063ffffffff16565b805190915015611eda578080602001905181019061245b919061376a565b611eda5760405162461bcd60e51b815260206004820152602a60248201527f5361666545524332303a204552433230206f7065726174696f6e20646964206e6044820152691bdd081cdd58d8d9595960b21b6064820152608401610779565b60006124c96002848418613748565b61073490848416613554565b600054610100900460ff166124fc5760405162461bcd60e51b8152600401610779906137c0565b610d198282612d61565b600054610100900460ff1661252d5760405162461bcd60e51b8152600401610779906137c0565b61255081604051806040016040528060018152602001603160f81b815250612daf565b61084081612df0565b600054610100900460ff16610b775760405162461bcd60e51b8152600401610779906137c0565b6001600160a01b0382166125d65760405162461bcd60e51b815260206004820152601f60248201527f45524332303a206d696e7420746f20746865207a65726f2061646472657373006044820152606401610779565b6125e26000838361237a565b80603560008282546125f49190613554565b90915550506001600160a01b03821660009081526033602052604081208054839290612621908490613554565b90915550506040518181526001600160a01b038316906000907fddf252ad1be2c89b69c2b068fc378daa952ba7f163c4a11628f55a4df523b3ef9060200160405180910390a3610d196000838361239e565b60006107348284613554565b8254600090819080156126ca578561269860018361371b565b815481106126a8576126a8613732565b60009182526020909120015464010000000090046001600160e01b03166126cd565b60005b6001600160e01b031692506126e683858763ffffffff16565b91506000811180156127245750438661270060018461371b565b8154811061271057612710613732565b60009182526020909120015463ffffffff16145b156127845761273282612e3e565b8661273e60018461371b565b8154811061274e5761274e613732565b9060005260206000200160000160046101000a8154816001600160e01b0302191690836001600160e01b031602179055506127ef565b85604051806040016040528061279943612017565b63ffffffff1681526020016127ad85612e3e565b6001600160e01b0390811690915282546001810184556000938452602093849020835194909301519091166401000000000263ffffffff909316929092179101555b50935093915050565b6000807f7fffffffffffffffffffffffffffffff5d576e7357a4501ddfe92f46681b20a083111561282f57506000905060036128dc565b8460ff16601b1415801561284757508460ff16601c14155b1561285857506000905060046128dc565b6040805160008082526020820180845289905260ff881692820192909252606081018690526080810185905260019060a0016020604051602081039080840390855afa1580156128ac573d6000803e3d6000fd5b5050604051601f1901519150506001600160a01b0381166128d5576000600192509250506128dc565b9150600090505b94509492505050565b60008160048111156128f9576128f961333f565b14156129025750565b60018160048111156129165761291661333f565b14156129645760405162461bcd60e51b815260206004820152601860248201527f45434453413a20696e76616c6964207369676e617475726500000000000000006044820152606401610779565b60028160048111156129785761297861333f565b14156129c65760405162461bcd60e51b815260206004820152601f60248201527f45434453413a20696e76616c6964207369676e6174757265206c656e677468006044820152606401610779565b60038160048111156129da576129da61333f565b1415612a335760405162461bcd60e51b815260206004820152602260248201527f45434453413a20696e76616c6964207369676e6174757265202773272076616c604482015261756560f01b6064820152608401610779565b6004816004811115612a4757612a4761333f565b14156108405760405162461bcd60e51b815260206004820152602260248201527f45434453413a20696e76616c6964207369676e6174757265202776272076616c604482015261756560f01b6064820152608401610779565b816001600160a01b0316836001600160a01b031614158015612ac25750600081115b15611eda576001600160a01b03831615612b50576001600160a01b038316600090815260cd602052604081208190612afd90612d3e8561267f565b91509150846001600160a01b03167fdec2bacdd2f05b59de34da9b523dff8be42e5e38e818c82fdb0bae774387a7248383604051612b45929190918252602082015260400190565b60405180910390a250505b6001600160a01b03821615611eda576001600160a01b038216600090815260cd602052604081208190612b86906126738561267f565b91509150836001600160a01b03167fdec2bacdd2f05b59de34da9b523dff8be42e5e38e818c82fdb0bae774387a7248383604051612bce929190918252602082015260400190565b60405180910390a25050505050565b6001600160a01b038216612c3d5760405162461bcd60e51b815260206004820152602160248201527f45524332303a206275726e2066726f6d20746865207a65726f206164647265736044820152607360f81b6064820152608401610779565b612c498260008361237a565b6001600160a01b03821660009081526033602052604090205481811015612cbd5760405162461bcd60e51b815260206004820152602260248201527f45524332303a206275726e20616d6f756e7420657863656564732062616c616e604482015261636560f01b6064820152608401610779565b6001600160a01b0383166000908152603360205260408120838303905560358054849290612cec90849061371b565b90915550506040518281526000906001600160a01b038516907fddf252ad1be2c89b69c2b068fc378daa952ba7f163c4a11628f55a4df523b3ef9060200160405180910390a3611eda8360008461239e565b6000610734828461371b565b6060612d598484600085612ea7565b949350505050565b600054610100900460ff16612d885760405162461bcd60e51b8152600401610779906137c0565b8151612d9b906036906020850190613011565b508051611eda906037906020840190613011565b600054610100900460ff16612dd65760405162461bcd60e51b8152600401610779906137c0565b815160209283012081519190920120606591909155606655565b600054610100900460ff16612e175760405162461bcd60e51b8152600401610779906137c0565b507f6e71edae12b1b97f4d1f60370fef10105fa2faae0126114a169c64845d6126c9609a55565b60006001600160e01b0382111561207c5760405162461bcd60e51b815260206004820152602760248201527f53616665436173743a2076616c756520646f65736e27742066697420696e20326044820152663234206269747360c81b6064820152608401610779565b606082471015612f085760405162461bcd60e51b815260206004820152602660248201527f416464726573733a20696e73756666696369656e742062616c616e636520666f6044820152651c8818d85b1b60d21b6064820152608401610779565b6001600160a01b0385163b612f5f5760405162461bcd60e51b815260206004820152601d60248201527f416464726573733a2063616c6c20746f206e6f6e2d636f6e74726163740000006044820152606401610779565b600080866001600160a01b03168587604051612f7b919061380b565b60006040518083038185875af1925050503d8060008114612fb8576040519150601f19603f3d011682016040523d82523d6000602084013e612fbd565b606091505b5091509150612fcd828286612fd8565b979650505050505050565b60608315612fe7575081610734565b825115612ff75782518084602001fd5b8160405162461bcd60e51b815260040161077991906130f7565b82805461301d906134d1565b90600052602060002090601f01602090048101928261303f5760008555613085565b82601f1061305857805160ff1916838001178555613085565b82800160010185558215613085579182015b8281111561308557825182559160200191906001019061306a565b5061207c9291505b8082111561207c576000815560010161308d565b6000602082840312156130b357600080fd5b81356001600160e01b03198116811461073457600080fd5b60005b838110156130e65781810151838201526020016130ce565b83811115611b625750506000910152565b60208152600082518060208401526131168160408501602087016130cb565b601f01601f19169190910160400192915050565b6001600160a01b038116811461084057600080fd5b6000806040838503121561315257600080fd5b823561315d8161312a565b946020939093013593505050565b60008060006060848603121561318057600080fd5b833561318b8161312a565b9250602084013561319b8161312a565b929592945050506040919091013590565b6000602082840312156131be57600080fd5b5035919050565b6000602082840312156131d757600080fd5b81356107348161312a565b634e487b7160e01b600052604160045260246000fd5b600082601f83011261320957600080fd5b813567ffffffffffffffff80821115613224576132246131e2565b604051601f8301601f19908116603f0116810190828211818310171561324c5761324c6131e2565b8160405283815286602085880101111561326557600080fd5b836020870160208301376000602085830101528094505050505092915050565b600080600080600080600060e0888a0312156132a057600080fd5b873567ffffffffffffffff808211156132b857600080fd5b6132c48b838c016131f8565b985060208a01359150808211156132da57600080fd5b506132e78a828b016131f8565b96505060408801356132f88161312a565b945060608801356133088161312a565b935060808801356133188161312a565b925060a08801356133288161312a565b8092505060c0880135905092959891949750929550565b634e487b7160e01b600052602160045260246000fd5b6004811061337357634e487b7160e01b600052602160045260246000fd5b9052565b6020810161070f8284613355565b60ff8116811461084057600080fd5b60008060008060008060c087890312156133ad57600080fd5b86356133b88161312a565b9550602087013594506040870135935060608701356133d681613385565b9598949750929560808101359460a0909101359350915050565b600080600080600080600060e0888a03121561340b57600080fd5b87356134168161312a565b965060208801356134268161312a565b95506040880135945060608801359350608088013561344481613385565b9699959850939692959460a0840135945060c09093013592915050565b6000806040838503121561347457600080fd5b823561347f8161312a565b9150602083013561348f8161312a565b809150509250929050565b600080604083850312156134ad57600080fd5b82356134b88161312a565b9150602083013563ffffffff8116811461348f57600080fd5b600181811c908216806134e557607f821691505b602082108114156122fe57634e487b7160e01b600052602260045260246000fd5b604081016135148285613355565b6107346020830184613355565b60006020828403121561353357600080fd5b815161073481613385565b634e487b7160e01b600052601160045260246000fd5b600082198211156135675761356761353e565b500190565b600060ff821660ff8416808210156135865761358661353e565b90039392505050565b600181815b808511156135ca5781600019048211156135b0576135b061353e565b808516156135bd57918102915b93841c9390800290613594565b509250929050565b6000826135e15750600161070f565b816135ee5750600061070f565b8160018114613604576002811461360e5761362a565b600191505061070f565b60ff84111561361f5761361f61353e565b50506001821b61070f565b5060208310610133831016604e8410600b841016171561364d575081810a61070f565b613657838361358f565b806000190482111561366b5761366b61353e565b029392505050565b600061073460ff8416836135d2565b600081600019048311821515161561369c5761369c61353e565b500290565b6000602082840312156136b357600080fd5b81516107348161312a565b69021b937bbb2333ab732160b51b8152600082516136e381600a8501602087016130cb565b91909101600a0192915050565b6243462d60e81b81526000825161370e8160038501602087016130cb565b9190910160030192915050565b60008282101561372d5761372d61353e565b500390565b634e487b7160e01b600052603260045260246000fd5b60008261376557634e487b7160e01b600052601260045260246000fd5b500490565b60006020828403121561377c57600080fd5b8151801515811461073457600080fd5b60006020828403121561379e57600080fd5b5051919050565b60006000198214156137b9576137b961353e565b5060010190565b6020808252602b908201527f496e697469616c697a61626c653a20636f6e7472616374206973206e6f74206960408201526a6e697469616c697a696e6760a81b606082015260800190565b6000825161381d8184602087016130cb565b919091019291505056fea4248ceb280c6f9303d3ba87af96d45c3b0c834338095ab6350dbe86d38c9fc5a2646970667358221220f27239680853cc120a93fbf7466cfeb4f6f8d49b5785e61fe5fd50d686b1e35a64736f6c63430008090033",
  "linkReferences": {},
  "deployedLinkReferences": {}
}