{
  "_format": "hh-sol-artifact-1",
  "contractName": "DEXRouter",
  "sourceName": "contracts/erc20/DEXRouter.sol",
  "abi": [
    {
      "inputs": [],
      "stateMutability": "nonpayable",
      "type": "constructor"
    },
    {
      "inputs": [
        {
          "internalType": "address",
          "name": "token",
          "type": "address"
        },
        {
          "internalType": "uint256",
          "name": "payment",
          "type": "uint256"
        },
        {
          "internalType": "uint256",
          "name": "price",
          "type": "uint256"
        },
        {
          "internalType": "uint256",
          "name": "minimumAmount",
          "type": "uint256"
        }
      ],
      "name": "buy",
      "outputs": [],
      "stateMutability": "nonpayable",
      "type": "function"
    },
    {
      "inputs": [],
      "name": "contractName",
      "outputs": [
        {
          "internalType": "bytes32",
          "name": "",
          "type": "bytes32"
        }
      ],
      "stateMutability": "view",
      "type": "function"
    },
    {
      "inputs": [
        {
          "internalType": "bytes4",
          "name": "",
          "type": "bytes4"
        }
      ],
      "name": "supportsInterface",
      "outputs": [
        {
          "internalType": "bool",
          "name": "",
          "type": "bool"
        }
      ],
      "stateMutability": "view",
      "type": "function"
    },
    {
      "inputs": [],
      "name": "version",
      "outputs": [
        {
          "internalType": "uint256",
          "name": "",
          "type": "uint256"
        }
      ],
      "stateMutability": "view",
      "type": "function"
    }
  ],
  "bytecode": "0x608060405234801561001057600080fd5b506040805180820190915260098152682222ac2937baba32b960b91b6020909101527fc068a82f8a9bfe1f80a72f5ea4a2e656b10f587508ffe4a62fce412bd5dc1118600155600054610100900460ff166100715760005460ff1615610079565b610079610182565b6100e15760405162461bcd60e51b815260206004820152602e60248201527f496e697469616c697a61626c653a20636f6e747261637420697320616c72656160448201526d191e481a5b9a5d1a585b1a5e995960921b60648201526084015b60405180910390fd5b600054610100900460ff16158015610103576000805461ffff19166101011790555b6040805180820190915260098152682222ac2937baba32b960b91b602082015261012e90600161019d565b630588b6f960e21b60005260036020527fd300ff29f57e102e930a575e5d9ad50cc1abad5da256380d13f6fb04133f4957805460ff19166001179055801561017c576000805461ff00191690555b506102a6565b60006101973061029760201b6101d71760201c565b15905090565b600054610100900460ff166102085760405162461bcd60e51b815260206004820152602b60248201527f496e697469616c697a61626c653a20636f6e7472616374206973206e6f74206960448201526a6e697469616c697a696e6760a81b60648201526084016100d8565b8151602083012060015580610221576001600255610228565b6000196002555b505060036020527f28b0ef64f7e82d3b26f3fd404bd0151552f792965f39c29ae82c0a78df67af9c8054600160ff19918216811790925563084b636360e21b6000527ff2ce595d3685ae93af455b2a85c171e0605a33d91f3700771e47939a4623804580549091169091179055565b6001600160a01b03163b151590565b610636806102b56000396000f3fe608060405234801561001057600080fd5b506004361061004c5760003560e01c806301ffc9a7146100515780631622dbe41461008957806354fd4d501461009e57806375d0c0dc146100b5575b600080fd5b61007461005f3660046104a5565b60036020526000908152604090205460ff1681565b60405190151581526020015b60405180910390f35b61009c6100973660046104e7565b6100be565b005b6100a760025481565b604051908152602001610080565b6100a760015481565b6000846001600160a01b031663db0b27fd6040518163ffffffff1660e01b815260040160206040518083038186803b1580156100f957600080fd5b505afa15801561010d573d6000803e3d6000fd5b505050506040513d601f19601f820116820180604052508101906101319190610522565b90506101486001600160a01b0382163387876101e6565b60405163a59ac6dd60e01b815233600482015260248101849052604481018390526001600160a01b0386169063a59ac6dd906064016040805180830381600087803b15801561019657600080fd5b505af11580156101aa573d6000803e3d6000fd5b505050506040513d601f19601f820116820180604052508101906101ce919061053f565b50505050505050565b6001600160a01b03163b151590565b604080516001600160a01b0385811660248301528416604482015260648082018490528251808303909101815260849091019091526020810180516001600160e01b03166323b872dd60e01b179052610240908590610246565b50505050565b600061029b826040518060400160405280602081526020017f5361666545524332303a206c6f772d6c6576656c2063616c6c206661696c6564815250856001600160a01b03166103229092919063ffffffff16565b80519091501561031d57808060200190518101906102b99190610563565b61031d5760405162461bcd60e51b815260206004820152602a60248201527f5361666545524332303a204552433230206f7065726174696f6e20646964206e6044820152691bdd081cdd58d8d9595960b21b60648201526084015b60405180910390fd5b505050565b6060610331848460008561033b565b90505b9392505050565b60608247101561039c5760405162461bcd60e51b815260206004820152602660248201527f416464726573733a20696e73756666696369656e742062616c616e636520666f6044820152651c8818d85b1b60d21b6064820152608401610314565b6001600160a01b0385163b6103f35760405162461bcd60e51b815260206004820152601d60248201527f416464726573733a2063616c6c20746f206e6f6e2d636f6e74726163740000006044820152606401610314565b600080866001600160a01b0316858760405161040f91906105b1565b60006040518083038185875af1925050503d806000811461044c576040519150601f19603f3d011682016040523d82523d6000602084013e610451565b606091505b509150915061046182828661046c565b979650505050505050565b6060831561047b575081610334565b82511561048b5782518084602001fd5b8160405162461bcd60e51b815260040161031491906105cd565b6000602082840312156104b757600080fd5b81356001600160e01b03198116811461033457600080fd5b6001600160a01b03811681146104e457600080fd5b50565b600080600080608085870312156104fd57600080fd5b8435610508816104cf565b966020860135965060408601359560600135945092505050565b60006020828403121561053457600080fd5b8151610334816104cf565b6000806040838503121561055257600080fd5b505080516020909101519092909150565b60006020828403121561057557600080fd5b8151801515811461033457600080fd5b60005b838110156105a0578181015183820152602001610588565b838111156102405750506000910152565b600082516105c3818460208701610585565b9190910192915050565b60208152600082518060208401526105ec816040850160208701610585565b601f01601f1916919091016040019291505056fea2646970667358221220f241582a49715f3bf172e8d2b5f7c221536f11c9078798dabd731d874d47631664736f6c63430008090033",
  "linkReferences": {},
  "deployedLinkReferences": {}
}