{
  "_format": "hh-sol-artifact-1",
  "contractName": "FrabricERC20",
  "sourceName": "contracts/erc20/FrabricERC20.sol",
  "abi": [
    {
      "inputs": [],
      "stateMutability": "nonpayable",
      "type": "constructor"
    },
    {
      "inputs": [
        {
          "internalType": "uint256",
          "name": "id",
          "type": "uint256"
        }
      ],
      "name": "AlreadyClaimed",
      "type": "error"
    },
    {
      "inputs": [
        {
          "internalType": "uint256",
          "name": "balanceAfterTransfer",
          "type": "uint256"
        },
        {
          "internalType": "uint256",
          "name": "lockedBalance",
          "type": "uint256"
        }
      ],
      "name": "BalanceLocked",
      "type": "error"
    },
    {
      "inputs": [],
      "name": "CurrentlyPaused",
      "type": "error"
    },
    {
      "inputs": [],
      "name": "Delegation",
      "type": "error"
    },
    {
      "inputs": [
        {
          "internalType": "uint256",
          "name": "amount",
          "type": "uint256"
        },
        {
          "internalType": "uint256",
          "name": "minimumAmount",
          "type": "uint256"
        }
      ],
      "name": "LessThanMinimumAmount",
      "type": "error"
    },
    {
      "inputs": [
        {
          "internalType": "uint256",
          "name": "required",
          "type": "uint256"
        },
        {
          "internalType": "uint256",
          "name": "balance",
          "type": "uint256"
        }
      ],
      "name": "NotEnoughFunds",
      "type": "error"
    },
    {
      "inputs": [],
      "name": "NotMintable",
      "type": "error"
    },
    {
      "inputs": [
        {
          "internalType": "address",
          "name": "person",
          "type": "address"
        }
      ],
      "name": "NotWhitelisted",
      "type": "error"
    },
    {
      "inputs": [
        {
          "internalType": "address",
          "name": "person",
          "type": "address"
        }
      ],
      "name": "Removed",
      "type": "error"
    },
    {
      "inputs": [
        {
          "internalType": "uint256",
          "name": "supply",
          "type": "uint256"
        }
      ],
      "name": "SupplyExceedsUInt112",
      "type": "error"
    },
    {
      "inputs": [
        {
          "internalType": "address",
          "name": "contractAddress",
          "type": "address"
        },
        {
          "internalType": "bytes4",
          "name": "interfaceID",
          "type": "bytes4"
        }
      ],
      "name": "UnsupportedInterface",
      "type": "error"
    },
    {
      "inputs": [
        {
          "internalType": "address",
          "name": "person",
          "type": "address"
        }
      ],
      "name": "Whitelisted",
      "type": "error"
    },
    {
      "inputs": [],
      "name": "ZeroAmount",
      "type": "error"
    },
    {
      "inputs": [],
      "name": "ZeroPrice",
      "type": "error"
    },
    {
      "anonymous": false,
      "inputs": [
        {
          "indexed": true,
          "internalType": "address",
          "name": "owner",
          "type": "address"
        },
        {
          "indexed": true,
          "internalType": "address",
          "name": "spender",
          "type": "address"
        },
        {
          "indexed": false,
          "internalType": "uint256",
          "name": "value",
          "type": "uint256"
        }
      ],
      "name": "Approval",
      "type": "event"
    },
    {
      "anonymous": false,
      "inputs": [
        {
          "indexed": true,
          "internalType": "address",
          "name": "trader",
          "type": "address"
        },
        {
          "indexed": true,
          "internalType": "uint256",
          "name": "price",
          "type": "uint256"
        },
        {
          "indexed": false,
          "internalType": "uint256",
          "name": "amount",
          "type": "uint256"
        }
      ],
      "name": "CancelledOrder",
      "type": "event"
    },
    {
      "anonymous": false,
      "inputs": [
        {
          "indexed": true,
          "internalType": "uint256",
          "name": "id",
          "type": "uint256"
        },
        {
          "indexed": true,
          "internalType": "address",
          "name": "person",
          "type": "address"
        },
        {
          "indexed": false,
          "internalType": "uint256",
          "name": "amount",
          "type": "uint256"
        }
      ],
      "name": "Claimed",
      "type": "event"
    },
    {
      "anonymous": false,
      "inputs": [
        {
          "indexed": true,
          "internalType": "address",
          "name": "delegator",
          "type": "address"
        },
        {
          "indexed": true,
          "internalType": "address",
          "name": "fromDelegate",
          "type": "address"
        },
        {
          "indexed": true,
          "internalType": "address",
          "name": "toDelegate",
          "type": "address"
        }
      ],
      "name": "DelegateChanged",
      "type": "event"
    },
    {
      "anonymous": false,
      "inputs": [
        {
          "indexed": true,
          "internalType": "address",
          "name": "delegate",
          "type": "address"
        },
        {
          "indexed": false,
          "internalType": "uint256",
          "name": "previousBalance",
          "type": "uint256"
        },
        {
          "indexed": false,
          "internalType": "uint256",
          "name": "newBalance",
          "type": "uint256"
        }
      ],
      "name": "DelegateVotesChanged",
      "type": "event"
    },
    {
      "anonymous": false,
      "inputs": [
        {
          "indexed": true,
          "internalType": "uint256",
          "name": "id",
          "type": "uint256"
        },
        {
          "indexed": true,
          "internalType": "address",
          "name": "token",
          "type": "address"
        },
        {
          "indexed": false,
          "internalType": "uint256",
          "name": "amount",
          "type": "uint256"
        }
      ],
      "name": "Distributed",
      "type": "event"
    },
    {
      "anonymous": false,
      "inputs": [
        {
          "indexed": true,
          "internalType": "address",
          "name": "executor",
          "type": "address"
        },
        {
          "indexed": true,
          "internalType": "address",
          "name": "orderer",
          "type": "address"
        },
        {
          "indexed": true,
          "internalType": "uint256",
          "name": "price",
          "type": "uint256"
        },
        {
          "indexed": false,
          "internalType": "uint256",
          "name": "amount",
          "type": "uint256"
        }
      ],
      "name": "Filled",
      "type": "event"
    },
    {
      "anonymous": false,
      "inputs": [],
      "name": "GlobalAcceptance",
      "type": "event"
    },
    {
      "anonymous": false,
      "inputs": [
        {
          "indexed": true,
          "internalType": "enum IIntegratedLimitOrderDEXCore.OrderType",
          "name": "orderType",
          "type": "uint8"
        },
        {
          "indexed": true,
          "internalType": "uint256",
          "name": "price",
          "type": "uint256"
        }
      ],
      "name": "NewOrder",
      "type": "event"
    },
    {
      "anonymous": false,
      "inputs": [
        {
          "indexed": true,
          "internalType": "address",
          "name": "trader",
          "type": "address"
        },
        {
          "indexed": true,
          "internalType": "uint256",
          "name": "price",
          "type": "uint256"
        },
        {
          "indexed": false,
          "internalType": "uint256",
          "name": "amount",
          "type": "uint256"
        }
      ],
      "name": "OrderIncrease",
      "type": "event"
    },
    {
      "anonymous": false,
      "inputs": [
        {
          "indexed": true,
          "internalType": "address",
          "name": "previousOwner",
          "type": "address"
        },
        {
          "indexed": true,
          "internalType": "address",
          "name": "newOwner",
          "type": "address"
        }
      ],
      "name": "OwnershipTransferred",
      "type": "event"
    },
    {
      "anonymous": false,
      "inputs": [
        {
          "indexed": false,
          "internalType": "address",
          "name": "oldParent",
          "type": "address"
        },
        {
          "indexed": false,
          "internalType": "address",
          "name": "newParent",
          "type": "address"
        }
      ],
      "name": "ParentWhitelistChange",
      "type": "event"
    },
    {
      "anonymous": false,
      "inputs": [
        {
          "indexed": false,
          "internalType": "address",
          "name": "account",
          "type": "address"
        }
      ],
      "name": "Paused",
      "type": "event"
    },
    {
      "anonymous": false,
      "inputs": [
        {
          "indexed": true,
          "internalType": "address",
          "name": "from",
          "type": "address"
        },
        {
          "indexed": true,
          "internalType": "address",
          "name": "to",
          "type": "address"
        },
        {
          "indexed": false,
          "internalType": "uint256",
          "name": "value",
          "type": "uint256"
        }
      ],
      "name": "Transfer",
      "type": "event"
    },
    {
      "anonymous": false,
      "inputs": [
        {
          "indexed": false,
          "internalType": "address",
          "name": "account",
          "type": "address"
        }
      ],
      "name": "Unpaused",
      "type": "event"
    },
    {
      "anonymous": false,
      "inputs": [
        {
          "indexed": true,
          "internalType": "address",
          "name": "person",
          "type": "address"
        },
        {
          "indexed": true,
          "internalType": "bytes32",
          "name": "oldInfo",
          "type": "bytes32"
        },
        {
          "indexed": true,
          "internalType": "bytes32",
          "name": "newInfo",
          "type": "bytes32"
        }
      ],
      "name": "WhitelistUpdate",
      "type": "event"
    },
    {
      "inputs": [],
      "name": "DOMAIN_SEPARATOR",
      "outputs": [
        {
          "internalType": "bytes32",
          "name": "",
          "type": "bytes32"
        }
      ],
      "stateMutability": "view",
      "type": "function"
    },
    {
      "inputs": [
        {
          "internalType": "address",
          "name": "owner",
          "type": "address"
        },
        {
          "internalType": "address",
          "name": "spender",
          "type": "address"
        }
      ],
      "name": "allowance",
      "outputs": [
        {
          "internalType": "uint256",
          "name": "",
          "type": "uint256"
        }
      ],
      "stateMutability": "view",
      "type": "function"
    },
    {
      "inputs": [
        {
          "internalType": "address",
          "name": "spender",
          "type": "address"
        },
        {
          "internalType": "uint256",
          "name": "amount",
          "type": "uint256"
        }
      ],
      "name": "approve",
      "outputs": [
        {
          "internalType": "bool",
          "name": "",
          "type": "bool"
        }
      ],
      "stateMutability": "nonpayable",
      "type": "function"
    },
    {
      "inputs": [
        {
          "internalType": "uint256",
          "name": "amount",
          "type": "uint256"
        }
      ],
      "name": "atomic",
      "outputs": [
        {
          "internalType": "uint256",
          "name": "",
          "type": "uint256"
        }
      ],
      "stateMutability": "nonpayable",
      "type": "function"
    },
    {
      "inputs": [],
      "name": "auction",
      "outputs": [
        {
          "internalType": "address",
          "name": "",
          "type": "address"
        }
      ],
      "stateMutability": "view",
      "type": "function"
    },
    {
      "inputs": [
        {
          "internalType": "address",
          "name": "account",
          "type": "address"
        }
      ],
      "name": "balanceOf",
      "outputs": [
        {
          "internalType": "uint256",
          "name": "",
          "type": "uint256"
        }
      ],
      "stateMutability": "view",
      "type": "function"
    },
    {
      "inputs": [
        {
          "internalType": "uint256",
          "name": "amount",
          "type": "uint256"
        }
      ],
      "name": "burn",
      "outputs": [],
      "stateMutability": "nonpayable",
      "type": "function"
    },
    {
      "inputs": [
        {
          "internalType": "address",
          "name": "trader",
          "type": "address"
        },
        {
          "internalType": "uint256",
          "name": "price",
          "type": "uint256"
        },
        {
          "internalType": "uint256",
          "name": "minimumAmount",
          "type": "uint256"
        }
      ],
      "name": "buy",
      "outputs": [
        {
          "internalType": "uint256",
          "name": "",
          "type": "uint256"
        },
        {
          "internalType": "uint256",
          "name": "",
          "type": "uint256"
        }
      ],
      "stateMutability": "nonpayable",
      "type": "function"
    },
    {
      "inputs": [
        {
          "internalType": "uint256",
          "name": "price",
          "type": "uint256"
        }
      ],
      "name": "cancelOrder",
      "outputs": [],
      "stateMutability": "nonpayable",
      "type": "function"
    },
    {
      "inputs": [
        {
          "internalType": "address",
          "name": "account",
          "type": "address"
        },
        {
          "internalType": "uint32",
          "name": "pos",
          "type": "uint32"
        }
      ],
      "name": "checkpoints",
      "outputs": [
        {
          "components": [
            {
              "internalType": "uint32",
              "name": "fromBlock",
              "type": "uint32"
            },
            {
              "internalType": "uint224",
              "name": "votes",
              "type": "uint224"
            }
          ],
          "internalType": "struct ERC20VotesUpgradeable.Checkpoint",
          "name": "",
          "type": "tuple"
        }
      ],
      "stateMutability": "view",
      "type": "function"
    },
    {
      "inputs": [
        {
          "internalType": "address",
          "name": "person",
          "type": "address"
        },
        {
          "internalType": "uint256",
          "name": "id",
          "type": "uint256"
        }
      ],
      "name": "claim",
      "outputs": [],
      "stateMutability": "nonpayable",
      "type": "function"
    },
    {
      "inputs": [
        {
          "internalType": "address",
          "name": "",
          "type": "address"
        },
        {
          "internalType": "uint256",
          "name": "",
          "type": "uint256"
        }
      ],
      "name": "claimedDistribution",
      "outputs": [
        {
          "internalType": "bool",
          "name": "",
          "type": "bool"
        }
      ],
      "stateMutability": "view",
      "type": "function"
    },
    {
      "inputs": [],
      "name": "contractName",
      "outputs": [
        {
          "internalType": "bytes32",
          "name": "",
          "type": "bytes32"
        }
      ],
      "stateMutability": "view",
      "type": "function"
    },
    {
      "inputs": [],
      "name": "decimals",
      "outputs": [
        {
          "internalType": "uint8",
          "name": "",
          "type": "uint8"
        }
      ],
      "stateMutability": "view",
      "type": "function"
    },
    {
      "inputs": [
        {
          "internalType": "address",
          "name": "spender",
          "type": "address"
        },
        {
          "internalType": "uint256",
          "name": "subtractedValue",
          "type": "uint256"
        }
      ],
      "name": "decreaseAllowance",
      "outputs": [
        {
          "internalType": "bool",
          "name": "",
          "type": "bool"
        }
      ],
      "stateMutability": "nonpayable",
      "type": "function"
    },
    {
      "inputs": [
        {
          "internalType": "address",
          "name": "",
          "type": "address"
        }
      ],
      "name": "delegate",
      "outputs": [],
      "stateMutability": "pure",
      "type": "function"
    },
    {
      "inputs": [
        {
          "internalType": "address",
          "name": "",
          "type": "address"
        },
        {
          "internalType": "uint256",
          "name": "",
          "type": "uint256"
        },
        {
          "internalType": "uint256",
          "name": "",
          "type": "uint256"
        },
        {
          "internalType": "uint8",
          "name": "",
          "type": "uint8"
        },
        {
          "internalType": "bytes32",
          "name": "",
          "type": "bytes32"
        },
        {
          "internalType": "bytes32",
          "name": "",
          "type": "bytes32"
        }
      ],
      "name": "delegateBySig",
      "outputs": [],
      "stateMutability": "pure",
      "type": "function"
    },
    {
      "inputs": [
        {
          "internalType": "address",
          "name": "account",
          "type": "address"
        }
      ],
      "name": "delegates",
      "outputs": [
        {
          "internalType": "address",
          "name": "",
          "type": "address"
        }
      ],
      "stateMutability": "view",
      "type": "function"
    },
    {
      "inputs": [
        {
          "internalType": "address",
          "name": "token",
          "type": "address"
        },
        {
          "internalType": "uint256",
          "name": "amount",
          "type": "uint256"
        }
      ],
      "name": "distribute",
      "outputs": [],
      "stateMutability": "nonpayable",
      "type": "function"
    },
    {
      "inputs": [
        {
          "internalType": "address",
          "name": "person",
          "type": "address"
        }
      ],
      "name": "explicitlyWhitelisted",
      "outputs": [
        {
          "internalType": "bool",
          "name": "",
          "type": "bool"
        }
      ],
      "stateMutability": "view",
      "type": "function"
    },
    {
      "inputs": [
        {
          "internalType": "uint256",
          "name": "price",
          "type": "uint256"
        },
        {
          "internalType": "uint256",
          "name": "i",
          "type": "uint256"
        }
      ],
      "name": "getOrderAmount",
      "outputs": [
        {
          "internalType": "uint256",
          "name": "",
          "type": "uint256"
        }
      ],
      "stateMutability": "view",
      "type": "function"
    },
    {
      "inputs": [
        {
          "internalType": "uint256",
          "name": "price",
          "type": "uint256"
        }
      ],
      "name": "getOrderQuantity",
      "outputs": [
        {
          "internalType": "uint256",
          "name": "",
          "type": "uint256"
        }
      ],
      "stateMutability": "view",
      "type": "function"
    },
    {
      "inputs": [
        {
          "internalType": "uint256",
          "name": "price",
          "type": "uint256"
        },
        {
          "internalType": "uint256",
          "name": "i",
          "type": "uint256"
        }
      ],
      "name": "getOrderTrader",
      "outputs": [
        {
          "internalType": "address",
          "name": "",
          "type": "address"
        }
      ],
      "stateMutability": "view",
      "type": "function"
    },
    {
      "inputs": [
        {
          "internalType": "uint256",
          "name": "blockNumber",
          "type": "uint256"
        }
      ],
      "name": "getPastTotalSupply",
      "outputs": [
        {
          "internalType": "uint256",
          "name": "",
          "type": "uint256"
        }
      ],
      "stateMutability": "view",
      "type": "function"
    },
    {
      "inputs": [
        {
          "internalType": "address",
          "name": "account",
          "type": "address"
        },
        {
          "internalType": "uint256",
          "name": "blockNumber",
          "type": "uint256"
        }
      ],
      "name": "getPastVotes",
      "outputs": [
        {
          "internalType": "uint256",
          "name": "",
          "type": "uint256"
        }
      ],
      "stateMutability": "view",
      "type": "function"
    },
    {
      "inputs": [
        {
          "internalType": "uint256",
          "name": "price",
          "type": "uint256"
        }
      ],
      "name": "getPointType",
      "outputs": [
        {
          "internalType": "enum IIntegratedLimitOrderDEXCore.OrderType",
          "name": "",
          "type": "uint8"
        }
      ],
      "stateMutability": "view",
      "type": "function"
    },
    {
      "inputs": [
        {
          "internalType": "address",
          "name": "account",
          "type": "address"
        }
      ],
      "name": "getVotes",
      "outputs": [
        {
          "internalType": "uint256",
          "name": "",
          "type": "uint256"
        }
      ],
      "stateMutability": "view",
      "type": "function"
    },
    {
      "inputs": [],
      "name": "global",
      "outputs": [
        {
          "internalType": "bool",
          "name": "",
          "type": "bool"
        }
      ],
      "stateMutability": "view",
      "type": "function"
    },
    {
      "inputs": [
        {
          "internalType": "address",
          "name": "spender",
          "type": "address"
        },
        {
          "internalType": "uint256",
          "name": "addedValue",
          "type": "uint256"
        }
      ],
      "name": "increaseAllowance",
      "outputs": [
        {
          "internalType": "bool",
          "name": "",
          "type": "bool"
        }
      ],
      "stateMutability": "nonpayable",
      "type": "function"
    },
    {
      "inputs": [
        {
          "internalType": "address",
          "name": "",
          "type": "address"
        }
      ],
      "name": "info",
      "outputs": [
        {
          "internalType": "bytes32",
          "name": "",
          "type": "bytes32"
        }
      ],
      "stateMutability": "view",
      "type": "function"
    },
    {
      "inputs": [
        {
          "internalType": "string",
          "name": "name",
          "type": "string"
        },
        {
          "internalType": "string",
          "name": "symbol",
          "type": "string"
        },
        {
          "internalType": "uint256",
          "name": "supply",
          "type": "uint256"
        },
        {
          "internalType": "bool",
          "name": "_mintable",
          "type": "bool"
        },
        {
          "internalType": "address",
          "name": "parentWhitelist",
          "type": "address"
        },
        {
          "internalType": "address",
          "name": "tradedToken",
          "type": "address"
        },
        {
          "internalType": "address",
          "name": "_auction",
          "type": "address"
        }
      ],
      "name": "initialize",
      "outputs": [],
      "stateMutability": "nonpayable",
      "type": "function"
    },
    {
      "inputs": [
        {
          "internalType": "address",
          "name": "",
          "type": "address"
        }
      ],
      "name": "locked",
      "outputs": [
        {
          "internalType": "uint256",
          "name": "",
          "type": "uint256"
        }
      ],
      "stateMutability": "view",
      "type": "function"
    },
    {
      "inputs": [
        {
          "internalType": "address",
          "name": "to",
          "type": "address"
        },
        {
          "internalType": "uint256",
          "name": "amount",
          "type": "uint256"
        }
      ],
      "name": "mint",
      "outputs": [],
      "stateMutability": "nonpayable",
      "type": "function"
    },
    {
      "inputs": [],
      "name": "mintable",
      "outputs": [
        {
          "internalType": "bool",
          "name": "",
          "type": "bool"
        }
      ],
      "stateMutability": "view",
      "type": "function"
    },
    {
      "inputs": [],
      "name": "name",
      "outputs": [
        {
          "internalType": "string",
          "name": "",
          "type": "string"
        }
      ],
      "stateMutability": "view",
      "type": "function"
    },
    {
      "inputs": [
        {
          "internalType": "address",
          "name": "owner",
          "type": "address"
        }
      ],
      "name": "nonces",
      "outputs": [
        {
          "internalType": "uint256",
          "name": "",
          "type": "uint256"
        }
      ],
      "stateMutability": "view",
      "type": "function"
    },
    {
      "inputs": [
        {
          "internalType": "address",
          "name": "account",
          "type": "address"
        }
      ],
      "name": "numCheckpoints",
      "outputs": [
        {
          "internalType": "uint32",
          "name": "",
          "type": "uint32"
        }
      ],
      "stateMutability": "view",
      "type": "function"
    },
    {
      "inputs": [],
      "name": "owner",
      "outputs": [
        {
          "internalType": "address",
          "name": "",
          "type": "address"
        }
      ],
      "stateMutability": "view",
      "type": "function"
    },
    {
      "inputs": [],
      "name": "parentWhitelist",
      "outputs": [
        {
          "internalType": "address",
          "name": "",
          "type": "address"
        }
      ],
      "stateMutability": "view",
      "type": "function"
    },
    {
      "inputs": [],
      "name": "pause",
      "outputs": [],
      "stateMutability": "nonpayable",
      "type": "function"
    },
    {
      "inputs": [],
      "name": "paused",
      "outputs": [
        {
          "internalType": "bool",
          "name": "",
          "type": "bool"
        }
      ],
      "stateMutability": "view",
      "type": "function"
    },
    {
      "inputs": [
        {
          "internalType": "address",
          "name": "owner",
          "type": "address"
        },
        {
          "internalType": "address",
          "name": "spender",
          "type": "address"
        },
        {
          "internalType": "uint256",
          "name": "value",
          "type": "uint256"
        },
        {
          "internalType": "uint256",
          "name": "deadline",
          "type": "uint256"
        },
        {
          "internalType": "uint8",
          "name": "v",
          "type": "uint8"
        },
        {
          "internalType": "bytes32",
          "name": "r",
          "type": "bytes32"
        },
        {
          "internalType": "bytes32",
          "name": "s",
          "type": "bytes32"
        }
      ],
      "name": "permit",
      "outputs": [],
      "stateMutability": "nonpayable",
      "type": "function"
    },
    {
      "inputs": [
        {
          "internalType": "address",
          "name": "person",
          "type": "address"
        }
      ],
      "name": "remove",
      "outputs": [],
      "stateMutability": "nonpayable",
      "type": "function"
    },
    {
      "inputs": [
        {
          "internalType": "address",
          "name": "person",
          "type": "address"
        }
      ],
      "name": "removed",
      "outputs": [
        {
          "internalType": "bool",
          "name": "",
          "type": "bool"
        }
      ],
      "stateMutability": "view",
      "type": "function"
    },
    {
      "inputs": [],
      "name": "renounceOwnership",
      "outputs": [],
      "stateMutability": "nonpayable",
      "type": "function"
    },
    {
      "inputs": [
        {
          "internalType": "uint256",
          "name": "price",
          "type": "uint256"
        },
        {
          "internalType": "uint256",
          "name": "amount",
          "type": "uint256"
        }
      ],
      "name": "sell",
      "outputs": [
        {
          "internalType": "uint256",
          "name": "filled",
          "type": "uint256"
        },
        {
          "internalType": "uint256",
          "name": "id",
          "type": "uint256"
        }
      ],
      "stateMutability": "nonpayable",
      "type": "function"
    },
    {
      "inputs": [
        {
          "internalType": "address",
          "name": "whitelist",
          "type": "address"
        }
      ],
      "name": "setParentWhitelist",
      "outputs": [],
      "stateMutability": "nonpayable",
      "type": "function"
    },
    {
      "inputs": [
        {
          "internalType": "address",
          "name": "person",
          "type": "address"
        },
        {
          "internalType": "bytes32",
          "name": "dataHash",
          "type": "bytes32"
        }
      ],
      "name": "setWhitelisted",
      "outputs": [],
      "stateMutability": "nonpayable",
      "type": "function"
    },
    {
      "inputs": [
        {
          "internalType": "bytes4",
          "name": "",
          "type": "bytes4"
        }
      ],
      "name": "supportsInterface",
      "outputs": [
        {
          "internalType": "bool",
          "name": "",
          "type": "bool"
        }
      ],
      "stateMutability": "view",
      "type": "function"
    },
    {
      "inputs": [],
      "name": "symbol",
      "outputs": [
        {
          "internalType": "string",
          "name": "",
          "type": "string"
        }
      ],
      "stateMutability": "view",
      "type": "function"
    },
    {
      "inputs": [],
      "name": "totalSupply",
      "outputs": [
        {
          "internalType": "uint256",
          "name": "",
          "type": "uint256"
        }
      ],
      "stateMutability": "view",
      "type": "function"
    },
    {
      "inputs": [],
      "name": "tradeTokenBalance",
      "outputs": [
        {
          "internalType": "uint256",
          "name": "",
          "type": "uint256"
        }
      ],
      "stateMutability": "view",
      "type": "function"
    },
    {
      "inputs": [
        {
          "internalType": "address",
          "name": "",
          "type": "address"
        }
      ],
      "name": "tradeTokenBalances",
      "outputs": [
        {
          "internalType": "uint256",
          "name": "",
          "type": "uint256"
        }
      ],
      "stateMutability": "view",
      "type": "function"
    },
    {
      "inputs": [],
      "name": "tradedToken",
      "outputs": [
        {
          "internalType": "address",
          "name": "",
          "type": "address"
        }
      ],
      "stateMutability": "view",
      "type": "function"
    },
    {
      "inputs": [
        {
          "internalType": "address",
          "name": "to",
          "type": "address"
        },
        {
          "internalType": "uint256",
          "name": "amount",
          "type": "uint256"
        }
      ],
      "name": "transfer",
      "outputs": [
        {
          "internalType": "bool",
          "name": "",
          "type": "bool"
        }
      ],
      "stateMutability": "nonpayable",
      "type": "function"
    },
    {
      "inputs": [
        {
          "internalType": "address",
          "name": "from",
          "type": "address"
        },
        {
          "internalType": "address",
          "name": "to",
          "type": "address"
        },
        {
          "internalType": "uint256",
          "name": "amount",
          "type": "uint256"
        }
      ],
      "name": "transferFrom",
      "outputs": [
        {
          "internalType": "bool",
          "name": "",
          "type": "bool"
        }
      ],
      "stateMutability": "nonpayable",
      "type": "function"
    },
    {
      "inputs": [
        {
          "internalType": "address",
          "name": "newOwner",
          "type": "address"
        }
      ],
      "name": "transferOwnership",
      "outputs": [],
      "stateMutability": "nonpayable",
      "type": "function"
    },
    {
      "inputs": [],
      "name": "unpause",
      "outputs": [],
      "stateMutability": "nonpayable",
      "type": "function"
    },
    {
      "inputs": [],
      "name": "version",
      "outputs": [
        {
          "internalType": "uint256",
          "name": "",
          "type": "uint256"
        }
      ],
      "stateMutability": "view",
      "type": "function"
    },
    {
      "inputs": [
        {
          "internalType": "address",
          "name": "person",
          "type": "address"
        }
      ],
      "name": "whitelisted",
      "outputs": [
        {
          "internalType": "bool",
          "name": "",
          "type": "bool"
        }
      ],
      "stateMutability": "view",
      "type": "function"
    },
    {
      "inputs": [
        {
          "internalType": "address",
          "name": "trader",
          "type": "address"
        }
      ],
      "name": "withdrawDEXToken",
      "outputs": [],
      "stateMutability": "nonpayable",
      "type": "function"
    }
  ],
  "bytecode": "0x60806040523480156200001157600080fd5b5060408051808201909152600c81526b04672616272696345524332360a41b6020909101527fc12df178cac83b4125537d8f6ad8b6dc60dff39527bdc8aca0ec2a507968fee261019455600054610100900460ff16620000785760005460ff161562000082565b6200008262000127565b620000ea5760405162461bcd60e51b815260206004820152602e60248201527f496e697469616c697a61626c653a20636f6e747261637420697320616c72656160448201526d191e481a5b9a5d1a585b1a5e995960921b606482015260840160405180910390fd5b600054610100900460ff161580156200010d576000805461ffff19166101011790555b801562000120576000805461ff00191690555b5062000154565b60006200013f306200014560201b62001d1f1760201c565b15905090565b6001600160a01b03163b151590565b614b8f80620001646000396000f3fe608060405234801561001057600080fd5b50600436106103af5760003560e01c806375d0c0dc116101f4578063abf4c8c51161011a578063dd62ed3e116100ad578063fb9321081161007c578063fb932108146108e3578063fb9f6855146108f6578063fc76182914610900578063fe2c012c1461092457600080fd5b8063dd62ed3e14610847578063e1b7aef414610880578063f1127ed814610893578063f2fde38b146108d057600080fd5b8063d505accf116100e9578063d505accf146107fa578063d79875eb1461080d578063d936547e14610820578063db0b27fd1461083357600080fd5b8063abf4c8c514610787578063c3cda520146107b8578063c67a873f146107c6578063cbf9fe5f146107d957600080fd5b806395d89b4111610192578063a457c2d711610161578063a457c2d714610726578063a59ac6dd14610739578063a9059cbb14610761578063aad3ec961461077457600080fd5b806395d89b41146106ea5780639ab24eb0146106f2578063a05f990614610705578063a32eefaa1461071357600080fd5b80637ecebe00116101ce5780637ecebe00146106ab5780638456cb59146106be5780638da5cb5b146106c65780638e539e8c146106d757600080fd5b806375d0c0dc146106755780637a75703d1461067f5780637d9f6db51461069257600080fd5b80633f4ba83a116102d9578063587cde1e116102775780635c975abb116102465780635c975abb1461062a5780636fcfff451461063257806370a082311461065a578063715018a61461066d57600080fd5b8063587cde1e146105ac57806359ac4fde146105f15780635af1a616146106045780635c19a95c1461061757600080fd5b806342f674ff116102b357806342f674ff1461056e5780634bf365df14610581578063514fcac71461058f57806354fd4d50146105a257600080fd5b80633f4ba83a1461054057806340c10f191461054857806342966c681461055b57600080fd5b806323b872dd1161035157806336903ef51161032057806336903ef5146104cd57806339509351146104ee57806339df1052146105015780633a46b1a81461052d57600080fd5b806323b872dd1461049057806329092d0e146104a3578063313ce567146104b65780633644e515146104c557600080fd5b8063095ea7b31161038d578063095ea7b3146104315780630aae7a6b14610444578063155fc12d1461047357806318160ddd1461048857600080fd5b806301ffc9a7146103b457806306fdde03146103ed57806308e4111d14610402575b600080fd5b6103d86103c23660046143c9565b6101966020526000908152604090205460ff1681565b60405190151581526020015b60405180910390f35b6103f561093d565b6040516103e4919061441f565b6103d861041036600461446e565b6101fd60209081526000928352604080842090915290825290205460ff1681565b6103d861043f36600461446e565b6109cf565b610465610452366004614498565b6102636020526000908152604090205481565b6040519081526020016103e4565b610486610481366004614564565b6109e9565b005b609954610465565b6103d861049e366004614616565b610c32565b6104866104b1366004614498565b610c58565b604051601281526020016103e4565b610465610ccb565b6104656104db366004614498565b6102cb6020526000908152604090205481565b6103d86104fc36600461446e565b610cd5565b6103d861050f366004614498565b6001600160a01b031660009081526102636020526040902054151590565b61046561053b36600461446e565b610d14565b610486610d88565b61048661055636600461446e565b610dbc565b610486610569366004614652565b610e4e565b6103d861057c366004614498565b610e5b565b610332546103d89060ff1681565b61048661059d366004614652565b610e7d565b6104656101955481565b6105d96105ba366004614498565b6001600160a01b03908116600090815261013060205260409020541690565b6040516001600160a01b0390911681526020016103e4565b6104866105ff366004614498565b61117d565b610465610612366004614652565b6111b0565b610486610625366004614498565b6111c8565b6103d86111e1565b610645610640366004614498565b6111ef565b60405163ffffffff90911681526020016103e4565b610465610668366004614498565b611212565b610486611230565b6104656101945481565b61048661068d366004614498565b611264565b610332546105d99061010090046001600160a01b031681565b6104656106b9366004614498565b611368565b610486611386565b6033546001600160a01b03166105d9565b6104656106e5366004614652565b6113b8565b6103f5611415565b610465610700366004614498565b611424565b610262546103d89060ff1681565b61048661072136600461446e565b6114ad565b6103d861073436600461446e565b611519565b61074c61074736600461466b565b6115b6565b604080519283526020830191909152016103e4565b6103d861076f36600461446e565b611757565b61048661078236600461446e565b611765565b6107ab610795366004614652565b60009081526102cd602052604090205460ff1690565b6040516103e491906146b4565b6104866106253660046146ed565b6105d96107d4366004614745565b6118bc565b6104656107e7366004614498565b6102cc6020526000908152604090205481565b610486610808366004614767565b611901565b61074c61081b366004614745565b611a47565b6103d861082e366004614498565b611b54565b6102c9546105d9906001600160a01b031681565b6104656108553660046147d1565b6001600160a01b03918216600090815260986020908152604080832093909416825291909152205490565b61046561088e366004614745565b611b76565b6108a66108a1366004614804565b611bf7565b60408051825163ffffffff1681526020928301516001600160e01b031692810192909252016103e4565b6104866108de366004614498565b611c7c565b6104866108f136600461446e565b611d14565b6104656102ca5481565b61046561090e366004614652565b60009081526102cd602052604090206001015490565b610262546105d99061010090046001600160a01b031681565b6060609a805461094c90614844565b80601f016020809104026020016040519081016040528092919081815260200182805461097890614844565b80156109c55780601f1061099a576101008083540402835291602001916109c5565b820191906000526020600020905b8154815290600101906020018083116109a857829003601f168201915b5050505050905090565b6000336109dd818585611d2e565b60019150505b92915050565b600054610100900460ff16610a045760005460ff1615610a08565b303b155b610a705760405162461bcd60e51b815260206004820152602e60248201527f496e697469616c697a61626c653a20636f6e747261637420697320616c72656160448201526d191e481a5b9a5d1a585b1a5e995960921b60648201526084015b60405180910390fd5b600054610100900460ff16158015610a92576000805461ffff19166101011790555b610a9a611e53565b610aa2611e82565b610aac8888611eb1565b610ab584611f94565b610abe8361203a565b610aed6040518060400160405280600c81526020016b04672616272696345524332360a41b81525060006120f8565b6101966020527f7fab4da3394ef3a9b90faab4a0b2e0fb96a05e2166da64f3431c30dc8367b5638054600160ff1991821681179092557f63013a7eb49b1c1c9222bb6314c4a0da52ef74d76db9daa731e48cd592ca337b8054821683179055623adfb960e01b6000527f4c07f67a83df89cf2653c9d1d1a22242a1fc2967bce8f3c3c7e3fff2af6725e180549091169091179055610bab337f341bedc12ae2713bfe9ae5263e0f5efd8e94a1ef8d9af4dbaf63d5142b66e2d96121b2565b6001600160701b03861115610bd6576040516313de7c9b60e01b815260048101879052602401610a67565b610be0338761227e565b61033280546001600160a81b031916861515610100600160a81b031916176101006001600160a01b038516021760ff60a81b191690558015610c28576000805461ff00191690555b5050505050505050565b600033610c4085828561230f565b610c4b85858561239b565b60019150505b9392505050565b6002610162541415610c7c5760405162461bcd60e51b8152600401610a6790614879565b600261016255610c8b81611b54565b15610cb45760405163555bcaa760e11b81526001600160a01b0382166004820152602401610a67565b610cbd816123ab565b50600161016255565b905090565b6000610cc6612581565b3360008181526098602090815260408083206001600160a01b03871684529091528120549091906109dd9082908690610d0f9087906148c6565b611d2e565b6000438210610d655760405162461bcd60e51b815260206004820152601f60248201527f4552433230566f7465733a20626c6f636b206e6f7420796574206d696e6564006044820152606401610a67565b6001600160a01b038316600090815261013160205260409020610c5190836125fc565b6033546001600160a01b03163314610db25760405162461bcd60e51b8152600401610a67906148de565b610dba6126b9565b565b6033546001600160a01b03163314610de65760405162461bcd60e51b8152600401610a67906148de565b6103325460ff16610e0a57604051630952c8a960e11b815260040160405180910390fd5b610e14828261227e565b6001600160701b03610e2560995490565b1115610e4a576099546040516313de7c9b60e01b8152600401610a6791815260200190565b5050565b610e58338261274e565b50565b6001600160a01b0381166000908152610264602052604081205460ff166109e3565b6002610162541415610ea15760405162461bcd60e51b8152600401610a6790614879565b60026101625560008181526102cd60205260408120905b6001820154811015611157576000826001018281548110610edb57610edb614913565b600091825260209091206002909102018054909150610f02906001600160a01b0316611b54565b610f1a578054610f1a906001600160a01b03166123ab565b80546001600160a01b0316331480610f4157508054610f41906001600160a01b0316610e5b565b15611144576001835460ff166002811115610f5e57610f5e61469e565b1415610fa8576001810154610f739085614929565b81546001600160a01b031660009081526102cb602052604081208054909190610f9d9084906148c6565b909155506110209050565b6002835460ff166002811115610fc057610fc061469e565b148015610fde57508054610fdc906001600160a01b0316610e5b565b155b1561102057610ff081600101546111b0565b81546001600160a01b031660009081526102cc60205260408120805490919061101a908490614948565b90915550505b8054600182015460405190815285916001600160a01b0316907f2c80dfd9442a45c0e9ecf320911e124740b5fe6558e950ea7743e66c65fc3acf9060200160405180910390a36001838101546110769190614948565b82146110fa5760018084018054909161108e91614948565b8154811061109e5761109e614913565b90600052602060002090600202018360010183815481106110c1576110c1614913565b60009182526020909120825460029092020180546001600160a01b0319166001600160a01b039092169190911781556001918201549101555b8260010180548061110d5761110d61495f565b60008281526020812060026000199093019283020180546001600160a01b03191681556001015590558161114081614975565b9250505b508061114f8161498c565b915050610eb8565b50600181015461116a57805460ff191681555b61117333611264565b5050600161016255565b6033546001600160a01b031633146111a75760405162461bcd60e51b8152600401610a67906148de565b610e5881612767565b60006111be6012600a614a8b565b6109e39083614929565b604051636c7a9e7560e01b815260040160405180910390fd5b6000610cc660655460ff1690565b6001600160a01b038116600090815261013160205260408120546109e390612842565b6001600160a01b0381166000908152609760205260408120546109e3565b6033546001600160a01b0316331461125a5760405162461bcd60e51b8152600401610a67906148de565b610dba60006128ab565b60026101625414156112885760405162461bcd60e51b8152600401610a6790614879565b6002610162556001600160a01b03811660009081526102cb6020526040902054806112b35750610cbd565b6001600160a01b0380831660009081526102cb60205260408120556102c9546112de911683836128fd565b6102c9546040516370a0823160e01b81523060048201526001600160a01b03909116906370a082319060240160206040518083038186803b15801561132257600080fd5b505afa158015611336573d6000803e3d6000fd5b505050506040513d601f19601f8201168201806040525081019061135a9190614a9a565b6102ca555050600161016255565b6001600160a01b038116600090815260fd60205260408120546109e3565b6033546001600160a01b031633146113b05760405162461bcd60e51b8152600401610a67906148de565b610dba612960565b60004382106114095760405162461bcd60e51b815260206004820152601f60248201527f4552433230566f7465733a20626c6f636b206e6f7420796574206d696e6564006044820152606401610a67565b6109e3610132836125fc565b6060609b805461094c90614844565b6001600160a01b03811660009081526101316020526040812054801561149a576001600160a01b038316600090815261013160205260409020611468600183614948565b8154811061147857611478614913565b60009182526020909120015464010000000090046001600160e01b031661149d565b60005b6001600160e01b03169392505050565b6033546001600160a01b031633146114d75760405162461bcd60e51b8152600401610a67906148de565b60026101625414156114fb5760405162461bcd60e51b8152600401610a6790614879565b60026101625561150b82826121b2565b8061117357611173826123ab565b3360008181526098602090815260408083206001600160a01b03871684529091528120549091908381101561159e5760405162461bcd60e51b815260206004820152602560248201527f45524332303a2064656372656173656420616c6c6f77616e63652062656c6f77604482015264207a65726f60d81b6064820152608401610a67565b6115ab8286868403611d2e565b506001949350505050565b60008060026101625414156115dd5760405162461bcd60e51b8152600401610a6790614879565b6002610162556115ec85611b54565b61161457604051636f8bf18b60e11b81526001600160a01b0386166004820152602401610a67565b6102c9546040516370a0823160e01b81523060048201526000916001600160a01b0316906370a082319060240160206040518083038186803b15801561165957600080fd5b505afa15801561166d573d6000803e3d6000fd5b505050506040513d601f19601f820116820180604052508101906116919190614a9a565b905060006102ca54826116a49190614948565b6102ca839055905060006116b88783614ab3565b9050858110156116e5576040516338b9e03d60e21b81526004810182905260248101879052604401610a67565b60006116f18289614929565b6116fb9084614948565b90508015611732576001600160a01b03891660009081526102cb60205260408120805483929061172c9084906148c6565b90915550505b611741600160028b8b866129dd565b600161016255909a909950975050505050505050565b6000336109dd81858561239b565b6001600160a01b03821660009081526101fd6020908152604080832084845290915290205460ff16156117ae5760405163598b3dfd60e11b815260048101829052602401610a67565b6001600160a01b03821660009081526101fd602090815260408083208484528252808320805460ff191660011790556101fc909152812080549091906118059067ffffffffffffffff600160a01b909104166113b8565b8254611823908690600160a01b900467ffffffffffffffff16610d14565b83600101546118329190614929565b61183c9190614ab3565b90508061185c57604051631f2a200560e01b815260040160405180910390fd5b8154611872906001600160a01b031685836128fd565b836001600160a01b0316837f4ec90e965519d92681267467f775ada5bd214aa92c0dc93d90a5e880ce9ed026836040516118ae91815260200190565b60405180910390a350505050565b60008281526102cd602052604081206001018054839081106118e0576118e0614913565b60009182526020909120600290910201546001600160a01b03169392505050565b834211156119515760405162461bcd60e51b815260206004820152601d60248201527f45524332305065726d69743a206578706972656420646561646c696e650000006044820152606401610a67565b600060fe548888886119628c612bb5565b6040805160208101969096526001600160a01b0394851690860152929091166060840152608083015260a082015260c0810186905260e00160405160208183030381529060405280519060200120905060006119bd82612bdd565b905060006119cd82878787612c2b565b9050896001600160a01b0316816001600160a01b031614611a305760405162461bcd60e51b815260206004820152601e60248201527f45524332305065726d69743a20696e76616c6964207369676e617475726500006044820152606401610a67565b611a3b8a8a8a611d2e565b50505050505050505050565b6000806002610162541415611a6e5760405162461bcd60e51b8152600401610a6790614879565b600261016255611a7d33611b54565b611a9c57604051636f8bf18b60e11b8152336004820152602401610a67565b611aa5836111b0565b3360009081526102cc602052604081208054909190611ac59084906148c6565b90915550503360008181526102cc602052604090205490611ae590611212565b1015611b28573360008181526102cc602052604090205490611b0690611212565b6040516311920a6d60e31b815260048101929092526024820152604401610a67565b611b37600260013387876129dd565b9092509050611b4533611264565b60016101625590939092509050565b6000611b5f82612c53565b80156109e35750611b6f82610e5b565b1592915050565b60008281526102cd60205260408120600101805482919084908110611b9d57611b9d614913565b60009182526020918290206040805180820190915260029092020180546001600160a01b0316808352600190910154928201929092529150611bde90611b54565b611bec5760009150506109e3565b602001519392505050565b60408051808201909152600080825260208201526001600160a01b038316600090815261013160205260409020805463ffffffff8416908110611c3c57611c3c614913565b60009182526020918290206040805180820190915291015463ffffffff8116825264010000000090046001600160e01b0316918101919091529392505050565b6033546001600160a01b03163314611ca65760405162461bcd60e51b8152600401610a67906148de565b6001600160a01b038116611d0b5760405162461bcd60e51b815260206004820152602660248201527f4f776e61626c653a206e6577206f776e657220697320746865207a65726f206160448201526564647265737360d01b6064820152608401610a67565b610e58816128ab565b610e4a338383612d28565b6001600160a01b03163b151590565b6001600160a01b038316611d905760405162461bcd60e51b8152602060048201526024808201527f45524332303a20617070726f76652066726f6d20746865207a65726f206164646044820152637265737360e01b6064820152608401610a67565b6001600160a01b038216611df15760405162461bcd60e51b815260206004820152602260248201527f45524332303a20617070726f766520746f20746865207a65726f206164647265604482015261737360f01b6064820152608401610a67565b6001600160a01b0383811660008181526098602090815260408083209487168084529482529182902085905590518481527f8c5be1e5ebec7d5bd14f71427d1e84f3dd0314c0f7b2291e5b200ac8c7c3b92591015b60405180910390a3505050565b600054610100900460ff16611e7a5760405162461bcd60e51b8152600401610a6790614ad5565b610dba612e31565b600054610100900460ff16611ea95760405162461bcd60e51b8152600401610a6790614ad5565b610dba612e61565b611ebb8282612e94565b611ec482612ec5565b611ecc612f18565b50506101966020527f9f227d6116d3addc20a74ac78798850effb5dccc9056ad3e7deece630e649cc68054600160ff1991821681179092557f28efed27e19e61d521f4f06e49c147d219ffcb1b02b0c7174f43863a89e3424380548216831790557f2cceaab2d4dbb687b77520c21e95a6cb26756b95513e5eb09aa70b5876c034d580548216831790556359a4dc8360e01b60009081527f3da2a674547ac9d8d8b9be1180cc36127b0608a798216056e408cb3b355238ac805490921690921790556101fb55565b600054610100900460ff16611fbb5760405162461bcd60e51b8152600401610a6790614ad5565b6101966020527fb1b29106fa71983b05e3d6504e496a9ac32c1baac81ad1669774c0b26f082ed48054600160ff199182168117909255630bfd21bb60e21b6000527f3238c764b904b7c37cde44e5e78aedfadf33739ac7cac83832691b5ac822d7d98054821690921790915561026280549091169055610e5881612767565b600054610100900460ff166120615760405162461bcd60e51b8152600401610a6790614ad5565b612069612f3f565b6101966020527f65eede2c583775896bd3046b4b460bed6c5454909692d5e0630270ca4740e2808054600160ff19918216811790925563152adce760e31b6000527f19a19a0718204415b2b1ddfe2084b4a11664ab6df9b162b57bfd779424edf06e805490911690911790556102c980546001600160a01b0319166001600160a01b0392909216919091179055565b600054610100900460ff1661211f5760405162461bcd60e51b8152600401610a6790614ad5565b81516020830120610194558061213a57600161019555612142565b600019610195555b50506101966020527ffbc0f777dbc3e464582f3e0b6a0f6ee35d2bcb7e2260bfb440f56457496ba77c8054600160ff19918216811790925563084b636360e21b6000527f15f95c2021696a14a060be0579b50a8a27a3532ec828dbd3e4623fe52289f0e680549091169091179055565b6001600160a01b038216600090815261026360205260409020548114156121d7575050565b6001600160a01b0382166000908152610264602052604090205460ff161561221d5760405163066a905b60e01b81526001600160a01b0383166004820152602401610a67565b6001600160a01b03821660008181526102636020526040808220549051849391927fd7e140cf02f08f41af82f4c7bdd815be5babca19d16e9a3acee147f66cc883c891a46001600160a01b0390911660009081526102636020526040902055565b6122888282612f6e565b6099546001600160e01b0310156122fa5760405162461bcd60e51b815260206004820152603060248201527f4552433230566f7465733a20746f74616c20737570706c79207269736b73206f60448201526f766572666c6f77696e6720766f74657360801b6064820152608401610a67565b6123096101326130618361306d565b50505050565b6001600160a01b038381166000908152609860209081526040808320938616835292905220546000198114612309578181101561238e5760405162461bcd60e51b815260206004820152601d60248201527f45524332303a20696e73756666696369656e7420616c6c6f77616e63650000006044820152606401610a67565b6123098484848403611d2e565b6123a68383836131e6565b505050565b6123b481610e5b565b156123bc5750565b6123e5816001600160a01b0316600090815261026460205260409020805460ff19166001179055565b6001600160a01b03811660009081526102cc6020526040812081905561240a82611212565b90508015610e4a57600460006124208284614ab3565b90508061242c57600191505b610332805460ff60a81b1916600160a81b17905560005b8281101561256c57612456600184614948565b81141561247f57806124688486614ab3565b6124729190614929565b61247c9085614948565b91505b6103325461249d90869061010090046001600160a01b03168461239b565b610332546102c9546001600160a01b03610100909204821691637a4703d391309116886124cd8662093a80614929565b6124d790426148c6565b6040516001600160e01b031960e087901b1681526001600160a01b03948516600482015292841660248401529216604482015267ffffffffffffffff909116606482015262093a80608482015260a401600060405180830381600087803b15801561254157600080fd5b505af1158015612555573d6000803e3d6000fd5b5050505080806125649061498c565b915050612443565b5050610332805460ff60a81b19169055505050565b6000610cc67f8b73c3c69bb8fe3d512ecc4cf759cc79239f7b179b0ffacaa9a75d522b39400f6125b060c95490565b60ca546040805160208101859052908101839052606081018290524660808201523060a082015260009060c0016040516020818303038152906040528051906020012090509392505050565b8154600090815b8181101561266057600061261782846133c5565b90508486828154811061262c5761262c614913565b60009182526020909120015463ffffffff16111561264c5780925061265a565b6126578160016148c6565b91505b50612603565b81156126a45784612672600184614948565b8154811061268257612682614913565b60009182526020909120015464010000000090046001600160e01b03166126a7565b60005b6001600160e01b031695945050505050565b6126c16111e1565b6127045760405162461bcd60e51b815260206004820152601460248201527314185d5cd8589b194e881b9bdd081c185d5cd95960621b6044820152606401610a67565b6065805460ff191690557f5db9ee0a495bf2e6ff9c91a7834c1ba4fdd244a5e8aa4e537bd38aeae4b073aa335b6040516001600160a01b03909116815260200160405180910390a1565b61275882826133e0565b6123096101326135418361306d565b6001600160a01b0381161580159061279657506127946001600160a01b038216636c9b2a3f60e11b61354d565b155b156127cc57604051634502d26360e11b81526001600160a01b0382166004820152636c9b2a3f60e11b6024820152604401610a67565b61026254604080516001600160a01b036101009093048316815291831660208301527f965f8846be8fc82874c4c35f4aa3503cfc7de77a3c71c99b6dfb19e47aece6e5910160405180910390a161026280546001600160a01b0390921661010002610100600160a81b0319909216919091179055565b600063ffffffff8211156128a75760405162461bcd60e51b815260206004820152602660248201527f53616665436173743a2076616c756520646f65736e27742066697420696e203360448201526532206269747360d01b6064820152608401610a67565b5090565b603380546001600160a01b038381166001600160a01b0319831681179093556040519116919082907f8be0079c531659141344cd1fd0a4f28419497f9722a3daafe3b4186f6b6457e090600090a35050565b6040516001600160a01b0383166024820152604481018290526123a690849063a9059cbb60e01b906064015b60408051601f198184030181529190526020810180516001600160e01b03166001600160e01b031990931692909217909152613569565b6129686111e1565b156129a85760405162461bcd60e51b815260206004820152601060248201526f14185d5cd8589b194e881c185d5cd95960821b6044820152606401610a67565b6065805460ff191660011790557f62e78cea01bee320cd4e420270b5ea74000d11b0c9f74754ebdbfc544b05a2586127313390565b600080836129fe57604051634dfba02360e01b815260040160405180910390fd5b82612a1c57604051631f2a200560e01b815260040160405180910390fd5b60008481526102cd60205260409020866002811115612a3d57612a3d61469e565b815460ff166002811115612a5357612a5361469e565b1415612a8657612a658686868461363b565b925083831415612a79575060009050612bab565b612a838385614948565b93505b6000815460ff166002811115612a9e57612a9e61469e565b1415612b045780548890829060ff19166001836002811115612ac257612ac261469e565b021790555084886002811115612ada57612ada61469e565b6040517f5debb23d25c6d7fcf756bae851cc7a48204c0108079d493ec1ac5cae454fda4f90600090a35b6040805180820182526001600160a01b0388811680835260208084018981526001878101805480830182556000918252908490209651600290910290960180546001600160a01b0319169690951695909517845551929093019190915591518681528792917f898045736b8205857e8bd86d0d9388975e00d1852e8fd40267106baa55b72ecd910160405180910390a36001818101548491612ba591614948565b92509250505b9550959350505050565b6001600160a01b038116600090815260fd602052604090208054600181018255905b50919050565b60006109e3612bea612581565b8360405161190160f01b6020820152602281018390526042810182905260009060620160405160208183030381529060405280519060200120905092915050565b6000806000612c3c878787876139b6565b91509150612c4981613aa3565b5095945050505050565b6102625460009061010090046001600160a01b031615801590612cf5575061026254604051636c9b2a3f60e11b81526001600160a01b0384811660048301526101009092049091169063d936547e9060240160206040518083038186803b158015612cbd57600080fd5b505afa158015612cd1573d6000803e3d6000fd5b505050506040513d601f19601f82011682018060405250810190612cf59190614b20565b80612d0357506102625460ff165b806109e35750506001600160a01b031660009081526102636020526040902054151590565b80612d4657604051631f2a200560e01b815260040160405180910390fd5b6001600160a01b0383163014612d6b57612d6b6001600160a01b038316843084613c5e565b604080516060810182526001600160a01b03808516825267ffffffffffffffff43811660208085019182528486018781526101fb805460009081526101fc909352968220955186549351909416600160a01b026001600160e01b03199093169390941692909217178355905160019092019190915581549190612ded8361498c565b9190505550816001600160a01b03166101fb547fa7932e9c92f31e1ed56b29d00bbe669a97484dc24de28dd9c8c0429df7f3584783604051611e4691815260200190565b600054610100900460ff16612e585760405162461bcd60e51b8152600401610a6790614ad5565b610dba336128ab565b600054610100900460ff16612e885760405162461bcd60e51b8152600401610a6790614ad5565b6065805460ff19169055565b600054610100900460ff16612ebb5760405162461bcd60e51b8152600401610a6790614ad5565b610e4a8282613c96565b600054610100900460ff16612eec5760405162461bcd60e51b8152600401610a6790614ad5565b612f0f81604051806040016040528060018152602001603160f81b815250613ce4565b610e5881613d25565b600054610100900460ff16610dba5760405162461bcd60e51b8152600401610a6790614ad5565b600054610100900460ff16612f665760405162461bcd60e51b8152600401610a6790614ad5565b610dba613d73565b6001600160a01b038216612fc45760405162461bcd60e51b815260206004820152601f60248201527f45524332303a206d696e7420746f20746865207a65726f2061646472657373006044820152606401610a67565b612fd060008383613da2565b8060996000828254612fe291906148c6565b90915550506001600160a01b0382166000908152609760205260408120805483929061300f9084906148c6565b90915550506040518181526001600160a01b038316906000907fddf252ad1be2c89b69c2b068fc378daa952ba7f163c4a11628f55a4df523b3ef9060200160405180910390a3610e4a60008383613e52565b6000610c5182846148c6565b8254600090819080156130b85785613086600183614948565b8154811061309657613096614913565b60009182526020909120015464010000000090046001600160e01b03166130bb565b60005b6001600160e01b031692506130d483858763ffffffff16565b9150600081118015613112575043866130ee600184614948565b815481106130fe576130fe614913565b60009182526020909120015463ffffffff16145b156131725761312082613ecc565b8661312c600184614948565b8154811061313c5761313c614913565b9060005260206000200160000160046101000a8154816001600160e01b0302191690836001600160e01b031602179055506131dd565b85604051806040016040528061318743612842565b63ffffffff16815260200161319b85613ecc565b6001600160e01b0390811690915282546001810184556000938452602093849020835194909301519091166401000000000263ffffffff909316929092179101555b50935093915050565b6001600160a01b03831661324a5760405162461bcd60e51b815260206004820152602560248201527f45524332303a207472616e736665722066726f6d20746865207a65726f206164604482015264647265737360d81b6064820152608401610a67565b6001600160a01b0382166132ac5760405162461bcd60e51b815260206004820152602360248201527f45524332303a207472616e7366657220746f20746865207a65726f206164647260448201526265737360e81b6064820152608401610a67565b6132b7838383613da2565b6001600160a01b0383166000908152609760205260409020548181101561332f5760405162461bcd60e51b815260206004820152602660248201527f45524332303a207472616e7366657220616d6f756e7420657863656564732062604482015265616c616e636560d01b6064820152608401610a67565b6001600160a01b038085166000908152609760205260408082208585039055918516815290812080548492906133669084906148c6565b92505081905550826001600160a01b0316846001600160a01b03167fddf252ad1be2c89b69c2b068fc378daa952ba7f163c4a11628f55a4df523b3ef846040516133b291815260200190565b60405180910390a3612309848484613e52565b60006133d46002848418614ab3565b610c51908484166148c6565b6001600160a01b0382166134405760405162461bcd60e51b815260206004820152602160248201527f45524332303a206275726e2066726f6d20746865207a65726f206164647265736044820152607360f81b6064820152608401610a67565b61344c82600083613da2565b6001600160a01b038216600090815260976020526040902054818110156134c05760405162461bcd60e51b815260206004820152602260248201527f45524332303a206275726e20616d6f756e7420657863656564732062616c616e604482015261636560f01b6064820152608401610a67565b6001600160a01b03831660009081526097602052604081208383039055609980548492906134ef908490614948565b90915550506040518281526000906001600160a01b038516907fddf252ad1be2c89b69c2b068fc378daa952ba7f163c4a11628f55a4df523b3ef9060200160405180910390a36123a683600084613e52565b6000610c518284614948565b600061355883613f35565b8015610c515750610c518383613f5d565b60006135be826040518060400160405280602081526020017f5361666545524332303a206c6f772d6c6576656c2063616c6c206661696c6564815250856001600160a01b03166140469092919063ffffffff16565b8051909150156123a657808060200190518101906135dc9190614b20565b6123a65760405162461bcd60e51b815260206004820152602a60248201527f5361666545524332303a204552433230206f7065726174696f6e20646964206e6044820152691bdd081cdd58d8d9595960b21b6064820152608401610a67565b6000806002835460ff1660028111156136565761365661469e565b149050600080600185600101805490506136709190614948565b90505b851561395b57600085600101828154811061369057613690614913565b906000526020600020906002020190505b80546136b5906001600160a01b0316611b54565b61378e5780546136cd906001600160a01b03166123ab565b836137115760018101546136e19089614929565b81546001600160a01b031660009081526102cb60205260408120805490919061370b9084906148c6565b90915550505b856001018054806137245761372461495f565b60008281526020812060026000199093019283020180546001600160a01b0319168155600101559055816137575761378e565b8161376181614975565b92505085600101828154811061377957613779614913565b906000526020600020906002020190506136a1565b60018101548781111561379e5750865b808260010160008282546137b29190614948565b909155506137c2905081856148c6565b93506137ce8189614948565b82546040518281529199508a916001600160a01b03918216918d16907f0e73d66eb539d2a1bcadcefe4e170d80aaa7542a32d9d117a94053f7b9a4866e9060200160405180910390a46000613822826111b0565b905085156138ad57613834828b614929565b83546001600160a01b031660009081526102cb60205260408120805490919061385e9084906148c6565b909155505082546001600160a01b031660009081526102cc60205260408120805483929061388d908490614948565b909155505082546138a8906001600160a01b03168c8361239b565b6138f2565b6001600160a01b038b1660009081526102cc6020526040812080548392906138d6908490614948565b909155505082546138f2908c906001600160a01b03168361239b565b6001830154613938578760010180548061390e5761390e61495f565b60008281526020812060026000199093019283020180546001600160a01b03191681556001015590555b836139455750505061395b565b505050808061395390614975565b915050613673565b826139995761396a8783614929565b6001600160a01b03891660009081526102cb6020526040812080549091906139939084906148c6565b90915550505b60018501546139ab57845460ff191685555b509695505050505050565b6000807f7fffffffffffffffffffffffffffffff5d576e7357a4501ddfe92f46681b20a08311156139ed5750600090506003613a9a565b8460ff16601b14158015613a0557508460ff16601c14155b15613a165750600090506004613a9a565b6040805160008082526020820180845289905260ff881692820192909252606081018690526080810185905260019060a0016020604051602081039080840390855afa158015613a6a573d6000803e3d6000fd5b5050604051601f1901519150506001600160a01b038116613a9357600060019250925050613a9a565b9150600090505b94509492505050565b6000816004811115613ab757613ab761469e565b1415613ac05750565b6001816004811115613ad457613ad461469e565b1415613b225760405162461bcd60e51b815260206004820152601860248201527f45434453413a20696e76616c6964207369676e617475726500000000000000006044820152606401610a67565b6002816004811115613b3657613b3661469e565b1415613b845760405162461bcd60e51b815260206004820152601f60248201527f45434453413a20696e76616c6964207369676e6174757265206c656e677468006044820152606401610a67565b6003816004811115613b9857613b9861469e565b1415613bf15760405162461bcd60e51b815260206004820152602260248201527f45434453413a20696e76616c6964207369676e6174757265202773272076616c604482015261756560f01b6064820152608401610a67565b6004816004811115613c0557613c0561469e565b1415610e585760405162461bcd60e51b815260206004820152602260248201527f45434453413a20696e76616c6964207369676e6174757265202776272076616c604482015261756560f01b6064820152608401610a67565b6040516001600160a01b03808516602483015283166044820152606481018290526123099085906323b872dd60e01b90608401612929565b600054610100900460ff16613cbd5760405162461bcd60e51b8152600401610a6790614ad5565b8151613cd090609a906020850190614339565b5080516123a690609b906020840190614339565b600054610100900460ff16613d0b5760405162461bcd60e51b8152600401610a6790614ad5565b81516020928301208151919092012060c99190915560ca55565b600054610100900460ff16613d4c5760405162461bcd60e51b8152600401610a6790614ad5565b507f6e71edae12b1b97f4d1f60370fef10105fa2faae0126114a169c64845d6126c960fe55565b600054610100900460ff16613d9a5760405162461bcd60e51b8152600401610a6790614ad5565b600161016255565b61033254600160a81b900460ff16613e2c57613dbd83611b54565b158015613dd257506001600160a01b03831615155b15613dfb57604051636f8bf18b60e11b81526001600160a01b0384166004820152602401610a67565b613e0482611b54565b613e2c57604051636f8bf18b60e11b81526001600160a01b0383166004820152602401610a67565b613e346111e1565b156123a65760405163840a48d560e01b815260040160405180910390fd5b613e5d83838361405d565b6001600160a01b03831660009081526102cc6020526040902054613e8084611212565b10156123a657613e8f83611212565b6001600160a01b03841660009081526102cc602052604090819020549051631a4939a560e21b815260048101929092526024820152604401610a67565b60006001600160e01b038211156128a75760405162461bcd60e51b815260206004820152602760248201527f53616665436173743a2076616c756520646f65736e27742066697420696e20326044820152663234206269747360c81b6064820152608401610a67565b6000613f48826301ffc9a760e01b613f5d565b80156109e35750611b6f826001600160e01b03195b604080516001600160e01b0319831660248083019190915282518083039091018152604490910182526020810180516001600160e01b03166301ffc9a760e01b179052905160009190829081906001600160a01b0387169061753090613fc4908690614b3d565b6000604051808303818686fa925050503d8060008114614000576040519150601f19603f3d011682016040523d82523d6000602084013e614005565b606091505b509150915060208151101561402057600093505050506109e3565b81801561403c57508080602001905181019061403c9190614b20565b9695505050505050565b60606140558484600085614090565b949350505050565b6001600160a01b03838116600090815261013060205260408082205485841683529120546123a6929182169116836141c1565b6060824710156140f15760405162461bcd60e51b815260206004820152602660248201527f416464726573733a20696e73756666696369656e742062616c616e636520666f6044820152651c8818d85b1b60d21b6064820152608401610a67565b6001600160a01b0385163b6141485760405162461bcd60e51b815260206004820152601d60248201527f416464726573733a2063616c6c20746f206e6f6e2d636f6e74726163740000006044820152606401610a67565b600080866001600160a01b031685876040516141649190614b3d565b60006040518083038185875af1925050503d80600081146141a1576040519150601f19603f3d011682016040523d82523d6000602084013e6141a6565b606091505b50915091506141b6828286614300565b979650505050505050565b816001600160a01b0316836001600160a01b0316141580156141e35750600081115b156123a6576001600160a01b03831615614272576001600160a01b038316600090815261013160205260408120819061421f906135418561306d565b91509150846001600160a01b03167fdec2bacdd2f05b59de34da9b523dff8be42e5e38e818c82fdb0bae774387a7248383604051614267929190918252602082015260400190565b60405180910390a250505b6001600160a01b038216156123a6576001600160a01b03821660009081526101316020526040812081906142a9906130618561306d565b91509150836001600160a01b03167fdec2bacdd2f05b59de34da9b523dff8be42e5e38e818c82fdb0bae774387a72483836040516142f1929190918252602082015260400190565b60405180910390a25050505050565b6060831561430f575081610c51565b82511561431f5782518084602001fd5b8160405162461bcd60e51b8152600401610a67919061441f565b82805461434590614844565b90600052602060002090601f01602090048101928261436757600085556143ad565b82601f1061438057805160ff19168380011785556143ad565b828001600101855582156143ad579182015b828111156143ad578251825591602001919060010190614392565b506128a79291505b808211156128a757600081556001016143b5565b6000602082840312156143db57600080fd5b81356001600160e01b031981168114610c5157600080fd5b60005b8381101561440e5781810151838201526020016143f6565b838111156123095750506000910152565b602081526000825180602084015261443e8160408501602087016143f3565b601f01601f19169190910160400192915050565b80356001600160a01b038116811461446957600080fd5b919050565b6000806040838503121561448157600080fd5b61448a83614452565b946020939093013593505050565b6000602082840312156144aa57600080fd5b610c5182614452565b634e487b7160e01b600052604160045260246000fd5b600082601f8301126144da57600080fd5b813567ffffffffffffffff808211156144f5576144f56144b3565b604051601f8301601f19908116603f0116810190828211818310171561451d5761451d6144b3565b8160405283815286602085880101111561453657600080fd5b836020870160208301376000602085830101528094505050505092915050565b8015158114610e5857600080fd5b600080600080600080600060e0888a03121561457f57600080fd5b873567ffffffffffffffff8082111561459757600080fd5b6145a38b838c016144c9565b985060208a01359150808211156145b957600080fd5b506145c68a828b016144c9565b9650506040880135945060608801356145de81614556565b93506145ec60808901614452565b92506145fa60a08901614452565b915061460860c08901614452565b905092959891949750929550565b60008060006060848603121561462b57600080fd5b61463484614452565b925061464260208501614452565b9150604084013590509250925092565b60006020828403121561466457600080fd5b5035919050565b60008060006060848603121561468057600080fd5b61468984614452565b95602085013595506040909401359392505050565b634e487b7160e01b600052602160045260246000fd5b60208101600383106146d657634e487b7160e01b600052602160045260246000fd5b91905290565b803560ff8116811461446957600080fd5b60008060008060008060c0878903121561470657600080fd5b61470f87614452565b9550602087013594506040870135935061472b606088016146dc565b92506080870135915060a087013590509295509295509295565b6000806040838503121561475857600080fd5b50508035926020909101359150565b600080600080600080600060e0888a03121561478257600080fd5b61478b88614452565b965061479960208901614452565b955060408801359450606088013593506147b5608089016146dc565b925060a0880135915060c0880135905092959891949750929550565b600080604083850312156147e457600080fd5b6147ed83614452565b91506147fb60208401614452565b90509250929050565b6000806040838503121561481757600080fd5b61482083614452565b9150602083013563ffffffff8116811461483957600080fd5b809150509250929050565b600181811c9082168061485857607f821691505b60208210811415612bd757634e487b7160e01b600052602260045260246000fd5b6020808252601f908201527f5265656e7472616e637947756172643a207265656e7472616e742063616c6c00604082015260600190565b634e487b7160e01b600052601160045260246000fd5b600082198211156148d9576148d96148b0565b500190565b6020808252818101527f4f776e61626c653a2063616c6c6572206973206e6f7420746865206f776e6572604082015260600190565b634e487b7160e01b600052603260045260246000fd5b6000816000190483118215151615614943576149436148b0565b500290565b60008282101561495a5761495a6148b0565b500390565b634e487b7160e01b600052603160045260246000fd5b600081614984576149846148b0565b506000190190565b60006000198214156149a0576149a06148b0565b5060010190565b600181815b808511156149e25781600019048211156149c8576149c86148b0565b808516156149d557918102915b93841c93908002906149ac565b509250929050565b6000826149f9575060016109e3565b81614a06575060006109e3565b8160018114614a1c5760028114614a2657614a42565b60019150506109e3565b60ff841115614a3757614a376148b0565b50506001821b6109e3565b5060208310610133831016604e8410600b8410161715614a65575081810a6109e3565b614a6f83836149a7565b8060001904821115614a8357614a836148b0565b029392505050565b6000610c5160ff8416836149ea565b600060208284031215614aac57600080fd5b5051919050565b600082614ad057634e487b7160e01b600052601260045260246000fd5b500490565b6020808252602b908201527f496e697469616c697a61626c653a20636f6e7472616374206973206e6f74206960408201526a6e697469616c697a696e6760a81b606082015260800190565b600060208284031215614b3257600080fd5b8151610c5181614556565b60008251614b4f8184602087016143f3565b919091019291505056fea26469706673582212204e5f157a0dda17facb21bd809edb34d653b0d8781d5eaac7c15ef3ba5620640a64736f6c63430008090033",
  "linkReferences": {},
  "deployedLinkReferences": {}
}