{
  "_format": "hh-sol-artifact-1",
  "contractName": "SingleBeacon",
  "sourceName": "contracts/beacon/SingleBeacon.sol",
  "abi": [
    {
      "inputs": [
        {
          "internalType": "bytes32",
          "name": "beaconName",
          "type": "bytes32"
        }
      ],
      "stateMutability": "nonpayable",
      "type": "constructor"
    },
    {
      "inputs": [
        {
          "internalType": "bytes32",
          "name": "oldName",
          "type": "bytes32"
        },
        {
          "internalType": "bytes32",
          "name": "newName",
          "type": "bytes32"
        }
      ],
      "name": "DifferentContract",
      "type": "error"
    },
    {
      "inputs": [
        {
          "internalType": "address",
          "name": "caller",
          "type": "address"
        },
        {
          "internalType": "address",
          "name": "owner",
          "type": "address"
        }
      ],
      "name": "NotOwner",
      "type": "error"
    },
    {
      "inputs": [
        {
          "internalType": "address",
          "name": "caller",
          "type": "address"
        },
        {
          "internalType": "address",
          "name": "instance",
          "type": "address"
        }
      ],
      "name": "NotUpgradeAuthority",
      "type": "error"
    },
    {
      "inputs": [
        {
          "internalType": "address",
          "name": "instance",
          "type": "address"
        }
      ],
      "name": "UpgradingInstance",
      "type": "error"
    },
    {
      "anonymous": false,
      "inputs": [
        {
          "indexed": true,
          "internalType": "address",
          "name": "previousOwner",
          "type": "address"
        },
        {
          "indexed": true,
          "internalType": "address",
          "name": "newOwner",
          "type": "address"
        }
      ],
      "name": "OwnershipTransferred",
      "type": "event"
    },
    {
      "anonymous": false,
      "inputs": [
        {
          "indexed": true,
          "internalType": "address",
          "name": "instance",
          "type": "address"
        },
        {
          "indexed": true,
          "internalType": "address",
          "name": "code",
          "type": "address"
        }
      ],
      "name": "Upgrade",
      "type": "event"
    },
    {
      "inputs": [],
      "name": "beaconName",
      "outputs": [
        {
          "internalType": "bytes32",
          "name": "",
          "type": "bytes32"
        }
      ],
      "stateMutability": "view",
      "type": "function"
    },
    {
      "inputs": [],
      "name": "contractName",
      "outputs": [
        {
          "internalType": "bytes32",
          "name": "",
          "type": "bytes32"
        }
      ],
      "stateMutability": "view",
      "type": "function"
    },
    {
      "inputs": [],
      "name": "implementation",
      "outputs": [
        {
          "internalType": "address",
          "name": "",
          "type": "address"
        }
      ],
      "stateMutability": "view",
      "type": "function"
    },
    {
      "inputs": [
        {
          "internalType": "address",
          "name": "instance",
          "type": "address"
        }
      ],
      "name": "implementation",
      "outputs": [
        {
          "internalType": "address",
          "name": "",
          "type": "address"
        }
      ],
      "stateMutability": "view",
      "type": "function"
    },
    {
      "inputs": [
        {
          "internalType": "address",
          "name": "",
          "type": "address"
        }
      ],
      "name": "implementations",
      "outputs": [
        {
          "internalType": "address",
          "name": "",
          "type": "address"
        }
      ],
      "stateMutability": "view",
      "type": "function"
    },
    {
      "inputs": [],
      "name": "owner",
      "outputs": [
        {
          "internalType": "address",
          "name": "",
          "type": "address"
        }
      ],
      "stateMutability": "view",
      "type": "function"
    },
    {
      "inputs": [],
      "name": "releaseChannels",
      "outputs": [
        {
          "internalType": "uint8",
          "name": "",
          "type": "uint8"
        }
      ],
      "stateMutability": "view",
      "type": "function"
    },
    {
      "inputs": [],
      "name": "renounceOwnership",
      "outputs": [],
      "stateMutability": "nonpayable",
      "type": "function"
    },
    {
      "inputs": [
        {
          "internalType": "bytes4",
          "name": "",
          "type": "bytes4"
        }
      ],
      "name": "supportsInterface",
      "outputs": [
        {
          "internalType": "bool",
          "name": "",
          "type": "bool"
        }
      ],
      "stateMutability": "view",
      "type": "function"
    },
    {
      "inputs": [
        {
          "internalType": "address",
          "name": "newOwner",
          "type": "address"
        }
      ],
      "name": "transferOwnership",
      "outputs": [],
      "stateMutability": "nonpayable",
      "type": "function"
    },
    {
      "inputs": [
        {
          "internalType": "address",
          "name": "instance",
          "type": "address"
        },
        {
          "internalType": "address",
          "name": "code",
          "type": "address"
        }
      ],
      "name": "upgrade",
      "outputs": [],
      "stateMutability": "nonpayable",
      "type": "function"
    },
    {
      "inputs": [],
      "name": "version",
      "outputs": [
        {
          "internalType": "uint256",
          "name": "",
          "type": "uint256"
        }
      ],
      "stateMutability": "view",
      "type": "function"
    }
  ],
  "bytecode": "0x60c06040523480156200001157600080fd5b5060405162000ef538038062000ef58339810160408190526200003491620003a9565b806001604051806040016040528060068152602001652132b0b1b7b760d11b815250620000706200006a6200022860201b60201c565b6200022c565b8051602090910120600155600054600160a81b900460ff16620000a157600054600160a01b900460ff1615620000ab565b620000ab6200027c565b620001145760405162461bcd60e51b815260206004820152602e60248201527f496e697469616c697a61626c653a20636f6e747261637420697320616c72656160448201526d191e481a5b9a5d1a585b1a5e995960921b60648201526084015b60405180910390fd5b600054600160a81b900460ff161580156200013f576000805461ffff60a01b191661010160a01b1790555b6040805180820190915260068152652132b0b1b7b760d11b6020820152620001699060016200029a565b60036020527f96eac66d189e0789ae24dfb0ea24afdd4b2c99694d27de045ecac35c0660dff68054600160ff1991821681179092557fbf0736e31dfe1909d5ffb08418325acfb44b7ce84a8345f78a77015ca075a37b80548216831790556330333e0b60e21b6000527fc698d06e64b0d9e6dbea95f3eef5994a420dde06ebf39de345db54ebf2458dd280549091169091179055608083905260ff821660a05280156200021e576000805460ff60a81b191690555b50505050620003c3565b3390565b600080546001600160a01b038381166001600160a01b0319831681178455604051919092169283917f8be0079c531659141344cd1fd0a4f28419497f9722a3daafe3b4186f6b6457e09190a35050565b600062000294306200039a60201b620004ac1760201c565b15905090565b600054600160a81b900460ff16620003095760405162461bcd60e51b815260206004820152602b60248201527f496e697469616c697a61626c653a20636f6e7472616374206973206e6f74206960448201526a6e697469616c697a696e6760a81b60648201526084016200010b565b8151602083012060015580620003245760016002556200032b565b6000196002555b505060036020527f28b0ef64f7e82d3b26f3fd404bd0151552f792965f39c29ae82c0a78df67af9c8054600160ff19918216811790925563084b636360e21b6000527ff2ce595d3685ae93af455b2a85c171e0605a33d91f3700771e47939a4623804580549091169091179055565b6001600160a01b03163b151590565b600060208284031215620003bc57600080fd5b5051919050565b60805160a051610af1620004046000396000818161018b0152818161023e015261052901526000818160f60152818161071a015261084b0152610af16000f3fe608060405234801561001057600080fd5b50600436106100b45760003560e01c806375d0c0dc1161007157806375d0c0dc1461016c5780638da5cb5b146101755780639781b5551461018657806399a88ec4146101bf578063f2fde38b146101d2578063f79eb32c146101e557600080fd5b806301ffc9a7146100b957806352f37789146100f157806354fd4d50146101265780635c60da1b1461012f5780636b8807181461014f578063715018a614610162575b600080fd5b6100dc6100c7366004610993565b60036020526000908152604090205460ff1681565b60405190151581526020015b60405180910390f35b6101187f000000000000000000000000000000000000000000000000000000000000000081565b6040519081526020016100e8565b61011860025481565b61013761020e565b6040516001600160a01b0390911681526020016100e8565b61013761015d3660046109d2565b61021e565b61016a610335565b005b61011860015481565b6000546001600160a01b0316610137565b6101ad7f000000000000000000000000000000000000000000000000000000000000000081565b60405160ff90911681526020016100e8565b61016a6101cd3660046109ef565b6103a0565b61016a6101e03660046109d2565b6103e1565b6101376101f33660046109d2565b6068602052600090815260409020546001600160a01b031681565b60006102193361021e565b905090565b6001600160a01b038082166000908152606860205260408120549091165b7f000000000000000000000000000000000000000000000000000000000000000060ff16816001600160a01b03161015610290576001600160a01b039081166000908152606860205260409020541661023c565b6102aa6001600160a01b0382166330333e0b60e21b6104bb565b1561032f57604051630d7100e360e31b81526001600160a01b038481166004830152821690636b8807189060240160206040518083038186803b1580156102f057600080fd5b505afa158015610304573d6000803e3d6000fd5b505050506040513d601f19601f820116820180604052508101906103289190610a28565b9392505050565b92915050565b6000546001600160a01b031633146103945760405162461bcd60e51b815260206004820181905260248201527f4f776e61626c653a2063616c6c6572206973206e6f7420746865206f776e657260448201526064015b60405180910390fd5b61039e60006104d7565b565b6001600160a01b038216156103d35760405163f2e190a160e01b81526001600160a01b038316600482015260240161038b565b6103dd8282610527565b5050565b6000546001600160a01b0316331461043b5760405162461bcd60e51b815260206004820181905260248201527f4f776e61626c653a2063616c6c6572206973206e6f7420746865206f776e6572604482015260640161038b565b6001600160a01b0381166104a05760405162461bcd60e51b815260206004820152602660248201527f4f776e61626c653a206e6577206f776e657220697320746865207a65726f206160448201526564647265737360d01b606482015260840161038b565b6104a9816104d7565b50565b6001600160a01b03163b151590565b60006104c683610877565b8015610328575061032883836108aa565b600080546001600160a01b038381166001600160a01b0319831681178455604051919092169283917f8be0079c531659141344cd1fd0a4f28419497f9722a3daafe3b4186f6b6457e09190a35050565b7f000000000000000000000000000000000000000000000000000000000000000060ff16826001600160a01b031610156105df576000546001600160a01b031633146105ac57336105806000546001600160a01b031690565b604051631194af8760e11b81526001600160a01b0392831660048201529116602482015260440161038b565b6001600160a01b03828116600090815260686020526040902080546001600160a01b0319169183169190911790556106d8565b336001600160a01b0383161480159061067a5750816001600160a01b0316638da5cb5b6040518163ffffffff1660e01b815260040160206040518083038186803b15801561062c57600080fd5b505afa158015610640573d6000803e3d6000fd5b505050506040513d601f19601f820116820180604052508101906106649190610a28565b6001600160a01b0316336001600160a01b031614155b156106a9576040516391d7033960e01b81523360048201526001600160a01b038316602482015260440161038b565b6001600160a01b03828116600090815260686020526040902080546001600160a01b0319169183169190911790555b806001600160a01b0316826001600160a01b03167fd23ce5645530506727523fe6d7939e72bb49102454460bc72f0f5baec60ac71860405160405180910390a37f00000000000000000000000000000000000000000000000000000000000000006107428361021e565b6001600160a01b03166375d0c0dc6040518163ffffffff1660e01b8152600401602060405180830381600087803b15801561077c57600080fd5b505af1158015610790573d6000803e3d6000fd5b505050506040513d601f19601f820116820180604052508101906107b49190610a45565b146103dd576107c28261021e565b6001600160a01b03166375d0c0dc6040518163ffffffff1660e01b8152600401602060405180830381600087803b1580156107fc57600080fd5b505af1158015610810573d6000803e3d6000fd5b505050506040513d601f19601f820116820180604052508101906108349190610a45565b6040516309dae51160e31b815260048101919091527f0000000000000000000000000000000000000000000000000000000000000000602482015260440161038b565b600061088a826301ffc9a760e01b6108aa565b801561032f57506108a3826001600160e01b03196108aa565b1592915050565b604080516001600160e01b0319831660248083019190915282518083039091018152604490910182526020810180516001600160e01b03166301ffc9a760e01b179052905160009190829081906001600160a01b0387169061753090610911908690610a5e565b6000604051808303818686fa925050503d806000811461094d576040519150601f19603f3d011682016040523d82523d6000602084013e610952565b606091505b509150915060208151101561096d576000935050505061032f565b8180156109895750808060200190518101906109899190610a99565b9695505050505050565b6000602082840312156109a557600080fd5b81356001600160e01b03198116811461032857600080fd5b6001600160a01b03811681146104a957600080fd5b6000602082840312156109e457600080fd5b8135610328816109bd565b60008060408385031215610a0257600080fd5b8235610a0d816109bd565b91506020830135610a1d816109bd565b809150509250929050565b600060208284031215610a3a57600080fd5b8151610328816109bd565b600060208284031215610a5757600080fd5b5051919050565b6000825160005b81811015610a7f5760208186018101518583015201610a65565b81811115610a8e576000828501525b509190910192915050565b600060208284031215610aab57600080fd5b8151801515811461032857600080fdfea264697066735822122048457dcef285351df6b1d0acef989d7588e0b449591abcd6b2c72be3394b82ae64736f6c63430008090033",
  "linkReferences": {},
  "deployedLinkReferences": {}
}