{
  "_format": "hh-sol-artifact-1",
  "contractName": "TestFrabric",
  "sourceName": "contracts/test/TestFrabric.sol",
  "abi": [
    {
      "inputs": [],
      "stateMutability": "nonpayable",
      "type": "constructor"
    },
    {
      "inputs": [
        {
          "internalType": "address",
          "name": "person",
          "type": "address"
        }
      ],
      "name": "Removed",
      "type": "error"
    },
    {
      "inputs": [
        {
          "internalType": "address",
          "name": "contractAddress",
          "type": "address"
        },
        {
          "internalType": "bytes4",
          "name": "interfaceID",
          "type": "bytes4"
        }
      ],
      "name": "UnsupportedInterface",
      "type": "error"
    },
    {
      "anonymous": false,
      "inputs": [],
      "name": "GlobalAcceptance",
      "type": "event"
    },
    {
      "anonymous": false,
      "inputs": [
        {
          "indexed": false,
          "internalType": "address",
          "name": "oldParent",
          "type": "address"
        },
        {
          "indexed": false,
          "internalType": "address",
          "name": "newParent",
          "type": "address"
        }
      ],
      "name": "ParentWhitelistChange",
      "type": "event"
    },
    {
      "anonymous": false,
      "inputs": [
        {
          "indexed": true,
          "internalType": "address",
          "name": "person",
          "type": "address"
        },
        {
          "indexed": true,
          "internalType": "bytes32",
          "name": "oldInfo",
          "type": "bytes32"
        },
        {
          "indexed": true,
          "internalType": "bytes32",
          "name": "newInfo",
          "type": "bytes32"
        }
      ],
      "name": "WhitelistUpdate",
      "type": "event"
    },
    {
      "inputs": [],
      "name": "contractName",
      "outputs": [
        {
          "internalType": "bytes32",
          "name": "",
          "type": "bytes32"
        }
      ],
      "stateMutability": "view",
      "type": "function"
    },
    {
      "inputs": [],
      "name": "erc20",
      "outputs": [
        {
          "internalType": "address",
          "name": "",
          "type": "address"
        }
      ],
      "stateMutability": "view",
      "type": "function"
    },
    {
      "inputs": [
        {
          "internalType": "address",
          "name": "person",
          "type": "address"
        }
      ],
      "name": "explicitlyWhitelisted",
      "outputs": [
        {
          "internalType": "bool",
          "name": "",
          "type": "bool"
        }
      ],
      "stateMutability": "view",
      "type": "function"
    },
    {
      "inputs": [],
      "name": "global",
      "outputs": [
        {
          "internalType": "bool",
          "name": "",
          "type": "bool"
        }
      ],
      "stateMutability": "view",
      "type": "function"
    },
    {
      "inputs": [
        {
          "internalType": "address",
          "name": "",
          "type": "address"
        }
      ],
      "name": "info",
      "outputs": [
        {
          "internalType": "bytes32",
          "name": "",
          "type": "bytes32"
        }
      ],
      "stateMutability": "view",
      "type": "function"
    },
    {
      "inputs": [],
      "name": "parentWhitelist",
      "outputs": [
        {
          "internalType": "address",
          "name": "",
          "type": "address"
        }
      ],
      "stateMutability": "view",
      "type": "function"
    },
    {
      "inputs": [
        {
          "internalType": "address",
          "name": "person",
          "type": "address"
        }
      ],
      "name": "removed",
      "outputs": [
        {
          "internalType": "bool",
          "name": "",
          "type": "bool"
        }
      ],
      "stateMutability": "view",
      "type": "function"
    },
    {
      "inputs": [
        {
          "internalType": "address",
          "name": "person",
          "type": "address"
        },
        {
          "internalType": "bytes32",
          "name": "dataHash",
          "type": "bytes32"
        }
      ],
      "name": "setWhitelisted",
      "outputs": [],
      "stateMutability": "nonpayable",
      "type": "function"
    },
    {
      "inputs": [
        {
          "internalType": "bytes4",
          "name": "",
          "type": "bytes4"
        }
      ],
      "name": "supportsInterface",
      "outputs": [
        {
          "internalType": "bool",
          "name": "",
          "type": "bool"
        }
      ],
      "stateMutability": "view",
      "type": "function"
    },
    {
      "inputs": [],
      "name": "version",
      "outputs": [
        {
          "internalType": "uint256",
          "name": "",
          "type": "uint256"
        }
      ],
      "stateMutability": "view",
      "type": "function"
    },
    {
      "inputs": [],
      "name": "votingPeriod",
      "outputs": [
        {
          "internalType": "uint256",
          "name": "",
          "type": "uint256"
        }
      ],
      "stateMutability": "pure",
      "type": "function"
    },
    {
      "inputs": [
        {
          "internalType": "address",
          "name": "person",
          "type": "address"
        }
      ],
      "name": "whitelisted",
      "outputs": [
        {
          "internalType": "bool",
          "name": "",
          "type": "bool"
        }
      ],
      "stateMutability": "view",
      "type": "function"
    }
  ],
  "bytecode": "0x60806040523480156200001157600080fd5b506040805180820190915260078152664672616272696360c81b6020909101527f4b7b1895ca3c4134c8bdf7efb4bdcf5517b5765c5e8cc6173d7dd38c2390bb00600155600054610100900460ff16620000725760005460ff16156200007c565b6200007c62000159565b620000e55760405162461bcd60e51b815260206004820152602e60248201527f496e697469616c697a61626c653a20636f6e747261637420697320616c72656160448201526d191e481a5b9a5d1a585b1a5e995960921b60648201526084015b60405180910390fd5b600054610100900460ff1615801562000108576000805461ffff19166101011790555b6040805180820190915260078152664672616272696360c81b60208201526200013390600062000177565b6200013f600062000264565b801562000152576000805461ff00191690555b50620005fa565b600062000171306200034260201b620002d71760201c565b15905090565b600054610100900460ff16620001d35760405162461bcd60e51b815260206004820152602b602482015260008051602062000c1983398151915260448201526a6e697469616c697a696e6760a81b6064820152608401620000dc565b8151602083012060015580620001ee576001600255620001f5565b6000196002555b505060036020527f28b0ef64f7e82d3b26f3fd404bd0151552f792965f39c29ae82c0a78df67af9c8054600160ff19918216811790925563084b636360e21b6000527ff2ce595d3685ae93af455b2a85c171e0605a33d91f3700771e47939a4623804580549091169091179055565b600054610100900460ff16620002c05760405162461bcd60e51b815260206004820152602b602482015260008051602062000c1983398151915260448201526a6e697469616c697a696e6760a81b6064820152608401620000dc565b60036020527fc85fca010273425056964db31853c5e66a02658241bb1924c4ae789f6f4a0dce8054600160ff199182168117909255630bfd21bb60e21b6000527f6a3e47b123a1ead43ba2fea501cb93093afd3d9c47f0f7de40b1b1723ddb40e9805482169092179091556068805490911690556200033f8162000351565b50565b6001600160a01b03163b151590565b6001600160a01b038116158015906200039157506200038f636c9b2a3f60e11b826001600160a01b03166200043d60201b620002e61790919060201c565b155b15620003c957604051634502d26360e11b81526001600160a01b0382166004820152636c9b2a3f60e11b6024820152604401620000dc565b606854604080516001600160a01b036101009093048316815291831660208301527f965f8846be8fc82874c4c35f4aa3503cfc7de77a3c71c99b6dfb19e47aece6e5910160405180910390a1606880546001600160a01b0390921661010002610100600160a81b0319909216919091179055565b60006200044a8362000467565b80156200045e57506200045e83836200049f565b90505b92915050565b60006200047c826301ffc9a760e01b6200049f565b801562000461575062000498826001600160e01b03196200049f565b1592915050565b604080516001600160e01b0319831660248083019190915282518083039091018152604490910182526020810180516001600160e01b03166301ffc9a760e01b179052905160009190829081906001600160a01b03871690617530906200050890869062000591565b6000604051808303818686fa925050503d806000811462000546576040519150601f19603f3d011682016040523d82523d6000602084013e6200054b565b606091505b509150915060208151101562000568576000935050505062000461565b81801562000587575080806020019051810190620005879190620005cf565b9695505050505050565b6000825160005b81811015620005b4576020818601810151858301520162000598565b81811115620005c4576000828501525b509190910192915050565b600060208284031215620005e257600080fd5b81518015158114620005f357600080fd5b9392505050565b61060f806200060a6000396000f3fe608060405234801561001057600080fd5b50600436106100b45760003560e01c806375d0c0dc1161007157806375d0c0dc14610184578063785e9e861461018d578063a05f9906146101a7578063a32eefaa146101b4578063d936547e146101c9578063fe2c012c146101dc57600080fd5b806301ffc9a7146100b957806302a251a3146100f15780630aae7a6b1461010457806339df10521461012457806342f674ff1461014f57806354fd4d501461017b575b600080fd5b6100dc6100c73660046104f1565b60036020526000908152604090205460ff1681565b60405190151581526020015b60405180910390f35b621275005b6040519081526020016100e8565b6100f6610112366004610537565b60696020526000908152604090205481565b6100dc610132366004610537565b6001600160a01b0316600090815260696020526040902054151590565b6100dc61015d366004610537565b6001600160a01b03166000908152606a602052604090205460ff1690565b6100f660025481565b6100f660015481565b305b6040516001600160a01b0390911681526020016100e8565b6068546100dc9060ff1681565b6101c76101c2366004610552565b6101f4565b005b6100dc6101d7366004610537565b610202565b60685461018f9061010090046001600160a01b031681565b6101fe8282610309565b5050565b60685460009061010090046001600160a01b0316158015906102a25750606854604051636c9b2a3f60e11b81526001600160a01b0384811660048301526101009092049091169063d936547e9060240160206040518083038186803b15801561026a57600080fd5b505afa15801561027e573d6000803e3d6000fd5b505050506040513d601f19601f820116820180604052508101906102a2919061057c565b806102af575060685460ff165b806102d157506001600160a01b03821660009081526069602052604090205415155b92915050565b6001600160a01b03163b151590565b60006102f1836103d5565b801561030257506103028383610408565b9392505050565b6001600160a01b03821660009081526069602052604090205481141561032d575050565b6001600160a01b0382166000908152606a602052604090205460ff16156103765760405163066a905b60e01b81526001600160a01b038316600482015260240160405180910390fd5b6001600160a01b038216600081815260696020526040808220549051849391927fd7e140cf02f08f41af82f4c7bdd815be5babca19d16e9a3acee147f66cc883c891a46001600160a01b03909116600090815260696020526040902055565b60006103e8826301ffc9a760e01b610408565b80156102d15750610401826001600160e01b0319610408565b1592915050565b604080516001600160e01b0319831660248083019190915282518083039091018152604490910182526020810180516001600160e01b03166301ffc9a760e01b179052905160009190829081906001600160a01b038716906175309061046f90869061059e565b6000604051808303818686fa925050503d80600081146104ab576040519150601f19603f3d011682016040523d82523d6000602084013e6104b0565b606091505b50915091506020815110156104cb57600093505050506102d1565b8180156104e75750808060200190518101906104e7919061057c565b9695505050505050565b60006020828403121561050357600080fd5b81356001600160e01b03198116811461030257600080fd5b80356001600160a01b038116811461053257600080fd5b919050565b60006020828403121561054957600080fd5b6103028261051b565b6000806040838503121561056557600080fd5b61056e8361051b565b946020939093013593505050565b60006020828403121561058e57600080fd5b8151801515811461030257600080fd5b6000825160005b818110156105bf57602081860181015185830152016105a5565b818111156105ce576000828501525b50919091019291505056fea2646970667358221220e25c56beebf24e32af8d69556969328bc48e71174e8b6dcb558d40e5d823f3c664736f6c63430008090033496e697469616c697a61626c653a20636f6e7472616374206973206e6f742069",
  "linkReferences": {},
  "deployedLinkReferences": {}
}