{
  "_format": "hh-sol-artifact-1",
  "contractName": "ThreadDeployer",
  "sourceName": "contracts/thread/ThreadDeployer.sol",
  "abi": [
    {
      "inputs": [],
      "stateMutability": "nonpayable",
      "type": "constructor"
    },
    {
      "inputs": [
        {
          "internalType": "uint8",
          "name": "beforeDecimals",
          "type": "uint8"
        },
        {
          "internalType": "uint8",
          "name": "afterDecimals",
          "type": "uint8"
        }
      ],
      "name": "NonStaticDecimals",
      "type": "error"
    },
    {
      "inputs": [
        {
          "internalType": "uint256",
          "name": "id",
          "type": "uint256"
        }
      ],
      "name": "UnknownVariant",
      "type": "error"
    },
    {
      "anonymous": false,
      "inputs": [
        {
          "indexed": true,
          "internalType": "address",
          "name": "previousOwner",
          "type": "address"
        },
        {
          "indexed": true,
          "internalType": "address",
          "name": "newOwner",
          "type": "address"
        }
      ],
      "name": "OwnershipTransferred",
      "type": "event"
    },
    {
      "anonymous": false,
      "inputs": [
        {
          "indexed": true,
          "internalType": "uint8",
          "name": "variant",
          "type": "uint8"
        },
        {
          "indexed": true,
          "internalType": "address",
          "name": "agent",
          "type": "address"
        },
        {
          "indexed": true,
          "internalType": "address",
          "name": "tradeToken",
          "type": "address"
        },
        {
          "indexed": false,
          "internalType": "address",
          "name": "erc20",
          "type": "address"
        },
        {
          "indexed": false,
          "internalType": "address",
          "name": "thread",
          "type": "address"
        },
        {
          "indexed": false,
          "internalType": "address",
          "name": "crowdfund",
          "type": "address"
        }
      ],
      "name": "Thread",
      "type": "event"
    },
    {
      "inputs": [],
      "name": "auction",
      "outputs": [
        {
          "internalType": "address",
          "name": "",
          "type": "address"
        }
      ],
      "stateMutability": "view",
      "type": "function"
    },
    {
      "inputs": [
        {
          "internalType": "address",
          "name": "erc20",
          "type": "address"
        }
      ],
      "name": "claimTimelock",
      "outputs": [],
      "stateMutability": "nonpayable",
      "type": "function"
    },
    {
      "inputs": [],
      "name": "contractName",
      "outputs": [
        {
          "internalType": "bytes32",
          "name": "",
          "type": "bytes32"
        }
      ],
      "stateMutability": "view",
      "type": "function"
    },
    {
      "inputs": [],
      "name": "crowdfundProxy",
      "outputs": [
        {
          "internalType": "address",
          "name": "",
          "type": "address"
        }
      ],
      "stateMutability": "view",
      "type": "function"
    },
    {
      "inputs": [
        {
          "internalType": "uint8",
          "name": "_variant",
          "type": "uint8"
        },
        {
          "internalType": "address",
          "name": "_agent",
          "type": "address"
        },
        {
          "internalType": "string",
          "name": "_name",
          "type": "string"
        },
        {
          "internalType": "string",
          "name": "_symbol",
          "type": "string"
        },
        {
          "internalType": "bytes",
          "name": "data",
          "type": "bytes"
        }
      ],
      "name": "deploy",
      "outputs": [],
      "stateMutability": "nonpayable",
      "type": "function"
    },
    {
      "inputs": [],
      "name": "erc20Beacon",
      "outputs": [
        {
          "internalType": "address",
          "name": "",
          "type": "address"
        }
      ],
      "stateMutability": "view",
      "type": "function"
    },
    {
      "inputs": [
        {
          "internalType": "address",
          "name": "_crowdfundProxy",
          "type": "address"
        },
        {
          "internalType": "address",
          "name": "_erc20Beacon",
          "type": "address"
        },
        {
          "internalType": "address",
          "name": "_threadBeacon",
          "type": "address"
        },
        {
          "internalType": "address",
          "name": "_auction",
          "type": "address"
        },
        {
          "internalType": "address",
          "name": "_timelock",
          "type": "address"
        }
      ],
      "name": "initialize",
      "outputs": [],
      "stateMutability": "nonpayable",
      "type": "function"
    },
    {
      "inputs": [],
      "name": "owner",
      "outputs": [
        {
          "internalType": "address",
          "name": "",
          "type": "address"
        }
      ],
      "stateMutability": "view",
      "type": "function"
    },
    {
      "inputs": [
        {
          "internalType": "address",
          "name": "erc20",
          "type": "address"
        }
      ],
      "name": "recover",
      "outputs": [],
      "stateMutability": "nonpayable",
      "type": "function"
    },
    {
      "inputs": [],
      "name": "renounceOwnership",
      "outputs": [],
      "stateMutability": "nonpayable",
      "type": "function"
    },
    {
      "inputs": [
        {
          "internalType": "bytes4",
          "name": "",
          "type": "bytes4"
        }
      ],
      "name": "supportsInterface",
      "outputs": [
        {
          "internalType": "bool",
          "name": "",
          "type": "bool"
        }
      ],
      "stateMutability": "view",
      "type": "function"
    },
    {
      "inputs": [],
      "name": "threadBeacon",
      "outputs": [
        {
          "internalType": "address",
          "name": "",
          "type": "address"
        }
      ],
      "stateMutability": "view",
      "type": "function"
    },
    {
      "inputs": [],
      "name": "timelock",
      "outputs": [
        {
          "internalType": "address",
          "name": "",
          "type": "address"
        }
      ],
      "stateMutability": "view",
      "type": "function"
    },
    {
      "inputs": [
        {
          "internalType": "address",
          "name": "newOwner",
          "type": "address"
        }
      ],
      "name": "transferOwnership",
      "outputs": [],
      "stateMutability": "nonpayable",
      "type": "function"
    },
    {
      "inputs": [
        {
          "internalType": "uint8",
          "name": "variant",
          "type": "uint8"
        },
        {
          "internalType": "bytes",
          "name": "data",
          "type": "bytes"
        }
      ],
      "name": "validate",
      "outputs": [],
      "stateMutability": "pure",
      "type": "function"
    },
    {
      "inputs": [],
      "name": "version",
      "outputs": [
        {
          "internalType": "uint256",
          "name": "",
          "type": "uint256"
        }
      ],
      "stateMutability": "view",
      "type": "function"
    }
  ],
  "bytecode": "0x60806040523480156200001157600080fd5b5060408051808201909152600e81526d2a343932b0b22232b83637bcb2b960911b6020909101527fa8dce39a5d1593473019651f7bdf887a8feede225a8f1e41cd674e8214e29797606555600054610100900460ff16620000795760005460ff161562000083565b6200008362000128565b620000eb5760405162461bcd60e51b815260206004820152602e60248201527f496e697469616c697a61626c653a20636f6e747261637420697320616c72656160448201526d191e481a5b9a5d1a585b1a5e995960921b606482015260840160405180910390fd5b600054610100900460ff161580156200010e576000805461ffff19166101011790555b801562000121576000805461ff00191690555b5062000155565b600062000140306200014660201b62000ee51760201c565b15905090565b6001600160a01b03163b151590565b61234380620001656000396000f3fe60806040523480156200001157600080fd5b5060043610620001155760003560e01c80638da5cb5b11620000a3578063d33219b4116200006e578063d33219b41462000247578063efca42bb146200025b578063f0b44c93146200026f578063f2fde38b146200028657600080fd5b80638da5cb5b14620001f3578063b0420bc21462000205578063c672614d146200021c578063d32a3d30146200023057600080fd5b806354fd4d5011620000e457806354fd4d5014620001b2578063715018a614620001cb57806375d0c0dc14620001d55780637d9f6db514620001df57600080fd5b806301ffc9a7146200011a5780630cd865ec14620001555780631459457a146200016e5780633618eb651462000185575b600080fd5b620001406200012b36600462001339565b60676020526000908152604090205460ff1681565b60405190151581526020015b60405180910390f35b6200016c620001663660046200137b565b6200029d565b005b6200016c6200017f3660046200139b565b62000344565b60cd5462000199906001600160a01b031681565b6040516001600160a01b0390911681526020016200014c565b620001bc60665481565b6040519081526020016200014c565b6200016c6200050a565b620001bc60655481565b60cf5462000199906001600160a01b031681565b6033546001600160a01b031662000199565b6200016c620002163660046200151e565b62000545565b60ce5462000199906001600160a01b031681565b6200016c62000241366004620015e0565b62000d98565b60d05462000199906001600160a01b031681565b60cc5462000199906001600160a01b031681565b6200016c620002803660046200137b565b62000dda565b6200016c620002973660046200137b565b62000e46565b62000341620002b46033546001600160a01b031690565b6040516370a0823160e01b81523060048201526001600160a01b038416906370a082319060240160206040518083038186803b158015620002f457600080fd5b505afa15801562000309573d6000803e3d6000fd5b505050506040513d601f19601f820116820180604052508101906200032f91906200163b565b6001600160a01b038416919062000ef4565b50565b600054610100900460ff16620003615760005460ff161562000365565b303b155b620003ce5760405162461bcd60e51b815260206004820152602e60248201527f496e697469616c697a61626c653a20636f6e747261637420697320616c72656160448201526d191e481a5b9a5d1a585b1a5e995960921b60648201526084015b60405180910390fd5b600054610100900460ff16158015620003f1576000805461ffff19166101011790555b620003fb62000f48565b6200042e6040518060400160405280600e81526020016d2a343932b0b22232b83637bcb2b960911b815250600062000f7c565b60676020527f2ff18a737d756161c98c95c0afcfc1cce78ce5473cfc717d1530c9096f9f448a8054600160ff199182168117909255632e09a31f60e01b6000527f32e3067a5acbf31c1e44d33b2b572e77a06cba3c632c7c124edf5e9d519afd528054909116909117905560cc80546001600160a01b03199081166001600160a01b038981169190911790925560cd8054821688841617905560ce8054821687841617905560cf8054821686841617905560d08054909116918416919091179055801562000502576000805461ff00191690555b505050505050565b6033546001600160a01b03163314620005375760405162461bcd60e51b8152600401620003c59062001655565b62000543600062001037565b565b6033546001600160a01b03163314620005725760405162461bcd60e51b8152600401620003c59062001655565b8585858560ff8416156200059f576040516389d8cf9360e01b815260ff85166004820152602401620003c5565b600080620005b0878901896200168a565b60cd546040805160208101825260008082529151949650929450926001600160a01b039091169190620005e3906200132b565b620005f09291906200171a565b604051809103906000f0801580156200060d573d6000803e3d6000fd5b5060ce54604080516001600160a01b0384811660248301528a811660448301523360648084019190915283518084039091018152608490920183526020820180516001600160e01b031663c0c53b8b60e01b17905291519394506000939190921691906200067b906200132b565b620006889291906200171a565b604051809103906000f080158015620006a5573d6000803e3d6000fd5b5090506000620006bd6033546001600160a01b031690565b6001600160a01b031663785e9e866040518163ffffffff1660e01b815260040160206040518083038186803b158015620006f657600080fd5b505afa1580156200070b573d6000803e3d6000fd5b505050506040513d601f19601f8201168201806040525081019062000731919062001740565b60cc546040519192506000916001600160a01b0390911690634bfe0d4560e11b906200076e908b908b9087908f908a908e908e9060240162001760565b60408051601f198184030181529181526020820180516001600160e01b03166001600160e01b0319909416939093179092529051620007ad906200132b565b620007ba9291906200171a565b604051809103906000f080158015620007d7573d6000803e3d6000fd5b5090506000846001600160a01b031663313ce5676040518163ffffffff1660e01b815260040160206040518083038186803b1580156200081657600080fd5b505afa1580156200082b573d6000803e3d6000fd5b505050506040513d601f19601f82011682018060405250810190620008519190620017bf565b604051631b00b62760e21b8152600481018890529091506000906001600160a01b03841690636c02d89c90602401602060405180830381600087803b1580156200089a57600080fd5b505af1158015620008af573d6000803e3d6000fd5b505050506040513d601f19601f82011682018060405250810190620008d591906200163b565b905060006064620008e883606a620017f5565b620008f4919062001817565b9050866001600160a01b031663155fc12d8c8c8460008a8f60cf60009054906101000a90046001600160a01b03166040518863ffffffff1660e01b81526004016200094697969594939291906200183a565b600060405180830381600087803b1580156200096157600080fd5b505af115801562000976573d6000803e3d6000fd5b50505050866001600160a01b031663313ce5676040518163ffffffff1660e01b815260040160206040518083038186803b158015620009b457600080fd5b505afa158015620009c9573d6000803e3d6000fd5b505050506040513d601f19601f82011682018060405250810190620009ef9190620017bf565b60ff168360ff161462000a995782876001600160a01b031663313ce5676040518163ffffffff1660e01b815260040160206040518083038186803b15801562000a3757600080fd5b505afa15801562000a4c573d6000803e3d6000fd5b505050506040513d601f19601f8201168201806040525081019062000a729190620017bf565b604051633345c87360e21b815260ff928316600482015291166024820152604401620003c5565b60405163519777d560e11b81526001600160a01b0385811660048301527f81c1f89d4fe48b489c21defbc40d04d7e367f5ffcf3a269d63bc316a872bf720602483015288169063a32eefaa90604401600060405180830381600087803b15801562000b0357600080fd5b505af115801562000b18573d6000803e3d6000fd5b5062000b33925050506001600160a01b038816858462000ef4565b60d05460405163519777d560e11b81526001600160a01b0391821660048201527f8bdc034209cd34465f1fe5127e9f4c5350103200f3bf7dc8daa75003ccf585e060248201529088169063a32eefaa90604401600060405180830381600087803b15801562000ba157600080fd5b505af115801562000bb6573d6000803e3d6000fd5b505060d054604051635239e02560e11b81526001600160a01b038b8116600483015260066024830152909116925063a473c04a9150604401600060405180830381600087803b15801562000c0957600080fd5b505af115801562000c1e573d6000803e3d6000fd5b505060d05462000c5292506001600160a01b0316905062000c4084846200189a565b6001600160a01b038a16919062000ef4565b60405163519777d560e11b8152306004820152600060248201526001600160a01b0388169063a32eefaa90604401600060405180830381600087803b15801562000c9b57600080fd5b505af115801562000cb0573d6000803e3d6000fd5b505060405163f2fde38b60e01b81526001600160a01b0389811660048301528a16925063f2fde38b9150602401600060405180830381600087803b15801562000cf857600080fd5b505af115801562000d0d573d6000803e3d6000fd5b50505050886001600160a01b03168c6001600160a01b03168e60ff167faa8eeca6d5e42e21a6f17f7875a04232551b1eab8660b18a664128c0c84056c58a8a8960405162000d7b939291906001600160a01b0393841681529183166020830152909116604082015260600190565b60405180910390a450505050505050505050505050505050505050565b60ff831662000db65762000daf818301836200168a565b5050505050565b6040516389d8cf9360e01b815260ff84166004820152602401620003c5565b505050565b60d054604051630f41a04d60e11b81526001600160a01b03838116600483015290911690631e83409a90602401600060405180830381600087803b15801562000e2257600080fd5b505af115801562000e37573d6000803e3d6000fd5b5050505062000341816200029d565b6033546001600160a01b0316331462000e735760405162461bcd60e51b8152600401620003c59062001655565b6001600160a01b03811662000eda5760405162461bcd60e51b815260206004820152602660248201527f4f776e61626c653a206e6577206f776e657220697320746865207a65726f206160448201526564647265737360d01b6064820152608401620003c5565b620003418162001037565b6001600160a01b03163b151590565b604080516001600160a01b038416602482015260448082018490528251808303909101815260649091019091526020810180516001600160e01b031663a9059cbb60e01b17905262000dd590849062001089565b600054610100900460ff1662000f725760405162461bcd60e51b8152600401620003c590620018b4565b6200054362001162565b600054610100900460ff1662000fa65760405162461bcd60e51b8152600401620003c590620018b4565b815160208301206065558062000fc157600160665562000fc8565b6000196066555b505060676020527f8b4f8c6895117275d329e8ed30ba92c6c3c53384664dcc82cd4f835c59578ec48054600160ff19918216811790925563084b636360e21b6000527fcadda5072810222dc76cd2e4f0838314c605b8593c2d60c423861e65bb408b5280549091169091179055565b603380546001600160a01b038381166001600160a01b0319831681179093556040519116919082907f8be0079c531659141344cd1fd0a4f28419497f9722a3daafe3b4186f6b6457e090600090a35050565b6000620010e0826040518060400160405280602081526020017f5361666545524332303a206c6f772d6c6576656c2063616c6c206661696c6564815250856001600160a01b0316620011979092919063ffffffff16565b80519091501562000dd55780806020019051810190620011019190620018ff565b62000dd55760405162461bcd60e51b815260206004820152602a60248201527f5361666545524332303a204552433230206f7065726174696f6e20646964206e6044820152691bdd081cdd58d8d9595960b21b6064820152608401620003c5565b600054610100900460ff166200118c5760405162461bcd60e51b8152600401620003c590620018b4565b620005433362001037565b6060620011a88484600085620011b2565b90505b9392505050565b606082471015620012155760405162461bcd60e51b815260206004820152602660248201527f416464726573733a20696e73756666696369656e742062616c616e636520666f6044820152651c8818d85b1b60d21b6064820152608401620003c5565b6001600160a01b0385163b6200126e5760405162461bcd60e51b815260206004820152601d60248201527f416464726573733a2063616c6c20746f206e6f6e2d636f6e74726163740000006044820152606401620003c5565b600080866001600160a01b031685876040516200128c919062001923565b60006040518083038185875af1925050503d8060008114620012cb576040519150601f19603f3d011682016040523d82523d6000602084013e620012d0565b606091505b5091509150620012e2828286620012ed565b979650505050505050565b60608315620012fe575081620011ab565b8251156200130f5782518084602001fd5b8160405162461bcd60e51b8152600401620003c5919062001941565b6109b7806200195783390190565b6000602082840312156200134c57600080fd5b81356001600160e01b031981168114620011ab57600080fd5b6001600160a01b03811681146200034157600080fd5b6000602082840312156200138e57600080fd5b8135620011ab8162001365565b600080600080600060a08688031215620013b457600080fd5b8535620013c18162001365565b94506020860135620013d38162001365565b93506040860135620013e58162001365565b92506060860135620013f78162001365565b91506080860135620014098162001365565b809150509295509295909350565b60ff811681146200034157600080fd5b634e487b7160e01b600052604160045260246000fd5b600082601f8301126200144f57600080fd5b813567ffffffffffffffff808211156200146d576200146d62001427565b604051601f8301601f19908116603f0116810190828211818310171562001498576200149862001427565b81604052838152866020858801011115620014b257600080fd5b836020870160208301376000602085830101528094505050505092915050565b60008083601f840112620014e557600080fd5b50813567ffffffffffffffff811115620014fe57600080fd5b6020830191508360208285010111156200151757600080fd5b9250929050565b60008060008060008060a087890312156200153857600080fd5b8635620015458162001417565b95506020870135620015578162001365565b9450604087013567ffffffffffffffff808211156200157557600080fd5b620015838a838b016200143d565b955060608901359150808211156200159a57600080fd5b620015a88a838b016200143d565b94506080890135915080821115620015bf57600080fd5b50620015ce89828a01620014d2565b979a9699509497509295939492505050565b600080600060408486031215620015f657600080fd5b8335620016038162001417565b9250602084013567ffffffffffffffff8111156200162057600080fd5b6200162e86828701620014d2565b9497909650939450505050565b6000602082840312156200164e57600080fd5b5051919050565b6020808252818101527f4f776e61626c653a2063616c6c6572206973206e6f7420746865206f776e6572604082015260600190565b600080604083850312156200169e57600080fd5b8235620016ab8162001365565b946020939093013593505050565b60005b83811015620016d6578181015183820152602001620016bc565b83811115620016e6576000848401525b50505050565b6000815180845262001706816020860160208601620016b9565b601f01601f19169290920160200192915050565b6001600160a01b0383168152604060208201819052600090620011a890830184620016ec565b6000602082840312156200175357600080fd5b8151620011ab8162001365565b60e0815260006200177560e083018a620016ec565b828103602084015262001789818a620016ec565b6001600160a01b039889166040850152968816606084015250509285166080840152931660a082015260c0019190915292915050565b600060208284031215620017d257600080fd5b8151620011ab8162001417565b634e487b7160e01b600052601160045260246000fd5b6000816000190483118215151615620018125762001812620017df565b500290565b6000826200183557634e487b7160e01b600052601260045260246000fd5b500490565b60e0815260006200184f60e083018a620016ec565b828103602084015262001863818a620016ec565b6040840198909852505093151560608501526001600160a01b03928316608085015290821660a08401521660c09091015292915050565b600082821015620018af57620018af620017df565b500390565b6020808252602b908201527f496e697469616c697a61626c653a20636f6e7472616374206973206e6f74206960408201526a6e697469616c697a696e6760a81b606082015260800190565b6000602082840312156200191257600080fd5b81518015158114620011ab57600080fd5b6000825162001937818460208701620016b9565b9190910192915050565b602081526000620011ab6020830184620016ec56fe60806040526040516109b73803806109b7833981016040819052610022916104a9565b61004d60017fa3f0ad74e5423aebfd80d3ef4346578335a9a72aeaee59ff6cb3582b35133d51610569565b600080516020610970833981519152146100695761006961058e565b6100758282600061007c565b505061060e565b61008583610156565b6040516001600160a01b038416907f1cf3b03a6cf19fa2baba4df148e9dcabedea7f8a5c07840e207e5c089be95d3e90600090a26000825111806100c65750805b156101515761014f836001600160a01b0316635c60da1b6040518163ffffffff1660e01b815260040160206040518083038186803b15801561010757600080fd5b505afa15801561011b573d6000803e3d6000fd5b505050506040513d601f19601f8201168201806040525081019061013f91906105a4565b836102f660201b6100291760201c565b505b505050565b6101698161032260201b6100551760201c565b6101c85760405162461bcd60e51b815260206004820152602560248201527f455243313936373a206e657720626561636f6e206973206e6f74206120636f6e6044820152641d1c9858dd60da1b60648201526084015b60405180910390fd5b61024b816001600160a01b0316635c60da1b6040518163ffffffff1660e01b815260040160206040518083038186803b15801561020457600080fd5b505afa158015610218573d6000803e3d6000fd5b505050506040513d601f19601f8201168201806040525081019061023c91906105a4565b61032260201b6100551760201c565b6102b05760405162461bcd60e51b815260206004820152603060248201527f455243313936373a20626561636f6e20696d706c656d656e746174696f6e206960448201526f1cc81b9bdd08184818dbdb9d1c9858dd60821b60648201526084016101bf565b806102d560008051602061097083398151915260001b61033160201b6100641760201c565b80546001600160a01b0319166001600160a01b039290921691909117905550565b606061031b838360405180606001604052806027815260200161099060279139610334565b9392505050565b6001600160a01b03163b151590565b90565b60606001600160a01b0384163b61039c5760405162461bcd60e51b815260206004820152602660248201527f416464726573733a2064656c65676174652063616c6c20746f206e6f6e2d636f6044820152651b9d1c9858dd60d21b60648201526084016101bf565b600080856001600160a01b0316856040516103b791906105bf565b600060405180830381855af49150503d80600081146103f2576040519150601f19603f3d011682016040523d82523d6000602084013e6103f7565b606091505b509092509050610408828286610412565b9695505050505050565b6060831561042157508161031b565b8251156104315782518084602001fd5b8160405162461bcd60e51b81526004016101bf91906105db565b80516001600160a01b038116811461046257600080fd5b919050565b634e487b7160e01b600052604160045260246000fd5b60005b83811015610498578181015183820152602001610480565b8381111561014f5750506000910152565b600080604083850312156104bc57600080fd5b6104c58361044b565b60208401519092506001600160401b03808211156104e257600080fd5b818501915085601f8301126104f657600080fd5b81518181111561050857610508610467565b604051601f8201601f19908116603f0116810190838211818310171561053057610530610467565b8160405282815288602084870101111561054957600080fd5b61055a83602083016020880161047d565b80955050505050509250929050565b60008282101561058957634e487b7160e01b600052601160045260246000fd5b500390565b634e487b7160e01b600052600160045260246000fd5b6000602082840312156105b657600080fd5b61031b8261044b565b600082516105d181846020870161047d565b9190910192915050565b60208152600082518060208401526105fa81604085016020870161047d565b601f01601f19169190910160400192915050565b6103538061061d6000396000f3fe60806040523661001357610011610017565b005b6100115b610027610022610067565b61010f565b565b606061004e83836040518060600160405280602781526020016102f760279139610133565b9392505050565b6001600160a01b03163b151590565b90565b600061009a7fa3f0ad74e5423aebfd80d3ef4346578335a9a72aeaee59ff6cb3582b35133d50546001600160a01b031690565b6001600160a01b0316635c60da1b6040518163ffffffff1660e01b815260040160206040518083038186803b1580156100d257600080fd5b505afa1580156100e6573d6000803e3d6000fd5b505050506040513d601f19601f8201168201806040525081019061010a919061024e565b905090565b3660008037600080366000845af43d6000803e80801561012e573d6000f35b3d6000fd5b60606001600160a01b0384163b6101a05760405162461bcd60e51b815260206004820152602660248201527f416464726573733a2064656c65676174652063616c6c20746f206e6f6e2d636f6044820152651b9d1c9858dd60d21b60648201526084015b60405180910390fd5b600080856001600160a01b0316856040516101bb91906102a7565b600060405180830381855af49150503d80600081146101f6576040519150601f19603f3d011682016040523d82523d6000602084013e6101fb565b606091505b509150915061020b828286610215565b9695505050505050565b6060831561022457508161004e565b8251156102345782518084602001fd5b8160405162461bcd60e51b815260040161019791906102c3565b60006020828403121561026057600080fd5b81516001600160a01b038116811461004e57600080fd5b60005b8381101561029257818101518382015260200161027a565b838111156102a1576000848401525b50505050565b600082516102b9818460208701610277565b9190910192915050565b60208152600082518060208401526102e2816040850160208701610277565b601f01601f1916919091016040019291505056fe416464726573733a206c6f772d6c6576656c2064656c65676174652063616c6c206661696c6564a2646970667358221220f338a3e3a27df4fa570ca8702dd28a0fbdf61774a85a043b11ac3f6d48503a5c64736f6c63430008090033a3f0ad74e5423aebfd80d3ef4346578335a9a72aeaee59ff6cb3582b35133d50416464726573733a206c6f772d6c6576656c2064656c65676174652063616c6c206661696c6564a26469706673582212209576c44f34db0173934388592ad877ab13d1b21441b22c3232bf3dc5ec4954f264736f6c63430008090033",
  "linkReferences": {},
  "deployedLinkReferences": {}
}