{
  "_format": "hh-sol-artifact-1",
  "contractName": "Timelock",
  "sourceName": "contracts/erc20/Timelock.sol",
  "abi": [
    {
      "inputs": [],
      "stateMutability": "nonpayable",
      "type": "constructor"
    },
    {
      "inputs": [
        {
          "internalType": "address",
          "name": "token",
          "type": "address"
        }
      ],
      "name": "AlreadyLocked",
      "type": "error"
    },
    {
      "inputs": [
        {
          "internalType": "address",
          "name": "token",
          "type": "address"
        },
        {
          "internalType": "uint256",
          "name": "time",
          "type": "uint256"
        },
        {
          "internalType": "uint256",
          "name": "nextTime",
          "type": "uint256"
        }
      ],
      "name": "Locked",
      "type": "error"
    },
    {
      "anonymous": false,
      "inputs": [
        {
          "indexed": true,
          "internalType": "address",
          "name": "token",
          "type": "address"
        },
        {
          "indexed": false,
          "internalType": "uint256",
          "name": "amount",
          "type": "uint256"
        }
      ],
      "name": "Claim",
      "type": "event"
    },
    {
      "anonymous": false,
      "inputs": [
        {
          "indexed": true,
          "internalType": "address",
          "name": "token",
          "type": "address"
        },
        {
          "indexed": true,
          "internalType": "uint8",
          "name": "months",
          "type": "uint8"
        }
      ],
      "name": "Lock",
      "type": "event"
    },
    {
      "anonymous": false,
      "inputs": [
        {
          "indexed": true,
          "internalType": "address",
          "name": "previousOwner",
          "type": "address"
        },
        {
          "indexed": true,
          "internalType": "address",
          "name": "newOwner",
          "type": "address"
        }
      ],
      "name": "OwnershipTransferred",
      "type": "event"
    },
    {
      "inputs": [
        {
          "internalType": "address",
          "name": "token",
          "type": "address"
        }
      ],
      "name": "claim",
      "outputs": [],
      "stateMutability": "nonpayable",
      "type": "function"
    },
    {
      "inputs": [],
      "name": "contractName",
      "outputs": [
        {
          "internalType": "bytes32",
          "name": "",
          "type": "bytes32"
        }
      ],
      "stateMutability": "view",
      "type": "function"
    },
    {
      "inputs": [
        {
          "internalType": "address",
          "name": "token",
          "type": "address"
        }
      ],
      "name": "getLockNextTime",
      "outputs": [
        {
          "internalType": "uint256",
          "name": "",
          "type": "uint256"
        }
      ],
      "stateMutability": "view",
      "type": "function"
    },
    {
      "inputs": [
        {
          "internalType": "address",
          "name": "token",
          "type": "address"
        }
      ],
      "name": "getLockRemainingMonths",
      "outputs": [
        {
          "internalType": "uint256",
          "name": "",
          "type": "uint256"
        }
      ],
      "stateMutability": "view",
      "type": "function"
    },
    {
      "inputs": [
        {
          "internalType": "address",
          "name": "token",
          "type": "address"
        },
        {
          "internalType": "uint8",
          "name": "months",
          "type": "uint8"
        }
      ],
      "name": "lock",
      "outputs": [],
      "stateMutability": "nonpayable",
      "type": "function"
    },
    {
      "inputs": [],
      "name": "owner",
      "outputs": [
        {
          "internalType": "address",
          "name": "",
          "type": "address"
        }
      ],
      "stateMutability": "view",
      "type": "function"
    },
    {
      "inputs": [],
      "name": "renounceOwnership",
      "outputs": [],
      "stateMutability": "nonpayable",
      "type": "function"
    },
    {
      "inputs": [
        {
          "internalType": "bytes4",
          "name": "",
          "type": "bytes4"
        }
      ],
      "name": "supportsInterface",
      "outputs": [
        {
          "internalType": "bool",
          "name": "",
          "type": "bool"
        }
      ],
      "stateMutability": "view",
      "type": "function"
    },
    {
      "inputs": [
        {
          "internalType": "address",
          "name": "newOwner",
          "type": "address"
        }
      ],
      "name": "transferOwnership",
      "outputs": [],
      "stateMutability": "nonpayable",
      "type": "function"
    },
    {
      "inputs": [],
      "name": "version",
      "outputs": [
        {
          "internalType": "uint256",
          "name": "",
          "type": "uint256"
        }
      ],
      "stateMutability": "view",
      "type": "function"
    }
  ],
  "bytecode": "0x60806040523480156200001157600080fd5b5060408051808201909152600881526754696d656c6f636b60c01b60208201526200003c33620001be565b8051602090910120600155600054600160a81b900460ff166200006d57600054600160a01b900460ff161562000077565b620000776200020e565b620000e05760405162461bcd60e51b815260206004820152602e60248201527f496e697469616c697a61626c653a20636f6e747261637420697320616c72656160448201526d191e481a5b9a5d1a585b1a5e995960921b60648201526084015b60405180910390fd5b600054600160a81b900460ff161580156200010b576000805461ffff60a01b191661010160a01b1790555b60408051808201909152600881526754696d656c6f636b60c01b6020820152620001379060016200022c565b60036020527f96eac66d189e0789ae24dfb0ea24afdd4b2c99694d27de045ecac35c0660dff68054600160ff1991821681179092556334855e1b60e21b6000527f6161cf8877fe1fa57d6c5f34f7f546c07d2fc61126e0fca9793cf421cb239288805490911690911790558015620001b7576000805460ff60a81b191690555b506200033b565b600080546001600160a01b038381166001600160a01b0319831681178455604051919092169283917f8be0079c531659141344cd1fd0a4f28419497f9722a3daafe3b4186f6b6457e09190a35050565b600062000226306200032c60201b6200062f1760201c565b15905090565b600054600160a81b900460ff166200029b5760405162461bcd60e51b815260206004820152602b60248201527f496e697469616c697a61626c653a20636f6e7472616374206973206e6f74206960448201526a6e697469616c697a696e6760a81b6064820152608401620000d7565b8151602083012060015580620002b6576001600255620002bd565b6000196002555b505060036020527f28b0ef64f7e82d3b26f3fd404bd0151552f792965f39c29ae82c0a78df67af9c8054600160ff19918216811790925563084b636360e21b6000527ff2ce595d3685ae93af455b2a85c171e0605a33d91f3700771e47939a4623804580549091169091179055565b6001600160a01b03163b151590565b610cc0806200034b6000396000f3fe608060405234801561001057600080fd5b506004361061009e5760003560e01c806387e9e1771161006657806387e9e177146101185780638da5cb5b1461014b578063a473c04a14610166578063ef0c19cb14610179578063f2fde38b146101ac57600080fd5b806301ffc9a7146100a35780631e83409a146100db57806354fd4d50146100f0578063715018a61461010757806375d0c0dc1461010f575b600080fd5b6100c66100b1366004610a76565b60036020526000908152604090205460ff1681565b60405190151581526020015b60405180910390f35b6100ee6100e9366004610abc565b6101bf565b005b6100f960025481565b6040519081526020016100d2565b6100ee610473565b6100f960015481565b6100f9610126366004610abc565b6001600160a01b031660009081526068602052604090205467ffffffffffffffff1690565b6000546040516001600160a01b0390911681526020016100d2565b6100ee610174366004610ad7565b6104a9565b6100f9610187366004610abc565b6001600160a01b0316600090815260686020526040902054600160401b900460ff1690565b6100ee6101ba366004610abc565b610594565b6001600160a01b0381166000818152606860205260409020906101e9906359b6aa6360e01b61063e565b80156102645750816001600160a01b0316639f5045e56040518163ffffffff1660e01b815260040160206040518083038186803b15801561022957600080fd5b505afa15801561023d573d6000803e3d6000fd5b505050506040513d601f19601f820116820180604052508101906102619190610b14565b15155b1561027557805460ff60401b191681555b8054600160401b900460ff1661029b57805460ff60401b1916600160401b17815561033a565b80544267ffffffffffffffff90911611156102f2578054604051630d4665e360e41b81526001600160a01b038416600482015242602482015267ffffffffffffffff90911660448201526064015b60405180910390fd5b805462278d0090829060009061031390849067ffffffffffffffff16610b43565b92506101000a81548167ffffffffffffffff021916908367ffffffffffffffff1602179055505b80546040516370a0823160e01b8152306004820152600091600160401b900460ff16906001600160a01b038516906370a082319060240160206040518083038186803b15801561038957600080fd5b505afa15801561039d573d6000803e3d6000fd5b505050506040513d601f19601f820116820180604052508101906103c19190610b14565b6103cb9190610b6f565b825490915060019083906008906103ed908490600160401b900460ff16610b91565b92506101000a81548160ff021916908360ff160217905550826001600160a01b03167f47cee97cb7acd717b3c0aa1435d004cd5b3c8c57d70dbceb4e4458bbd60e39d48260405161044091815260200190565b60405180910390a261046e61045d6000546001600160a01b031690565b6001600160a01b0385169083610663565b505050565b6000546001600160a01b0316331461049d5760405162461bcd60e51b81526004016102e990610bb4565b6104a760006106b5565b565b6000546001600160a01b031633146104d35760405162461bcd60e51b81526004016102e990610bb4565b6001600160a01b03821660009081526068602052604090208054600160401b900460ff161561051f57604051624eccd560e01b81526001600160a01b03841660048201526024016102e9565b61052c4262278d00610b43565b815460ff8416600160401b810268ffffffffffffffffff1990921667ffffffffffffffff93909316929092171782556040516001600160a01b038516907fb756f440d2a27ed115fb28fe42f3d7c7f7a5fd6295e57ca64a4d00a87fb3621290600090a3505050565b6000546001600160a01b031633146105be5760405162461bcd60e51b81526004016102e990610bb4565b6001600160a01b0381166106235760405162461bcd60e51b815260206004820152602660248201527f4f776e61626c653a206e6577206f776e657220697320746865207a65726f206160448201526564647265737360d01b60648201526084016102e9565b61062c816106b5565b50565b6001600160a01b03163b151590565b600061064983610705565b801561065a575061065a8383610738565b90505b92915050565b604080516001600160a01b038416602482015260448082018490528251808303909101815260649091019091526020810180516001600160e01b031663a9059cbb60e01b17905261046e908490610821565b600080546001600160a01b038381166001600160a01b0319831681178455604051919092169283917f8be0079c531659141344cd1fd0a4f28419497f9722a3daafe3b4186f6b6457e09190a35050565b6000610718826301ffc9a760e01b610738565b801561065d5750610731826001600160e01b0319610738565b1592915050565b604080516001600160e01b0319831660248083019190915282518083039091018152604490910182526020810180516001600160e01b03166301ffc9a760e01b179052905160009190829081906001600160a01b038716906175309061079f908690610c19565b6000604051808303818686fa925050503d80600081146107db576040519150601f19603f3d011682016040523d82523d6000602084013e6107e0565b606091505b50915091506020815110156107fb576000935050505061065d565b8180156108175750808060200190518101906108179190610c35565b9695505050505050565b6000610876826040518060400160405280602081526020017f5361666545524332303a206c6f772d6c6576656c2063616c6c206661696c6564815250856001600160a01b03166108f39092919063ffffffff16565b80519091501561046e57808060200190518101906108949190610c35565b61046e5760405162461bcd60e51b815260206004820152602a60248201527f5361666545524332303a204552433230206f7065726174696f6e20646964206e6044820152691bdd081cdd58d8d9595960b21b60648201526084016102e9565b6060610902848460008561090c565b90505b9392505050565b60608247101561096d5760405162461bcd60e51b815260206004820152602660248201527f416464726573733a20696e73756666696369656e742062616c616e636520666f6044820152651c8818d85b1b60d21b60648201526084016102e9565b6001600160a01b0385163b6109c45760405162461bcd60e51b815260206004820152601d60248201527f416464726573733a2063616c6c20746f206e6f6e2d636f6e747261637400000060448201526064016102e9565b600080866001600160a01b031685876040516109e09190610c19565b60006040518083038185875af1925050503d8060008114610a1d576040519150601f19603f3d011682016040523d82523d6000602084013e610a22565b606091505b5091509150610a32828286610a3d565b979650505050505050565b60608315610a4c575081610905565b825115610a5c5782518084602001fd5b8160405162461bcd60e51b81526004016102e99190610c57565b600060208284031215610a8857600080fd5b81356001600160e01b03198116811461090557600080fd5b80356001600160a01b0381168114610ab757600080fd5b919050565b600060208284031215610ace57600080fd5b61065a82610aa0565b60008060408385031215610aea57600080fd5b610af383610aa0565b9150602083013560ff81168114610b0957600080fd5b809150509250929050565b600060208284031215610b2657600080fd5b5051919050565b634e487b7160e01b600052601160045260246000fd5b600067ffffffffffffffff808316818516808303821115610b6657610b66610b2d565b01949350505050565b600082610b8c57634e487b7160e01b600052601260045260246000fd5b500490565b600060ff821660ff841680821015610bab57610bab610b2d565b90039392505050565b6020808252818101527f4f776e61626c653a2063616c6c6572206973206e6f7420746865206f776e6572604082015260600190565b60005b83811015610c04578181015183820152602001610bec565b83811115610c13576000848401525b50505050565b60008251610c2b818460208701610be9565b9190910192915050565b600060208284031215610c4757600080fd5b8151801515811461090557600080fd5b6020815260008251806020840152610c76816040850160208701610be9565b601f01601f1916919091016040019291505056fea2646970667358221220e9e2d32ec857827fedecf5c54b7c98b9b9ab8fcfa70443091950f0b91334e7ee64736f6c63430008090033",
  "linkReferences": {},
  "deployedLinkReferences": {}
}